{
  "_format": "hh-sol-artifact-1",
  "contractName": "AppealSystem",
  "sourceName": "contracts/AppealSystem.sol",
  "abi": [
    {
      "inputs": [
        {
          "internalType": "address",
          "name": "_moderatorControl",
          "type": "address"
        },
        {
          "internalType": "address",
          "name": "_reputationSystem",
          "type": "address"
        }
      ],
      "stateMutability": "nonpayable",
      "type": "constructor"
    },
    {
      "inputs": [],
      "name": "InvalidShortString",
      "type": "error"
    },
    {
      "inputs": [
        {
          "internalType": "string",
          "name": "str",
          "type": "string"
        }
      ],
      "name": "StringTooLong",
      "type": "error"
    },
    {
      "anonymous": false,
      "inputs": [
        {
          "indexed": true,
          "internalType": "address",
          "name": "user",
          "type": "address"
        },
        {
          "indexed": true,
          "internalType": "uint256",
          "name": "appealIndex",
          "type": "uint256"
        },
        {
          "indexed": false,
          "internalType": "enum AppealSystem.AppealStatus",
          "name": "status",
          "type": "uint8"
        },
        {
          "indexed": true,
          "internalType": "address",
          "name": "reviewer",
          "type": "address"
        }
      ],
      "name": "AppealReviewed",
      "type": "event"
    },
    {
      "anonymous": false,
      "inputs": [
        {
          "indexed": true,
          "internalType": "address",
          "name": "user",
          "type": "address"
        },
        {
          "indexed": true,
          "internalType": "uint256",
          "name": "appealIndex",
          "type": "uint256"
        },
        {
          "indexed": false,
          "internalType": "enum AppealSystem.AppealStatus",
          "name": "status",
          "type": "uint8"
        }
      ],
      "name": "AppealStatusUpdated",
      "type": "event"
    },
    {
      "anonymous": false,
      "inputs": [
        {
          "indexed": true,
          "internalType": "address",
          "name": "user",
          "type": "address"
        },
        {
          "indexed": true,
          "internalType": "uint256",
          "name": "appealIndex",
          "type": "uint256"
        },
        {
          "indexed": false,
          "internalType": "uint256",
          "name": "caseId",
          "type": "uint256"
        },
        {
          "indexed": false,
          "internalType": "uint256",
          "name": "timestamp",
          "type": "uint256"
        }
      ],
      "name": "AppealSubmitted",
      "type": "event"
    },
    {
      "anonymous": false,
      "inputs": [
        {
          "indexed": true,
          "internalType": "address",
          "name": "reviewer",
          "type": "address"
        },
        {
          "indexed": true,
          "internalType": "uint256",
          "name": "appealIndex",
          "type": "uint256"
        },
        {
          "indexed": false,
          "internalType": "bool",
          "name": "vote",
          "type": "bool"
        }
      ],
      "name": "AppealVoteSubmitted",
      "type": "event"
    },
    {
      "anonymous": false,
      "inputs": [],
      "name": "EIP712DomainChanged",
      "type": "event"
    },
    {
      "anonymous": false,
      "inputs": [
        {
          "indexed": false,
          "internalType": "address",
          "name": "account",
          "type": "address"
        }
      ],
      "name": "Paused",
      "type": "event"
    },
    {
      "anonymous": false,
      "inputs": [
        {
          "indexed": true,
          "internalType": "address",
          "name": "reviewer",
          "type": "address"
        }
      ],
      "name": "ReviewerAdded",
      "type": "event"
    },
    {
      "anonymous": false,
      "inputs": [
        {
          "indexed": true,
          "internalType": "address",
          "name": "reviewer",
          "type": "address"
        }
      ],
      "name": "ReviewerRemoved",
      "type": "event"
    },
    {
      "anonymous": false,
      "inputs": [
        {
          "indexed": true,
          "internalType": "bytes32",
          "name": "role",
          "type": "bytes32"
        },
        {
          "indexed": true,
          "internalType": "bytes32",
          "name": "previousAdminRole",
          "type": "bytes32"
        },
        {
          "indexed": true,
          "internalType": "bytes32",
          "name": "newAdminRole",
          "type": "bytes32"
        }
      ],
      "name": "RoleAdminChanged",
      "type": "event"
    },
    {
      "anonymous": false,
      "inputs": [
        {
          "indexed": true,
          "internalType": "bytes32",
          "name": "role",
          "type": "bytes32"
        },
        {
          "indexed": true,
          "internalType": "address",
          "name": "account",
          "type": "address"
        },
        {
          "indexed": true,
          "internalType": "address",
          "name": "sender",
          "type": "address"
        }
      ],
      "name": "RoleGranted",
      "type": "event"
    },
    {
      "anonymous": false,
      "inputs": [
        {
          "indexed": true,
          "internalType": "bytes32",
          "name": "role",
          "type": "bytes32"
        },
        {
          "indexed": true,
          "internalType": "address",
          "name": "account",
          "type": "address"
        },
        {
          "indexed": true,
          "internalType": "address",
          "name": "sender",
          "type": "address"
        }
      ],
      "name": "RoleRevoked",
      "type": "event"
    },
    {
      "anonymous": false,
      "inputs": [
        {
          "indexed": false,
          "internalType": "address",
          "name": "account",
          "type": "address"
        }
      ],
      "name": "Unpaused",
      "type": "event"
    },
    {
      "inputs": [],
      "name": "APPEAL_COOLDOWN_PERIOD",
      "outputs": [
        {
          "internalType": "uint256",
          "name": "",
          "type": "uint256"
        }
      ],
      "stateMutability": "view",
      "type": "function"
    },
    {
      "inputs": [],
      "name": "APPEAL_REQUEST_TYPEHASH",
      "outputs": [
        {
          "internalType": "bytes32",
          "name": "",
          "type": "bytes32"
        }
      ],
      "stateMutability": "view",
      "type": "function"
    },
    {
      "inputs": [],
      "name": "APPEAL_REVIEWER_ROLE",
      "outputs": [
        {
          "internalType": "bytes32",
          "name": "",
          "type": "bytes32"
        }
      ],
      "stateMutability": "view",
      "type": "function"
    },
    {
      "inputs": [],
      "name": "APPEAL_REVIEW_PERIOD",
      "outputs": [
        {
          "internalType": "uint256",
          "name": "",
          "type": "uint256"
        }
      ],
      "stateMutability": "view",
      "type": "function"
    },
    {
      "inputs": [],
      "name": "DEFAULT_ADMIN_ROLE",
      "outputs": [
        {
          "internalType": "bytes32",
          "name": "",
          "type": "bytes32"
        }
      ],
      "stateMutability": "view",
      "type": "function"
    },
    {
      "inputs": [],
      "name": "MIN_VOTES_REQUIRED",
      "outputs": [
        {
          "internalType": "uint256",
          "name": "",
          "type": "uint256"
        }
      ],
      "stateMutability": "view",
      "type": "function"
    },
    {
      "inputs": [],
      "name": "MODERATOR_ROLE",
      "outputs": [
        {
          "internalType": "bytes32",
          "name": "",
          "type": "bytes32"
        }
      ],
      "stateMutability": "view",
      "type": "function"
    },
    {
      "inputs": [],
      "name": "REPUTATION_BONUS_ON_SUCCESSFUL_APPEAL",
      "outputs": [
        {
          "internalType": "uint256",
          "name": "",
          "type": "uint256"
        }
      ],
      "stateMutability": "view",
      "type": "function"
    },
    {
      "inputs": [
        {
          "internalType": "address",
          "name": "reviewer",
          "type": "address"
        }
      ],
      "name": "addReviewer",
      "outputs": [],
      "stateMutability": "nonpayable",
      "type": "function"
    },
    {
      "inputs": [
        {
          "internalType": "uint256",
          "name": "",
          "type": "uint256"
        }
      ],
      "name": "appealVoteCount",
      "outputs": [
        {
          "internalType": "uint256",
          "name": "",
          "type": "uint256"
        }
      ],
      "stateMutability": "view",
      "type": "function"
    },
    {
      "inputs": [
        {
          "internalType": "uint256",
          "name": "",
          "type": "uint256"
        },
        {
          "internalType": "address",
          "name": "",
          "type": "address"
        }
      ],
      "name": "appealVotes",
      "outputs": [
        {
          "internalType": "bool",
          "name": "",
          "type": "bool"
        }
      ],
      "stateMutability": "view",
      "type": "function"
    },
    {
      "inputs": [],
      "name": "eip712Domain",
      "outputs": [
        {
          "internalType": "bytes1",
          "name": "fields",
          "type": "bytes1"
        },
        {
          "internalType": "string",
          "name": "name",
          "type": "string"
        },
        {
          "internalType": "string",
          "name": "version",
          "type": "string"
        },
        {
          "internalType": "uint256",
          "name": "chainId",
          "type": "uint256"
        },
        {
          "internalType": "address",
          "name": "verifyingContract",
          "type": "address"
        },
        {
          "internalType": "bytes32",
          "name": "salt",
          "type": "bytes32"
        },
        {
          "internalType": "uint256[]",
          "name": "extensions",
          "type": "uint256[]"
        }
      ],
      "stateMutability": "view",
      "type": "function"
    },
    {
      "inputs": [
        {
          "internalType": "address",
          "name": "user",
          "type": "address"
        },
        {
          "internalType": "uint256",
          "name": "appealIndex",
          "type": "uint256"
        }
      ],
      "name": "getAppealDetails",
      "outputs": [
        {
          "components": [
            {
              "internalType": "address",
              "name": "user",
              "type": "address"
            },
            {
              "internalType": "string",
              "name": "reason",
              "type": "string"
            },
            {
              "internalType": "string",
              "name": "evidence",
              "type": "string"
            },
            {
              "internalType": "uint256",
              "name": "timestamp",
              "type": "uint256"
            },
            {
              "internalType": "enum AppealSystem.AppealStatus",
              "name": "status",
              "type": "uint8"
            },
            {
              "internalType": "address",
              "name": "reviewer",
              "type": "address"
            },
            {
              "internalType": "string",
              "name": "reviewNotes",
              "type": "string"
            },
            {
              "internalType": "uint256",
              "name": "reviewTimestamp",
              "type": "uint256"
            },
            {
              "internalType": "uint256",
              "name": "caseId",
              "type": "uint256"
            },
            {
              "internalType": "uint256",
              "name": "appealDeadline",
              "type": "uint256"
            }
          ],
          "internalType": "struct AppealSystem.Appeal",
          "name": "",
          "type": "tuple"
        }
      ],
      "stateMutability": "view",
      "type": "function"
    },
    {
      "inputs": [],
      "name": "getReviewerCount",
      "outputs": [
        {
          "internalType": "uint256",
          "name": "",
          "type": "uint256"
        }
      ],
      "stateMutability": "view",
      "type": "function"
    },
    {
      "inputs": [],
      "name": "getReviewers",
      "outputs": [
        {
          "internalType": "address[]",
          "name": "",
          "type": "address[]"
        }
      ],
      "stateMutability": "view",
      "type": "function"
    },
    {
      "inputs": [
        {
          "internalType": "bytes32",
          "name": "role",
          "type": "bytes32"
        }
      ],
      "name": "getRoleAdmin",
      "outputs": [
        {
          "internalType": "bytes32",
          "name": "",
          "type": "bytes32"
        }
      ],
      "stateMutability": "view",
      "type": "function"
    },
    {
      "inputs": [
        {
          "internalType": "address",
          "name": "user",
          "type": "address"
        }
      ],
      "name": "getUserAppealsCount",
      "outputs": [
        {
          "internalType": "uint256",
          "name": "",
          "type": "uint256"
        }
      ],
      "stateMutability": "view",
      "type": "function"
    },
    {
      "inputs": [
        {
          "internalType": "address",
          "name": "user",
          "type": "address"
        }
      ],
      "name": "getUserNonce",
      "outputs": [
        {
          "internalType": "uint256",
          "name": "",
          "type": "uint256"
        }
      ],
      "stateMutability": "view",
      "type": "function"
    },
    {
      "inputs": [
        {
          "internalType": "bytes32",
          "name": "role",
          "type": "bytes32"
        },
        {
          "internalType": "address",
          "name": "account",
          "type": "address"
        }
      ],
      "name": "grantRole",
      "outputs": [],
      "stateMutability": "nonpayable",
      "type": "function"
    },
    {
      "inputs": [
        {
          "internalType": "bytes32",
          "name": "role",
          "type": "bytes32"
        },
        {
          "internalType": "address",
          "name": "account",
          "type": "address"
        }
      ],
      "name": "hasRole",
      "outputs": [
        {
          "internalType": "bool",
          "name": "",
          "type": "bool"
        }
      ],
      "stateMutability": "view",
      "type": "function"
    },
    {
      "inputs": [
        {
          "internalType": "address",
          "name": "",
          "type": "address"
        }
      ],
      "name": "isReviewer",
      "outputs": [
        {
          "internalType": "bool",
          "name": "",
          "type": "bool"
        }
      ],
      "stateMutability": "view",
      "type": "function"
    },
    {
      "inputs": [],
      "name": "moderatorControl",
      "outputs": [
        {
          "internalType": "contract ModeratorControl",
          "name": "",
          "type": "address"
        }
      ],
      "stateMutability": "view",
      "type": "function"
    },
    {
      "inputs": [
        {
          "internalType": "address",
          "name": "",
          "type": "address"
        }
      ],
      "name": "nonces",
      "outputs": [
        {
          "internalType": "uint256",
          "name": "",
          "type": "uint256"
        }
      ],
      "stateMutability": "view",
      "type": "function"
    },
    {
      "inputs": [],
      "name": "pause",
      "outputs": [],
      "stateMutability": "nonpayable",
      "type": "function"
    },
    {
      "inputs": [],
      "name": "paused",
      "outputs": [
        {
          "internalType": "bool",
          "name": "",
          "type": "bool"
        }
      ],
      "stateMutability": "view",
      "type": "function"
    },
    {
      "inputs": [
        {
          "internalType": "address",
          "name": "reviewer",
          "type": "address"
        }
      ],
      "name": "removeReviewer",
      "outputs": [],
      "stateMutability": "nonpayable",
      "type": "function"
    },
    {
      "inputs": [
        {
          "internalType": "bytes32",
          "name": "role",
          "type": "bytes32"
        },
        {
          "internalType": "address",
          "name": "account",
          "type": "address"
        }
      ],
      "name": "renounceRole",
      "outputs": [],
      "stateMutability": "nonpayable",
      "type": "function"
    },
    {
      "inputs": [],
      "name": "reputationSystem",
      "outputs": [
        {
          "internalType": "contract ReputationSystem",
          "name": "",
          "type": "address"
        }
      ],
      "stateMutability": "view",
      "type": "function"
    },
    {
      "inputs": [
        {
          "internalType": "address",
          "name": "user",
          "type": "address"
        },
        {
          "internalType": "uint256",
          "name": "appealIndex",
          "type": "uint256"
        },
        {
          "internalType": "bool",
          "name": "approved",
          "type": "bool"
        },
        {
          "internalType": "string",
          "name": "notes",
          "type": "string"
        }
      ],
      "name": "reviewAppeal",
      "outputs": [],
      "stateMutability": "nonpayable",
      "type": "function"
    },
    {
      "inputs": [
        {
          "internalType": "uint256",
          "name": "",
          "type": "uint256"
        }
      ],
      "name": "reviewers",
      "outputs": [
        {
          "internalType": "address",
          "name": "",
          "type": "address"
        }
      ],
      "stateMutability": "view",
      "type": "function"
    },
    {
      "inputs": [
        {
          "internalType": "bytes32",
          "name": "role",
          "type": "bytes32"
        },
        {
          "internalType": "address",
          "name": "account",
          "type": "address"
        }
      ],
      "name": "revokeRole",
      "outputs": [],
      "stateMutability": "nonpayable",
      "type": "function"
    },
    {
      "inputs": [
        {
          "internalType": "address",
          "name": "user",
          "type": "address"
        },
        {
          "internalType": "string",
          "name": "reason",
          "type": "string"
        },
        {
          "internalType": "string",
          "name": "evidence",
          "type": "string"
        },
        {
          "internalType": "uint256",
          "name": "caseId",
          "type": "uint256"
        },
        {
          "internalType": "bytes",
          "name": "signature",
          "type": "bytes"
        }
      ],
      "name": "submitAppeal",
      "outputs": [],
      "stateMutability": "nonpayable",
      "type": "function"
    },
    {
      "inputs": [
        {
          "internalType": "bytes4",
          "name": "interfaceId",
          "type": "bytes4"
        }
      ],
      "name": "supportsInterface",
      "outputs": [
        {
          "internalType": "bool",
          "name": "",
          "type": "bool"
        }
      ],
      "stateMutability": "view",
      "type": "function"
    },
    {
      "inputs": [],
      "name": "unpause",
      "outputs": [],
      "stateMutability": "nonpayable",
      "type": "function"
    },
    {
      "inputs": [
        {
          "internalType": "address",
          "name": "",
          "type": "address"
        },
        {
          "internalType": "uint256",
          "name": "",
          "type": "uint256"
        }
      ],
      "name": "userAppeals",
      "outputs": [
        {
          "internalType": "address",
          "name": "user",
          "type": "address"
        },
        {
          "internalType": "string",
          "name": "reason",
          "type": "string"
        },
        {
          "internalType": "string",
          "name": "evidence",
          "type": "string"
        },
        {
          "internalType": "uint256",
          "name": "timestamp",
          "type": "uint256"
        },
        {
          "internalType": "enum AppealSystem.AppealStatus",
          "name": "status",
          "type": "uint8"
        },
        {
          "internalType": "address",
          "name": "reviewer",
          "type": "address"
        },
        {
          "internalType": "string",
          "name": "reviewNotes",
          "type": "string"
        },
        {
          "internalType": "uint256",
          "name": "reviewTimestamp",
          "type": "uint256"
        },
        {
          "internalType": "uint256",
          "name": "caseId",
          "type": "uint256"
        },
        {
          "internalType": "uint256",
          "name": "appealDeadline",
          "type": "uint256"
        }
      ],
      "stateMutability": "view",
      "type": "function"
    }
  ],
  "bytecode": "0x6101606040818152346200086957808262003d1a80380380916200002482856200088a565b83398101031262000869576200003a82620008ae565b906200004a6020809401620008ae565b9281519162000059836200086e565b600c8352818301916b41707065616c53797374656d60a01b835281519062000081826200086e565b6001808352818301603160f81b81526200009b87620008c3565b95610120968752620000ad8562000a56565b97610140988952519020938460e0525190209761010098808a524660a052855190848201957f8b73c3c69bb8fe3d512ecc4cf759cc79239f7b179b0ffacaa9a75d522b39400f87528783015260608201524660808201523060a082015260a0815260c081019160018060401b0395828410878511176200085357838852825190206080523060c052600354926001600160a01b03928b841615620007f9575050169788156200079e576001600160a81b031990911660089190911b610100600160a81b031617600355600480546001600160a01b0319908116909817815560008080528084528581203382528452858120549098939160ff9182161562000767575b7f71f3d55856e4058ed06ee057d79ada615f65cdf5f9ee88181b914225088f834f808b528a8452878b20338c52845282888c205416156200072e575b507f918bb6e5c050e9cd1be41cb6474e2ec868ffd537c1bd7a3f63796e7cf231bc6695868b528a8452878b20338c52845282888c20541615620006f6575b3315620006a457338b526005845282888c2054166200066357338b5260058452878b209560ff19968688825416179055600654680100000000000000008110156200065057868101806006558110156200063d5760068d52858d2001903390825416179055868b528a845284888c200154808c52888c20338d52855283898d205416156200037857505050848952888252858920338a5282528589205416156200033f575b5050505051927fa78fc22d4599bb0c6086d2af06bc1158a45e81f81994d0734c428ab181c1463f339180a26130b1938462000c29853960805184612f12015260a05184612fdd015260c05184612edc015260e05184612f6101525183612f8701525182611af201525181611b1b0152f35b8388528781528488209033895252838720918254161790553390339060008051602062003cda8339815191528780a438808080620002ce565b8b899392878793339187519160608301838110868211176200057b578952602a835286830193893686378351156200062a576030855383518310156200062a576078602185015360295b838111620005be57506200058e57908851946080860190868210908211176200057b578952604285528685019560603688378551156200056857603087538551821015620005685790607860218701536041915b818311620004f857505050620004c857938693620004af936200049f60489462000475620004c4997f416363657373436f6e74726f6c3a206163636f756e74200000000000000000009c519c8d97880152518092603788019062000bad565b8401917001034b99036b4b9b9b4b733903937b6329607d1b60378401525180938684019062000bad565b010360288101875201856200088a565b5162461bcd60e51b8152928392830162000bd2565b0390fd5b60648686808a519262461bcd60e51b8452830152602482015260008051602062003cfa8339815191526044820152fd5b909192600f8116601081101562000555576f181899199a1a9b1b9c1cb0b131b232b360811b901a6200052b858962000c00565b53891c928015620005425760001901919062000416565b634e487b7160e01b825260118a52602482fd5b634e487b7160e01b835260328b52602483fd5b634e487b7160e01b815260328952602490fd5b634e487b7160e01b875260418952602487fd5b60648888808c519262461bcd60e51b8452830152602482015260008051602062003cfa8339815191526044820152fd5b90600f8116601081101562000617576f181899199a1a9b1b9c1cb0b131b232b360811b901a620005ef838762000c00565b53891c908015620006045760001901620003c2565b634e487b7160e01b885260118a52602488fd5b634e487b7160e01b895260328b52602489fd5b634e487b7160e01b875260328952602487fd5b634e487b7160e01b8d526032845260248dfd5b634e487b7160e01b8d526041845260248dfd5b60648285808b519262461bcd60e51b845283015260248201527f41707065616c53797374656d3a20416c726561647920612072657669657765726044820152fd5b875162461bcd60e51b8152808301859052602660248201527f41707065616c53797374656d3a20496e76616c6964207265766965776572206160448201526564647265737360d01b6064820152608490fd5b868b528a8452878b2033808d52908552888c20805460ff191687179055808860008051602062003cda8339815191528e80a462000229565b808b528a8452878b20338c528452878b208560ff198254161790553390339060008051602062003cda8339815191528d80a438620001eb565b898052898352868a20338b528352868a208460ff1982541617905533338b60008051602062003cda8339815191528180a4620001af565b855162461bcd60e51b815260048101859052602e60248201527f41707065616c53797374656d3a20496e76616c69642052657075746174696f6e60448201526d53797374656d206164647265737360901b6064820152608490fd5b906d6f6e74726f6c206164647265737360901b6101246084938962461bcd60e51b855260c4820152602e60e48201527f41707065616c53797374656d3a20496e76616c6964204d6f64657261746f72436101048201520152fd5b634e487b7160e01b600052604160045260246000fd5b600080fd5b604081019081106001600160401b038211176200085357604052565b601f909101601f19168101906001600160401b038211908210176200085357604052565b51906001600160a01b03821682036200086957565b8051602090818110156200091c5750601f825111620008ff5780825192015190808310620008f057501790565b82600019910360031b1b161790565b60405163305a27a960e01b815280620004c4846004830162000bd2565b9192916001600160401b038111620008535760019182548381811c9116801562000a4b575b8282101462000a3557601f8111620009fc575b5080601f83116001146200099457508192939460009262000988575b5050600019600383901b1c191690821b17905560ff90565b01519050388062000970565b90601f198316958460005282600020926000905b888210620009e45750508385969710620009ca575b505050811b01905560ff90565b015160001960f88460031b161c19169055388080620009bd565b808785968294968601518155019501930190620009a8565b8360005283601f83600020920160051c820191601f850160051c015b82811062000a2857505062000954565b6000815501849062000a18565b634e487b7160e01b600052602260045260246000fd5b90607f169062000941565b80516020908181101562000a835750601f825111620008ff5780825192015190808310620008f057501790565b906001600160401b0382116200085357600254926001938481811c9116801562000ba2575b8382101462000a3557601f811162000b68575b5081601f841160011462000afc575092829391839260009462000af0575b50501b916000199060031b1c19161760025560ff90565b01519250388062000ad9565b919083601f198116600260005284600020946000905b8883831062000b4d575050501062000b33575b505050811b0160025560ff90565b015160001960f88460031b161c1916905538808062000b25565b85870151885590960195948501948793509081019062000b12565b600260005284601f84600020920160051c820191601f860160051c015b82811062000b9557505062000abb565b6000815501859062000b85565b90607f169062000aa8565b60005b83811062000bc15750506000910152565b818101518382015260200162000bb0565b6040916020825262000bf4815180928160208601526020868601910162000bad565b601f01601f1916010190565b90815181101562000c12570160200190565b634e487b7160e01b600052603260045260246000fdfe608080604052600436101561001357600080fd5b600090813560e01c90816301ffc9a7146122fe5750806303705ab4146122d5578063248a9ca3146122a95780632f2ff15d146121fb57806336568abe146121685780633f4ba83a146120d35780635753ff48146120b75780635c87e65d1461207c5780635c975abb146120595780636587eda1146120305780636834e3a814611c2a57806373a82b5f14611e9057806375a8764314611dca578063797669c914611d8f5780637cbc4f9014611c635780637ecebe0014611c2a5780638456cb5914611bcf57806384b0196e14611ad857806386febbbf14611aba5780639047f6651461189157806391d148541461184957806395486a351461181c57806397c3c91014610fd85780639cc616f614610f94578063a217fddf14610f78578063a99c716514610f3f578063b256789114610f15578063b2c2392514610ec9578063c58b512914610ead578063c9442dac14610bec578063d1a4e6de14610bce578063d547741f14610b8e578063eb24fd8714610b70578063fd64aaf5146101e35763fdc6258a146101a257600080fd5b346101e05760203660031901126101e05760209060ff906040906001600160a01b036101cc61236e565b168152600584522054166040519015158152f35b80fd5b50346101e05760a03660031901126101e0576101fd61236e565b6024356001600160401b038111610b6c5761021c9036906004016125d8565b906044356001600160401b038111610b685761023c9036906004016125d8565b6084356001600160401b038111610b645736602382011215610b645761026c903690602481600401359101612592565b610274612c0c565b600354604051621eb41360ea1b81526001600160a01b03858116600483015290916020918391602491839160081c165afa8015610b59578690610b19575b600491506102bf81612cd0565b14610abe576001600160a01b038316855260076020526040852080549081610a08575b505060018060a01b0383168552600a6020526040852054845160208601209183516020850120916040519260208401947f57a7cfe7056eee68b1f17152f0aa828be6588381e5151010fb3b12704224d6ee865260018060a01b03881660408601526060850152608084015260643560a084015260c083015260c0825260e082018281106001600160401b038211176109f2576103b2936103aa9360429260405251902061038d612ed9565b906040519161190160f01b83526002830152602282015220612e12565b919091612cf2565b6001600160a01b0316801561099c576001600160a01b0383160361093b576001600160a01b0382168452600a6020526040842080546103f090612cab565b905562093a8042014211610927576040519261040b84612486565b60018060a01b0383168452602084015260408301524260608301528260808301528260a083015260405161043e816124b5565b83815260c083015260e082018390526064356101008301524262093a80016101208301526001600160a01b038116835260076020526040832080549290600160401b841015610913578361049791600182018155612384565b9190916108ff57805182546001600160a01b0319166001600160a01b039190911617825560208101518051906001600160401b0382116107435781906104e060018601546123b6565b601f81116108af575b50602090601f8311600114610840578892610835575b50508160011b916000199060031b1c19161760018301555b60408101518051906001600160401b03821161074357819061053c60028601546123b6565b601f81116107e5575b50602090601f831160011461077657889261076b575b50508160011b916000199060031b1c19161760028301555b606081015160038301556004820160808201516004811015610757579061059d6105c49282612cda565b60a08301518154610100600160a81b03191660089190911b610100600160a81b0316179055565b60c08101518051906001600160401b038211610743576105e760058501546123b6565b601f81116106ff575b50602090601f831160011461068f57918060089492610120948a92610684575b50508160011b916000199060031b1c19161760058501555b60e08101516006850155610100810151600785015501519101556040805160643581524260208201526001600160a01b03909216917fc7c7844620831d1da38b382e63446326b682c89b57bb6f00f181a28ea71dd8b09190a380f35b015190503880610610565b600585018852602088209190601f198416895b8181106106e757509260019285926101209660089896106106ce575b505050811b016005850155610628565b015160001960f88460031b161c191690553880806106be565b929360206001819287860151815501950193016106a2565b60058501885260208820601f840160051c81016020851061073c575b601f830160051c820181106107315750506105f0565b89815560010161071b565b508061071b565b634e487b7160e01b87526041600452602487fd5b634e487b7160e01b87526021600452602487fd5b01519050388061055b565b9250600285018852602088209088935b601f19841685106107ca576001945083601f198116106107b1575b505050811b016002830155610573565b015160001960f88460031b161c191690553880806107a1565b81810151835560209485019460019093019290910190610786565b90915060028501885260208820601f840160051c81016020851061082e575b90849392915b601f830160051c82018110610820575050610545565b8a815585945060010161080a565b5080610804565b0151905038806104ff565b9250600185018852602088209088935b601f1984168510610894576001945083601f1981161061087b575b505050811b016001830155610517565b015160001960f88460031b161c1916905538808061086b565b81810151835560209485019460019093019290910190610850565b90915060018501885260208820601f840160051c8101602085106108f8575b90849392915b601f830160051c820181106108ea5750506104e9565b8a81558594506001016108d4565b50806108ce565b634e487b7160e01b85526004859052602485fd5b634e487b7160e01b85526041600452602485fd5b634e487b7160e01b84526011600452602484fd5b60405162461bcd60e51b815260206004820152603360248201527f41707065616c53797374656d3a205369676e617475726520646f6573206e6f74604482015272206d617463682075736572206164647265737360681b6064820152608490fd5b60405162461bcd60e51b815260206004820152602860248201527f41707065616c53797374656d3a20496e76616c6964207369676e6174757265206044820152677265636f7665727960c01b6064820152608490fd5b634e487b7160e01b600052604160045260246000fd5b6000198201918211610aaa57600391610a2091612384565b50015462278d008101809111610a96574210610a3d5738806102e2565b60405162461bcd60e51b815260206004820152602b60248201527f41707065616c53797374656d3a204d757374207761697420666f7220636f6f6c60448201526a191bdddb881c195c9a5bd960aa1b6064820152608490fd5b634e487b7160e01b86526011600452602486fd5b634e487b7160e01b87526011600452602487fd5b60405162461bcd60e51b815260206004820152602d60248201527f41707065616c53797374656d3a204e6f2061637469766520726573747269637460448201526c1a5bdb881d1bc8185c1c19585b609a1b6064820152608490fd5b506020813d602011610b51575b81610b3360209383612506565b81010312610b4d57516005811015610b4d576004906102b2565b8580fd5b3d9150610b26565b6040513d88823e3d90fd5b8480fd5b8380fd5b8280fd5b50346101e057806003193601126101e057602060405162278d008152f35b50346101e05760403660031901126101e057610bcb600435610bae612353565b9080845283602052610bc660016040862001546127be565b6128c8565b80f35b50346101e057806003193601126101e057602060405162093a808152f35b50346101e057602080600319360112610ea957610c0761236e565b610c0f61262d565b610c17612c0c565b6001600160a01b0390811690610c2e821515612c50565b8184526005835260ff60408520541615610e64576001926006908482541115610e0e57838652600581526040862060ff199081815416905560008051602061305c83398151915291828852878152610c8b8760408a2001546127be565b8260005260008152604060002086600052815260ff60406000205416610dc0575b5050508385905b610ce1575b85847f49145f5509d304a1345a43a563c576514a1b93d345ffca3905a2bed1d867442c8280a280f35b815480821015610dba57839085610cf7846125f6565b939054600394851b1c1614610d17575050610d1190612cab565b84610cb3565b949550939192916000199190828101908111610da65790610d4b84610d3e610d6a946125f6565b905490891b1c16916125f6565b90919082549060031b9160018060a01b03809116831b921b1916179055565b82548015610d92570192610d7d846125f6565b81939154921b1b191690555580388080610cb8565b634e487b7160e01b87526031600452602487fd5b634e487b7160e01b88526011600452602488fd5b50610cb8565b8260005260008152604060002090866000525260406000209081541690558333917ff6391f5c32d9c69d2a47ea670b442974b53935d1edc7fd64eb21e047a839171b600080a4388080610cac565b6084906040519062461bcd60e51b82526004820152602960248201527f41707065616c53797374656d3a2043616e6e6f742072656d6f7665206c617374604482015268103932bb34b2bbb2b960b91b6064820152fd5b60405162461bcd60e51b815260048101849052601c60248201527f41707065616c53797374656d3a204e6f742061207265766965776572000000006044820152606490fd5b5080fd5b50346101e057806003193601126101e057602060405160038152f35b50346101e05760403660031901126101e0576040610ee5612353565b9160043581526008602052209060018060a01b0316600052602052602060ff604060002054166040519015158152f35b50346101e05760203660031901126101e05760406020916004358152600983522054604051908152f35b50346101e05760203660031901126101e0576020906040906001600160a01b03610f6761236e565b168152600783522054604051908152f35b50346101e057806003193601126101e057602090604051908152f35b50346101e05760203660031901126101e057600435906006548210156101e0576020610fbf836125f6565b905460405160039290921b1c6001600160a01b03168152f35b50346101e05760803660031901126101e057610ff261236e565b604435801515809103610b6c5760649081356001600160401b038111610b64576110209036906004016125d8565b9060008051602061305c833981519152808652856020526040862033875260205260ff6040872054161561165a5750611057612c0c565b6001600160a01b03841685526007602052604085205461107a9060243510613003565b6001600160a01b038416855260076020526040852061109c9060243590612384565b5060ff600482015416600481101561075757611617576008015442116115c757602435855260086020526040852033865260205260ff6040862054166115775760243585526008602052604085203386526020526040852060ff1981541660ff831617905560243585526009602052604085206111198154612cab565b9055604051908152602435907fffbb8b5dae805da1255874ae50694950249dd3fe52c358249388decc9e3d3f1760203392a360243584526009602052600360408520541015611166578380f35b6001600160a01b03831684526007602052604084206111889060243590612384565b50600481019260ff845416600481101561075757611524575084906024358652600960205260408620549286600654905b8181106114c65750508260011b9280840460021490151715610aaa57838311156114bc576111e960015b86612cda565b8454610100600160a81b0319163360081b610100600160a81b03161785558051906001600160401b0382116114a857819061122760058501546123b6565b601f8111611458575b50602090601f83116001146113e95789926113de575b50508160011b916000199060031b1c19161760058201555b600642910155116112fc575b60ff9054169060405161127d818461256f565b602435906001600160a01b038316907f2ef20b9c49c02b5b336b4ca233c1677fc9cb0c65931a3ed230e5a37f0672f7ad90602090a36112bf604051809361256f565b3391602435916001600160a01b0316907f8b9fb0c377504d652e919f13b27d07dd1400464933607e9ad0b8cf6c679789ec90602090a43880808380f35b600354839060081c6001600160a01b0316803b15610ea95760405163069a5b9560e41b81526001600160a01b038516600482015291908290602490829084905af180156113d3576113c0575b5060045483906001600160a01b0316803b15610ea957604051633f9ebffd60e11b81526001600160a01b0385166004820152601460248201529082908290604490829084905af180156113b5576113a1575b505061126a565b6113aa906124a2565b610b6c57823861139a565b6040513d84823e3d90fd5b6113cc909391936124a2565b9138611348565b6040513d86823e3d90fd5b015190503880611246565b9250600584018952602089209089935b601f198416851061143d576001945083601f19811610611424575b505050811b01600582015561125e565b015160001960f88460031b161c19169055388080611414565b818101518355602094850194600190930192909101906113f9565b90915060058401895260208920601f840160051c8101602085106114a1575b90849392915b601f830160051c82018110611493575050611230565b8b815585945060010161147d565b5080611477565b634e487b7160e01b88526041600452602488fd5b6111e960026111e3565b60243589526008602052604089206114dd826125f6565b905460039190911b1c6001600160a01b03168a52602052604089205460ff1661150f575b61150a90612cab565b6111b9565b9361151c61150a91612cab565b949050611501565b6084906518d95cdcd95960d21b6040519162461bcd60e51b835260206004840152602660248401527f41707065616c53797374656d3a2041707065616c20616c72656164792070726f6044840152820152fd5b60405162461bcd60e51b8152602060048201526024808201527f41707065616c53797374656d3a20526576696577657220616c726561647920766044820152631bdd195960e21b81850152608490fd5b60405162461bcd60e51b815260206004820152602360248201527f41707065616c53797374656d3a2052657669657720706572696f6420657870696044820152621c995960ea1b81850152608490fd5b8360405162461bcd60e51b815260206004820152602060248201527f41707065616c53797374656d3a2041707065616c206e6f742070656e64696e676044820152fd5b85846116653361294d565b929060405191611674836124eb565b604283526020830193606036863783511561180857603085538351906001918210156118085790607860218601536041915b81831161179a5750505061175857611754611725611734604887878760405195869376020b1b1b2b9b9a1b7b73a3937b61d1030b1b1b7bab73a1604d1b60208601526116fc815180926020603789019101612527565b8401917001034b99036b4b9b9b4b733903937b6329607d1b603784015251809386840190612527565b01036028810184520182612506565b60405162461bcd60e51b815260206004820152918291602483019061254a565b0390fd5b60405162461bcd60e51b815260206004820181905260248201527f537472696e67733a20686578206c656e67746820696e73756666696369656e746044820152fd5b909192600f811660108110156117f4576f181899199a1a9b1b9c1cb0b131b232b360811b901a6117ca858861293c565b5360041c9280156117e0576000190191906116a6565b634e487b7160e01b82526011600452602482fd5b634e487b7160e01b83526032600452602483fd5b634e487b7160e01b81526032600452602490fd5b50346101e057806003193601126101e05760035460405160089190911c6001600160a01b03168152602090f35b50346101e05760403660031901126101e05760ff604060209261186a612353565b60043582528185528282206001600160a01b03909116825284522054604051911615158152f35b50346101e05760403660031901126101e05761192a6118ae61236e565b60243590836101206040516118c281612486565b82815260606020820152606060408201528260608201528260808201528260a0820152606060c08201528260e082015282610100820152015260018060a01b0316808452600760205261191a60408520548310613003565b8352600760205260408320612384565b506040519061193882612486565b80546001600160a01b031682526040516119608161195981600186016123f0565b0382612506565b60208301526040516119798161195981600286016123f0565b604083015260038101546060830152600481015460ff81166004811015611aa6576080840152600890811c6001600160a01b031660a0840152604051929350916119ca8161195981600586016123f0565b60c0840152600681015460e08401526007810154610100840152015461012082015260405180916020825260018060a01b0381511660208301526020810151610120611a86611a276101409384604088015261016087019061254a565b611a43604086015191601f1992838983030160608a015261254a565b9060608601516080880152611a60608087015160a089019061256f565b60018060a01b0360a08701511660c088015260c0860151908783030160e088015261254a565b9260e0810151610100860152610100810151828601520151908301520390f35b634e487b7160e01b85526021600452602485fd5b50346101e057806003193601126101e0576020600654604051908152f35b50346101e057806003193601126101e057611b8190611b167f0000000000000000000000000000000000000000000000000000000000000000612a5b565b611b3f7f0000000000000000000000000000000000000000000000000000000000000000612b52565b9160405191611b4d836124b5565b818352604051948594600f60f81b8652611b7360209360e08589015260e088019061254a565b90868203604088015261254a565b904660608601523060808601528260a086015284820360c08601528080855193848152019401925b828110611bb857505050500390f35b835185528695509381019392810192600101611ba9565b50346101e057806003193601126101e057611be861262d565b611bf0612c0c565b600160ff1960035416176003557f62e78cea01bee320cd4e420270b5ea74000d11b0c9f74754ebdbfc544b05a2586020604051338152a180f35b50346101e05760203660031901126101e0576020906040906001600160a01b03611c5261236e565b168152600a83522054604051908152f35b50346101e05760403660031901126101e057611c7d61236e565b6001600160a01b03908116825260076020526040822080546024359190821015610b685790611cab91612384565b5090808254169060405192611cce84611cc781600185016123f0565b0385612506565b60405190611cea82611ce381600285016123f0565b0383612506565b611d79600382015460048301549460405190611d0d82611ce381600589016123f0565b600685015496611d4d6008600788015497015497611d3f6040519c8d9c8d5260208d61014091829101528d019061254a565b908b820360408d015261254a565b9360608a0152611d6360808a0160ff831661256f565b60081c1660a088015286820360c088015261254a565b9260e08501526101008401526101208301520390f35b50346101e057806003193601126101e05760206040517f71f3d55856e4058ed06ee057d79ada615f65cdf5f9ee88181b914225088f834f8152f35b50346101e057806003193601126101e05760405180916006549081835260208093018092600683527ff652222313e28459528d920b65115c16c04f3efc82aaedc97be59f3f377c0d3f90835b818110611e735750505084611e2c910385612506565b60405193838594850191818652518092526040850193925b828110611e5357505050500390f35b83516001600160a01b031685528695509381019392810192600101611e44565b82546001600160a01b031684529286019260019283019201611e16565b50346101e057602080600319360112610ea957611eab61236e565b90611eb461262d565b611ebc612c0c565b6001600160a01b03821691611ed2831515612c50565b8284526005825260ff604085205416611fed5782845260058252604084209060ff1991600183825416179055600654600160401b811015611fd95790610d4b826001611f2194016006556125f6565b60008051602061305c83398151915291828552848152611f4760016040872001546127be565b82855284815260408520848652815260ff60408620541615611f8e575b5050507fa78fc22d4599bb0c6086d2af06bc1158a45e81f81994d0734c428ab181c1463f8280a280f35b828552848152604085209084865252600160408520918254161790558133917f2f8788117e7eff1d82e926ec794901d17c78024a50270940304540a733656f0d8580a4388080611f64565b634e487b7160e01b86526041600452602486fd5b6064826040519062461bcd60e51b825280600483015260248201527f41707065616c53797374656d3a20416c726561647920612072657669657765726044820152fd5b50346101e057806003193601126101e0576004546040516001600160a01b039091168152602090f35b50346101e057806003193601126101e057602060ff600354166040519015158152f35b50346101e057806003193601126101e05760206040517f57a7cfe7056eee68b1f17152f0aa828be6588381e5151010fb3b12704224d6ee8152f35b50346101e057806003193601126101e057602060405160148152f35b50346101e057806003193601126101e0576120ec61262d565b60035460ff81161561212c5760ff19166003557f5db9ee0a495bf2e6ff9c91a7834c1ba4fdd244a5e8aa4e537bd38aeae4b073aa6020604051338152a180f35b60405162461bcd60e51b815260206004820152601460248201527314185d5cd8589b194e881b9bdd081c185d5cd95960621b6044820152606490fd5b50346101e05760403660031901126101e057612182612353565b336001600160a01b0382160361219e57610bcb906004356128c8565b60405162461bcd60e51b815260206004820152602f60248201527f416363657373436f6e74726f6c3a2063616e206f6e6c792072656e6f756e636560448201526e103937b632b9903337b91039b2b63360891b6064820152608490fd5b50346101e05760403660031901126101e057600435612218612353565b8183528260205261222f60016040852001546127be565b818352602083815260408085206001600160a01b039093168086529290915283205460ff161561225d578280f35b818352826020526040832081845260205260408320600160ff1982541617905533917f2f8788117e7eff1d82e926ec794901d17c78024a50270940304540a733656f0d8480a438808280f35b50346101e05760203660031901126101e057600160406020926004358152808452200154604051908152f35b50346101e057806003193601126101e057602060405160008051602061305c8339815191528152f35b905034610ea9576020366003190112610ea95760043563ffffffff60e01b8116809103610b6c5760209250637965db0b60e01b8114908115612342575b5015158152f35b6301ffc9a760e01b1490503861233b565b602435906001600160a01b038216820361236957565b600080fd5b600435906001600160a01b038216820361236957565b80548210156123a0576000526009602060002091020190600090565b634e487b7160e01b600052603260045260246000fd5b90600182811c921680156123e6575b60208310146123d057565b634e487b7160e01b600052602260045260246000fd5b91607f16916123c5565b9060009291805491612401836123b6565b9182825260019384811690816000146124635750600114612423575b50505050565b90919394506000526020928360002092846000945b83861061244f57505050500101903880808061241d565b805485870183015294019385908201612438565b9294505050602093945060ff191683830152151560051b0101903880808061241d565b61014081019081106001600160401b038211176109f257604052565b6001600160401b0381116109f257604052565b602081019081106001600160401b038211176109f257604052565b604081019081106001600160401b038211176109f257604052565b608081019081106001600160401b038211176109f257604052565b90601f801991011681019081106001600160401b038211176109f257604052565b60005b83811061253a5750506000910152565b818101518382015260200161252a565b9060209161256381518092818552858086019101612527565b601f01601f1916010190565b90600482101561257c5752565b634e487b7160e01b600052602160045260246000fd5b9291926001600160401b0382116109f257604051916125bb601f8201601f191660200184612506565b829481845281830111612369578281602093846000960137010152565b9080601f83011215612369578160206125f393359101612592565b90565b6006548110156123a05760066000527ff652222313e28459528d920b65115c16c04f3efc82aaedc97be59f3f377c0d3f0190600090565b3360009081527fad3228b676f7d3cd4284a5443f17f1962b36e491b30a40b2405849e597ba5fb5602090815260408083205490929060ff161561266f57505050565b6126783361294d565b9080845190612686826124eb565b6042825284820192606036853782511561180857603084538251906001918210156118085790607860218501536041915b8183116127785750505061273657604861175493869361271a9361270b985198899376020b1b1b2b9b9a1b7b73a3937b61d1030b1b1b7bab73a1604d1b8a8601526116fc815180928c603789019101612527565b01036028810187520185612506565b5192839262461bcd60e51b84526004840152602483019061254a565b60648486519062461bcd60e51b825280600483015260248201527f537472696e67733a20686578206c656e67746820696e73756666696369656e746044820152fd5b909192600f811660108110156117f4576f181899199a1a9b1b9c1cb0b131b232b360811b901a6127a8858761293c565b5360041c9280156117e0576000190191906126b7565b600090808252602090828252604092838120338252835260ff8482205416156127e75750505050565b6127f03361294d565b918451906127fd826124eb565b6042825284820192606036853782511561180857603084538251906001918210156118085790607860218501536041915b8183116128825750505061273657604861175493869361271a9361270b985198899376020b1b1b2b9b9a1b7b73a3937b61d1030b1b1b7bab73a1604d1b8a8601526116fc815180928c603789019101612527565b909192600f811660108110156117f4576f181899199a1a9b1b9c1cb0b131b232b360811b901a6128b2858761293c565b5360041c9280156117e05760001901919061282e565b9060009180835282602052604083209160018060a01b03169182845260205260ff6040842054166128f857505050565b80835282602052604083208284526020526040832060ff1981541690557ff6391f5c32d9c69d2a47ea670b442974b53935d1edc7fd64eb21e047a839171b339380a4565b9081518110156123a0570160200190565b60405190606082018281106001600160401b038211176109f257604052602a82526020820160403682378251156123a0576030905381516001908110156123a057607860218401536029905b8082116129ed5750506129a95790565b606460405162461bcd60e51b815260206004820152602060248201527f537472696e67733a20686578206c656e67746820696e73756666696369656e746044820152fd5b9091600f81166010811015612a46576f181899199a1a9b1b9c1cb0b131b232b360811b901a612a1c848661293c565b5360041c918015612a31576000190190612999565b60246000634e487b7160e01b81526011600452fd5b60246000634e487b7160e01b81526032600452fd5b60ff8114612a995760ff811690601f8211612a875760405191612a7d836124d0565b8252602082015290565b604051632cd44ac360e21b8152600490fd5b50604051600081600191825492612aaf846123b6565b80845293818116908115612b305750600114612ad3575b506125f392500382612506565b600081815291507fb10e2d527612073b26eecdfd717e6a320cf44b4afac2b0732d9fcbe2b7fa0cf65b848310612b1557506125f3935050810160200138612ac6565b81935090816020925483858901015201910190918492612afc565b9050602092506125f394915060ff191682840152151560051b82010138612ac6565b60ff8114612b745760ff811690601f8211612a875760405191612a7d836124d0565b50604051600254816000612b87836123b6565b80835292600190818116908115612b305750600114612bad57506125f392500382612506565b6002600090815291507f405787fa12a823e0f2b7631cc41b3ba8828b3321ca811111fa75cd3aa3bb5ace5b848310612bf157506125f3935050810160200138612ac6565b81935090816020925483858901015201910190918492612bd8565b60ff60035416612c1857565b60405162461bcd60e51b815260206004820152601060248201526f14185d5cd8589b194e881c185d5cd95960821b6044820152606490fd5b15612c5757565b60405162461bcd60e51b815260206004820152602660248201527f41707065616c53797374656d3a20496e76616c6964207265766965776572206160448201526564647265737360d01b6064820152608490fd5b6000198114612cba5760010190565b634e487b7160e01b600052601160045260246000fd5b6005111561257c57565b90600481101561257c5760ff80198354169116179055565b612cfb81612cd0565b80612d035750565b612d0c81612cd0565b60018103612d595760405162461bcd60e51b815260206004820152601860248201527f45434453413a20696e76616c6964207369676e617475726500000000000000006044820152606490fd5b612d6281612cd0565b60028103612daf5760405162461bcd60e51b815260206004820152601f60248201527f45434453413a20696e76616c6964207369676e6174757265206c656e677468006044820152606490fd5b80612dbb600392612cd0565b14612dc257565b60405162461bcd60e51b815260206004820152602260248201527f45434453413a20696e76616c6964207369676e6174757265202773272076616c604482015261756560f01b6064820152608490fd5b906041815114600014612e4057612e3c916020820151906060604084015193015160001a90612e4a565b9091565b5050600090600290565b9291907f7fffffffffffffffffffffffffffffff5d576e7357a4501ddfe92f46681b20a08311612ecd5791608094939160ff602094604051948552168484015260408301526060820152600093849182805260015afa15612ec05781516001600160a01b03811615612eba579190565b50600190565b50604051903d90823e3d90fd5b50505050600090600390565b307f00000000000000000000000000000000000000000000000000000000000000006001600160a01b03161480612fda575b15612f34577f000000000000000000000000000000000000000000000000000000000000000090565b60405160208101907f8b73c3c69bb8fe3d512ecc4cf759cc79239f7b179b0ffacaa9a75d522b39400f82527f000000000000000000000000000000000000000000000000000000000000000060408201527f000000000000000000000000000000000000000000000000000000000000000060608201524660808201523060a082015260a0815260c081018181106001600160401b038211176109f25760405251902090565b507f00000000000000000000000000000000000000000000000000000000000000004614612f0b565b1561300a57565b60405162461bcd60e51b815260206004820152602360248201527f41707065616c53797374656d3a2041707065616c20646f6573206e6f742065786044820152621a5cdd60ea1b6064820152608490fdfe918bb6e5c050e9cd1be41cb6474e2ec868ffd537c1bd7a3f63796e7cf231bc66a2646970667358221220bb43e87b4a6198e20134214afd4f3fdfdc68c65c96fb6102a54db5b0944ec86d64736f6c634300081300332f8788117e7eff1d82e926ec794901d17c78024a50270940304540a733656f0d537472696e67733a20686578206c656e67746820696e73756666696369656e74",
  "linkReferences": {},
  "deployedLinkReferences": {}
}