{
  "_format": "hh-sol-artifact-1",
  "contractName": "DigitalIdentityNFT",
  "sourceName": "contracts/DigitalIdentityNFT.sol",
  "abi": [
    {
      "inputs": [],
      "stateMutability": "nonpayable",
      "type": "constructor"
    },
    {
      "inputs": [
        {
          "internalType": "uint256",
          "name": "tokenId",
          "type": "uint256"
        }
      ],
      "name": "TransferNotAllowed",
      "type": "error"
    },
    {
      "anonymous": false,
      "inputs": [
        {
          "indexed": true,
          "internalType": "address",
          "name": "owner",
          "type": "address"
        },
        {
          "indexed": true,
          "internalType": "address",
          "name": "approved",
          "type": "address"
        },
        {
          "indexed": true,
          "internalType": "uint256",
          "name": "tokenId",
          "type": "uint256"
        }
      ],
      "name": "Approval",
      "type": "event"
    },
    {
      "anonymous": false,
      "inputs": [
        {
          "indexed": true,
          "internalType": "address",
          "name": "owner",
          "type": "address"
        },
        {
          "indexed": true,
          "internalType": "address",
          "name": "operator",
          "type": "address"
        },
        {
          "indexed": false,
          "internalType": "bool",
          "name": "approved",
          "type": "bool"
        }
      ],
      "name": "ApprovalForAll",
      "type": "event"
    },
    {
      "anonymous": false,
      "inputs": [
        {
          "indexed": true,
          "internalType": "uint256",
          "name": "tokenId",
          "type": "uint256"
        },
        {
          "indexed": true,
          "internalType": "address",
          "name": "owner",
          "type": "address"
        },
        {
          "indexed": false,
          "internalType": "string",
          "name": "did",
          "type": "string"
        }
      ],
      "name": "IdentityCreated",
      "type": "event"
    },
    {
      "anonymous": false,
      "inputs": [
        {
          "indexed": true,
          "internalType": "address",
          "name": "from",
          "type": "address"
        },
        {
          "indexed": true,
          "internalType": "address",
          "name": "to",
          "type": "address"
        },
        {
          "indexed": true,
          "internalType": "uint256",
          "name": "tokenId",
          "type": "uint256"
        },
        {
          "indexed": false,
          "internalType": "uint256",
          "name": "timestamp",
          "type": "uint256"
        }
      ],
      "name": "IdentityTransferred",
      "type": "event"
    },
    {
      "anonymous": false,
      "inputs": [
        {
          "indexed": true,
          "internalType": "uint256",
          "name": "tokenId",
          "type": "uint256"
        },
        {
          "indexed": false,
          "internalType": "enum DigitalIdentityNFT.VerificationLevel",
          "name": "level",
          "type": "uint8"
        }
      ],
      "name": "IdentityVerified",
      "type": "event"
    },
    {
      "anonymous": false,
      "inputs": [
        {
          "indexed": true,
          "internalType": "uint256",
          "name": "tokenId",
          "type": "uint256"
        },
        {
          "indexed": false,
          "internalType": "string",
          "name": "key",
          "type": "string"
        },
        {
          "indexed": false,
          "internalType": "string",
          "name": "value",
          "type": "string"
        }
      ],
      "name": "MetadataUpdated",
      "type": "event"
    },
    {
      "anonymous": false,
      "inputs": [
        {
          "indexed": false,
          "internalType": "address",
          "name": "account",
          "type": "address"
        }
      ],
      "name": "Paused",
      "type": "event"
    },
    {
      "anonymous": false,
      "inputs": [
        {
          "indexed": true,
          "internalType": "uint256",
          "name": "tokenId",
          "type": "uint256"
        },
        {
          "indexed": false,
          "internalType": "address",
          "name": "recoveryAddress",
          "type": "address"
        }
      ],
      "name": "RecoveryAddressSet",
      "type": "event"
    },
    {
      "anonymous": false,
      "inputs": [
        {
          "indexed": true,
          "internalType": "bytes32",
          "name": "role",
          "type": "bytes32"
        },
        {
          "indexed": true,
          "internalType": "bytes32",
          "name": "previousAdminRole",
          "type": "bytes32"
        },
        {
          "indexed": true,
          "internalType": "bytes32",
          "name": "newAdminRole",
          "type": "bytes32"
        }
      ],
      "name": "RoleAdminChanged",
      "type": "event"
    },
    {
      "anonymous": false,
      "inputs": [
        {
          "indexed": true,
          "internalType": "bytes32",
          "name": "role",
          "type": "bytes32"
        },
        {
          "indexed": true,
          "internalType": "address",
          "name": "account",
          "type": "address"
        },
        {
          "indexed": true,
          "internalType": "address",
          "name": "sender",
          "type": "address"
        }
      ],
      "name": "RoleGranted",
      "type": "event"
    },
    {
      "anonymous": false,
      "inputs": [
        {
          "indexed": true,
          "internalType": "bytes32",
          "name": "role",
          "type": "bytes32"
        },
        {
          "indexed": true,
          "internalType": "address",
          "name": "account",
          "type": "address"
        },
        {
          "indexed": true,
          "internalType": "address",
          "name": "sender",
          "type": "address"
        }
      ],
      "name": "RoleRevoked",
      "type": "event"
    },
    {
      "anonymous": false,
      "inputs": [
        {
          "indexed": true,
          "internalType": "address",
          "name": "from",
          "type": "address"
        },
        {
          "indexed": true,
          "internalType": "address",
          "name": "to",
          "type": "address"
        },
        {
          "indexed": true,
          "internalType": "uint256",
          "name": "tokenId",
          "type": "uint256"
        }
      ],
      "name": "Transfer",
      "type": "event"
    },
    {
      "anonymous": false,
      "inputs": [
        {
          "indexed": false,
          "internalType": "address",
          "name": "account",
          "type": "address"
        }
      ],
      "name": "Unpaused",
      "type": "event"
    },
    {
      "anonymous": false,
      "inputs": [
        {
          "indexed": true,
          "internalType": "uint256",
          "name": "tokenId",
          "type": "uint256"
        },
        {
          "indexed": false,
          "internalType": "enum DigitalIdentityNFT.VerificationLevel",
          "name": "newLevel",
          "type": "uint8"
        }
      ],
      "name": "VerificationLevelUpgraded",
      "type": "event"
    },
    {
      "anonymous": false,
      "inputs": [
        {
          "indexed": true,
          "internalType": "uint256",
          "name": "tokenId",
          "type": "uint256"
        },
        {
          "indexed": true,
          "internalType": "address",
          "name": "verifier",
          "type": "address"
        }
      ],
      "name": "VerifierApproval",
      "type": "event"
    },
    {
      "inputs": [],
      "name": "DEFAULT_ADMIN_ROLE",
      "outputs": [
        {
          "internalType": "bytes32",
          "name": "",
          "type": "bytes32"
        }
      ],
      "stateMutability": "view",
      "type": "function"
    },
    {
      "inputs": [],
      "name": "RECOVERY_ROLE",
      "outputs": [
        {
          "internalType": "bytes32",
          "name": "",
          "type": "bytes32"
        }
      ],
      "stateMutability": "view",
      "type": "function"
    },
    {
      "inputs": [],
      "name": "VERIFIER_ROLE",
      "outputs": [
        {
          "internalType": "bytes32",
          "name": "",
          "type": "bytes32"
        }
      ],
      "stateMutability": "view",
      "type": "function"
    },
    {
      "inputs": [
        {
          "internalType": "address",
          "name": "",
          "type": "address"
        }
      ],
      "name": "addressToTokenId",
      "outputs": [
        {
          "internalType": "uint256",
          "name": "",
          "type": "uint256"
        }
      ],
      "stateMutability": "view",
      "type": "function"
    },
    {
      "inputs": [
        {
          "internalType": "address",
          "name": "to",
          "type": "address"
        },
        {
          "internalType": "uint256",
          "name": "tokenId",
          "type": "uint256"
        }
      ],
      "name": "approve",
      "outputs": [],
      "stateMutability": "nonpayable",
      "type": "function"
    },
    {
      "inputs": [
        {
          "internalType": "uint256",
          "name": "tokenId",
          "type": "uint256"
        },
        {
          "internalType": "enum DigitalIdentityNFT.VerificationLevel",
          "name": "newLevel",
          "type": "uint8"
        }
      ],
      "name": "approveVerification",
      "outputs": [],
      "stateMutability": "nonpayable",
      "type": "function"
    },
    {
      "inputs": [
        {
          "internalType": "address",
          "name": "owner",
          "type": "address"
        }
      ],
      "name": "balanceOf",
      "outputs": [
        {
          "internalType": "uint256",
          "name": "",
          "type": "uint256"
        }
      ],
      "stateMutability": "view",
      "type": "function"
    },
    {
      "inputs": [
        {
          "internalType": "address",
          "name": "user",
          "type": "address"
        },
        {
          "internalType": "string",
          "name": "did",
          "type": "string"
        },
        {
          "internalType": "string[]",
          "name": "metadataKeys",
          "type": "string[]"
        },
        {
          "internalType": "string[]",
          "name": "metadataValues",
          "type": "string[]"
        }
      ],
      "name": "createIdentity",
      "outputs": [
        {
          "internalType": "uint256",
          "name": "",
          "type": "uint256"
        }
      ],
      "stateMutability": "nonpayable",
      "type": "function"
    },
    {
      "inputs": [
        {
          "internalType": "uint256",
          "name": "tokenId",
          "type": "uint256"
        }
      ],
      "name": "getApproved",
      "outputs": [
        {
          "internalType": "address",
          "name": "",
          "type": "address"
        }
      ],
      "stateMutability": "view",
      "type": "function"
    },
    {
      "inputs": [],
      "name": "getCurrentTokenId",
      "outputs": [
        {
          "internalType": "uint256",
          "name": "",
          "type": "uint256"
        }
      ],
      "stateMutability": "view",
      "type": "function"
    },
    {
      "inputs": [
        {
          "internalType": "uint256",
          "name": "tokenId",
          "type": "uint256"
        }
      ],
      "name": "getFormattedIdentityDetails",
      "outputs": [
        {
          "internalType": "string",
          "name": "did",
          "type": "string"
        },
        {
          "internalType": "bool",
          "name": "isVerified",
          "type": "bool"
        },
        {
          "internalType": "string",
          "name": "creationDate",
          "type": "string"
        },
        {
          "internalType": "string",
          "name": "lastUpdate",
          "type": "string"
        },
        {
          "internalType": "string",
          "name": "verificationLevel",
          "type": "string"
        },
        {
          "internalType": "bool",
          "name": "isRecoverable",
          "type": "bool"
        },
        {
          "internalType": "address",
          "name": "recoveryAddress",
          "type": "address"
        },
        {
          "internalType": "string",
          "name": "lastVerificationDate",
          "type": "string"
        }
      ],
      "stateMutability": "view",
      "type": "function"
    },
    {
      "inputs": [
        {
          "internalType": "uint256",
          "name": "tokenId",
          "type": "uint256"
        }
      ],
      "name": "getIdentityDetails",
      "outputs": [
        {
          "internalType": "string",
          "name": "did",
          "type": "string"
        },
        {
          "internalType": "bool",
          "name": "isVerified",
          "type": "bool"
        },
        {
          "internalType": "uint256",
          "name": "creationDate",
          "type": "uint256"
        },
        {
          "internalType": "uint256",
          "name": "lastUpdate",
          "type": "uint256"
        },
        {
          "internalType": "enum DigitalIdentityNFT.VerificationLevel",
          "name": "level",
          "type": "uint8"
        },
        {
          "internalType": "bool",
          "name": "isRecoverable",
          "type": "bool"
        },
        {
          "internalType": "address",
          "name": "recoveryAddress",
          "type": "address"
        }
      ],
      "stateMutability": "view",
      "type": "function"
    },
    {
      "inputs": [
        {
          "internalType": "uint256",
          "name": "tokenId",
          "type": "uint256"
        },
        {
          "internalType": "string",
          "name": "key",
          "type": "string"
        }
      ],
      "name": "getMetadata",
      "outputs": [
        {
          "internalType": "string",
          "name": "",
          "type": "string"
        }
      ],
      "stateMutability": "view",
      "type": "function"
    },
    {
      "inputs": [
        {
          "internalType": "bytes32",
          "name": "role",
          "type": "bytes32"
        }
      ],
      "name": "getRoleAdmin",
      "outputs": [
        {
          "internalType": "bytes32",
          "name": "",
          "type": "bytes32"
        }
      ],
      "stateMutability": "view",
      "type": "function"
    },
    {
      "inputs": [
        {
          "internalType": "bytes32",
          "name": "role",
          "type": "bytes32"
        },
        {
          "internalType": "address",
          "name": "account",
          "type": "address"
        }
      ],
      "name": "grantRole",
      "outputs": [],
      "stateMutability": "nonpayable",
      "type": "function"
    },
    {
      "inputs": [
        {
          "internalType": "address",
          "name": "",
          "type": "address"
        }
      ],
      "name": "hasIdentity",
      "outputs": [
        {
          "internalType": "bool",
          "name": "",
          "type": "bool"
        }
      ],
      "stateMutability": "view",
      "type": "function"
    },
    {
      "inputs": [
        {
          "internalType": "bytes32",
          "name": "role",
          "type": "bytes32"
        },
        {
          "internalType": "address",
          "name": "account",
          "type": "address"
        }
      ],
      "name": "hasRole",
      "outputs": [
        {
          "internalType": "bool",
          "name": "",
          "type": "bool"
        }
      ],
      "stateMutability": "view",
      "type": "function"
    },
    {
      "inputs": [
        {
          "internalType": "uint256",
          "name": "",
          "type": "uint256"
        }
      ],
      "name": "identities",
      "outputs": [
        {
          "internalType": "string",
          "name": "did",
          "type": "string"
        },
        {
          "internalType": "bool",
          "name": "isVerified",
          "type": "bool"
        },
        {
          "internalType": "uint256",
          "name": "creationDate",
          "type": "uint256"
        },
        {
          "internalType": "uint256",
          "name": "lastUpdate",
          "type": "uint256"
        },
        {
          "internalType": "enum DigitalIdentityNFT.VerificationLevel",
          "name": "verificationLevel",
          "type": "uint8"
        },
        {
          "internalType": "bool",
          "name": "isRecoverable",
          "type": "bool"
        },
        {
          "internalType": "address",
          "name": "recoveryAddress",
          "type": "address"
        },
        {
          "internalType": "uint256",
          "name": "lastVerificationDate",
          "type": "uint256"
        }
      ],
      "stateMutability": "view",
      "type": "function"
    },
    {
      "inputs": [
        {
          "internalType": "address",
          "name": "owner",
          "type": "address"
        },
        {
          "internalType": "address",
          "name": "operator",
          "type": "address"
        }
      ],
      "name": "isApprovedForAll",
      "outputs": [
        {
          "internalType": "bool",
          "name": "",
          "type": "bool"
        }
      ],
      "stateMutability": "view",
      "type": "function"
    },
    {
      "inputs": [],
      "name": "name",
      "outputs": [
        {
          "internalType": "string",
          "name": "",
          "type": "string"
        }
      ],
      "stateMutability": "view",
      "type": "function"
    },
    {
      "inputs": [
        {
          "internalType": "uint256",
          "name": "tokenId",
          "type": "uint256"
        }
      ],
      "name": "ownerOf",
      "outputs": [
        {
          "internalType": "address",
          "name": "",
          "type": "address"
        }
      ],
      "stateMutability": "view",
      "type": "function"
    },
    {
      "inputs": [],
      "name": "pause",
      "outputs": [],
      "stateMutability": "nonpayable",
      "type": "function"
    },
    {
      "inputs": [],
      "name": "paused",
      "outputs": [
        {
          "internalType": "bool",
          "name": "",
          "type": "bool"
        }
      ],
      "stateMutability": "view",
      "type": "function"
    },
    {
      "inputs": [
        {
          "internalType": "string",
          "name": "",
          "type": "string"
        }
      ],
      "name": "registeredDIDs",
      "outputs": [
        {
          "internalType": "bool",
          "name": "",
          "type": "bool"
        }
      ],
      "stateMutability": "view",
      "type": "function"
    },
    {
      "inputs": [
        {
          "internalType": "bytes32",
          "name": "role",
          "type": "bytes32"
        },
        {
          "internalType": "address",
          "name": "account",
          "type": "address"
        }
      ],
      "name": "renounceRole",
      "outputs": [],
      "stateMutability": "nonpayable",
      "type": "function"
    },
    {
      "inputs": [
        {
          "internalType": "bytes32",
          "name": "role",
          "type": "bytes32"
        },
        {
          "internalType": "address",
          "name": "account",
          "type": "address"
        }
      ],
      "name": "revokeRole",
      "outputs": [],
      "stateMutability": "nonpayable",
      "type": "function"
    },
    {
      "inputs": [
        {
          "internalType": "address",
          "name": "from",
          "type": "address"
        },
        {
          "internalType": "address",
          "name": "to",
          "type": "address"
        },
        {
          "internalType": "uint256",
          "name": "tokenId",
          "type": "uint256"
        }
      ],
      "name": "safeTransferFrom",
      "outputs": [],
      "stateMutability": "nonpayable",
      "type": "function"
    },
    {
      "inputs": [
        {
          "internalType": "address",
          "name": "from",
          "type": "address"
        },
        {
          "internalType": "address",
          "name": "to",
          "type": "address"
        },
        {
          "internalType": "uint256",
          "name": "tokenId",
          "type": "uint256"
        },
        {
          "internalType": "bytes",
          "name": "data",
          "type": "bytes"
        }
      ],
      "name": "safeTransferFrom",
      "outputs": [],
      "stateMutability": "nonpayable",
      "type": "function"
    },
    {
      "inputs": [
        {
          "internalType": "address",
          "name": "operator",
          "type": "address"
        },
        {
          "internalType": "bool",
          "name": "approved",
          "type": "bool"
        }
      ],
      "name": "setApprovalForAll",
      "outputs": [],
      "stateMutability": "nonpayable",
      "type": "function"
    },
    {
      "inputs": [
        {
          "internalType": "uint256",
          "name": "tokenId",
          "type": "uint256"
        },
        {
          "internalType": "address",
          "name": "recoveryAddress",
          "type": "address"
        }
      ],
      "name": "setRecoveryAddress",
      "outputs": [],
      "stateMutability": "nonpayable",
      "type": "function"
    },
    {
      "inputs": [
        {
          "internalType": "bytes4",
          "name": "interfaceId",
          "type": "bytes4"
        }
      ],
      "name": "supportsInterface",
      "outputs": [
        {
          "internalType": "bool",
          "name": "",
          "type": "bool"
        }
      ],
      "stateMutability": "view",
      "type": "function"
    },
    {
      "inputs": [],
      "name": "symbol",
      "outputs": [
        {
          "internalType": "string",
          "name": "",
          "type": "string"
        }
      ],
      "stateMutability": "view",
      "type": "function"
    },
    {
      "inputs": [
        {
          "internalType": "uint256",
          "name": "tokenId",
          "type": "uint256"
        }
      ],
      "name": "tokenURI",
      "outputs": [
        {
          "internalType": "string",
          "name": "",
          "type": "string"
        }
      ],
      "stateMutability": "view",
      "type": "function"
    },
    {
      "inputs": [
        {
          "internalType": "address",
          "name": "from",
          "type": "address"
        },
        {
          "internalType": "address",
          "name": "to",
          "type": "address"
        },
        {
          "internalType": "uint256",
          "name": "tokenId",
          "type": "uint256"
        }
      ],
      "name": "transferFrom",
      "outputs": [],
      "stateMutability": "nonpayable",
      "type": "function"
    },
    {
      "inputs": [
        {
          "internalType": "address",
          "name": "from",
          "type": "address"
        },
        {
          "internalType": "address",
          "name": "to",
          "type": "address"
        }
      ],
      "name": "transferIdentity",
      "outputs": [],
      "stateMutability": "nonpayable",
      "type": "function"
    },
    {
      "inputs": [],
      "name": "unpause",
      "outputs": [],
      "stateMutability": "nonpayable",
      "type": "function"
    },
    {
      "inputs": [
        {
          "internalType": "uint256",
          "name": "",
          "type": "uint256"
        }
      ],
      "name": "verificationCount",
      "outputs": [
        {
          "internalType": "uint256",
          "name": "",
          "type": "uint256"
        }
      ],
      "stateMutability": "view",
      "type": "function"
    },
    {
      "inputs": [
        {
          "internalType": "uint256",
          "name": "",
          "type": "uint256"
        },
        {
          "internalType": "address",
          "name": "",
          "type": "address"
        }
      ],
      "name": "verifierApprovals",
      "outputs": [
        {
          "internalType": "bool",
          "name": "",
          "type": "bool"
        }
      ],
      "stateMutability": "view",
      "type": "function"
    }
  ],
  "bytecode": "0x608034620004de576001600160401b039060409080820183811182821017620004c8578252601081526020906f4469676974616c204964656e7469747960801b8282015282519383850185811082821117620004c8578452600385526211125160ea1b838601528151818111620004c8576000958654916001948584811c94168015620004bd575b87851014620004a9578190601f9485811162000456575b508790858311600114620003f2578a92620003e6575b5050600019600383901b1c191690851b1787555b8051928311620003d25783548481811c91168015620003c7575b86821014620003b357908183859493116200035e575b5085918311600114620002fa578792620002ee575b5050600019600383901b1c191690821b1781555b60ff19938460075416600755808052600690818452848120338252845260ff858220541615620002b9575b7f0ce23c3e399818cfee81a7ab0880f714e53d7672b08df0fa62f2843416e1ea09808252828552858220338352855260ff86832054161562000282575b507f0acf805600123ef007091da3b3ffb39474074c656c127aa68cb0ffec232a8ff891828252808552858220338352855260ff8683205416156200024b575b5050506007549360ff851662000214577f62e78cea01bee320cd4e420270b5ea74000d11b0c9f74754ebdbfc544b05a258939416176007558251338152a1516147979081620004e48239f35b835162461bcd60e51b815260048101849052601060248201526f14185d5cd8589b194e881c185d5cd95960821b6044820152606490fd5b828252845284812033825284528481208387825416179055339160008051602062004c7b833981519152339280a4388080620001c8565b808252828552858220338352855285822084888254161790553390339060008051602062004c7b8339815191528480a43862000189565b8080528184528481203382528452848120838782541617905533338260008051602062004c7b8339815191528180a46200014c565b0151905038806200010d565b8488528588208594509190601f198416895b888282106200034757505084116200032d575b505050811b01815562000121565b015160001960f88460031b161c191690553880806200031f565b83850151865588979095019493840193016200030c565b909192508488528588208380860160051c820192888710620003a9575b91869588929594930160051c01915b8281106200039a575050620000f8565b8a81558695508791016200038a565b925081926200037b565b634e487b7160e01b88526022600452602488fd5b90607f1690620000e2565b634e487b7160e01b87526041600452602487fd5b015190503880620000b4565b8a8052888b208894509190601f1984168c5b8b8282106200043f575050841162000425575b505050811b018755620000c8565b015160001960f88460031b161c1916905538808062000417565b8385015186558b9790950194938401930162000404565b909150898052878a208580850160051c8201928a86106200049f575b918991869594930160051c01915b828110620004905750506200009e565b8c815585945089910162000480565b9250819262000472565b634e487b7160e01b89526022600452602489fd5b93607f169362000087565b634e487b7160e01b600052604160045260246000fd5b600080fdfe608080604052600436101561001357600080fd5b60003560e01c90816301ffc9a714612fcb5750806306a63d1e14612f6a57806306b6ec8414612b6b57806306fdde0314612ac8578063081812fc14612aaa578063095ea7b314612a78578063237f1a2114612a3957806323b872dd14612a15578063248a9ca3146129e65780632f2ff15d14612933578063317931841461286e57806331993a1c1461283357806336568abe146127a1578063390eafbc1461264d5780633f4ba83a146125b957806342842e0e1461258657806356189236146125685780635c975abb146125455780636352211e146125155780636511bf2e146124db5780636f2ed084146124af57806370a08231146124185780638456cb59146123be57806391d14854146123715780639298312a14611cd557806395d89b4114611c0a578063a217fddf14611bee578063a22cb46514611bb1578063ae9af33e14611a2c578063b88d4fde146119a7578063c87b56dd146106ab578063cb4799f214610615578063d547741f146105d4578063db44d1c514610587578063e7705db61461054c578063e96bc10d146102ca578063e985e9c5146102745763eaaf77e6146101c157600080fd5b3461026f57602036600319011261026f57600435600052600a60205261022e60406000206101ee816132e1565b9060ff6001820154169060028101549061024a600382015460ff600484015416906007600685015494015494604051988998610100808b528a01906131a7565b9615156020890152604088015260608701526080860190613201565b60ff8116151560a085015260081c6001600160a01b031660c084015260e08301520390f35b600080fd5b3461026f57604036600319011261026f5761028d61317b565b610295613191565b9060018060a01b03809116600052600560205260406000209116600052602052602060ff604060002054166040519015158152f35b3461026f57604036600319011261026f5760043560248035600481101561026f576102f3613554565b6102fb613eea565b60008381526002602052604090205461031e906001600160a01b03161515613f7a565b82600052602090600a825260ff600460406000200154166004811015610537578111156104e85783600052600d8252604060002033600052825260ff604060002054166104a55790839182600052600d82526040600020336000528252604060002060ff199060018282541617905583600052600e835260406000206103a48154613ec7565b90556002821015610434575b837f83911d43b4609d7ddd1fea9aef33be7c8f98bb188d853a613df76cd28d642a79949550600052600a8352604060002090600482019081541660ff841617905542600782015560034291015561040a6040518092613201565ba233907f67a62b343c6934ac43a410503624fb493ea15e343c4856037bc1710e19e05206600080a3005b91939092600052600e84526002604060002054106104565750839183916103b0565b836084916040519162461bcd60e51b83526004830152808201527f5265717569726573206d756c7469706c6520766572696669657220617070726f60448201526376616c7360e01b6064820152fd5b5060196064926040519262461bcd60e51b845260048401528201527f566572696669657220616c726561647920617070726f766564000000000000006044820152fd5b5060236084926040519262461bcd60e51b845260048401528201527f43616e206f6e6c79207570677261646520766572696669636174696f6e206c656044820152621d995b60ea1b6064820152fd5b83634e487b7160e01b60005260216004526000fd5b3461026f57600036600319011261026f5760206040517f0ce23c3e399818cfee81a7ab0880f714e53d7672b08df0fa62f2843416e1ea098152f35b3461026f57604036600319011261026f576105a0613191565b600435600052600d60205260406000209060018060a01b0316600052602052602060ff604060002054166040519015158152f35b3461026f57604036600319011261026f576106136004356105f3613191565b9080600052600660205261060e600160406000200154613699565b6137a4565b005b3461026f57604036600319011261026f576024356004356001600160401b03821161026f5761068e610693916106526106a7943690600401613114565b600082815260026020526040902054909190610678906001600160a01b03161515613f7a565b600052600a602052600560406000200190613155565b6132e1565b6040519182916020835260208301906131a7565b0390f35b3461026f5760208060031936011261026f576004356000818152600260205260409020546001600160a01b0316156119625780600052600a825260406000206106f38261435f565b6000838152600260205260409020549091906001600160a01b031615611926576000838152600a85526040902061073a6001600160a01b0361073486613866565b16613bf8565b90856040519261074984613050565b600693848152828101918336843760005b8681106118f1575060405161076e81613050565b60048152848101918536843760265b602a8110611893575050602385936107c5936107d4936040519586936107ab8986019a8b9251928391613132565b8401916217171760e91b8984015251809386840190613132565b010360038101845201826130a1565b610f1a608d6107e28b61435f565b92604051958691610f05610e688885019b7f3c73766720786d6c6e733d22687474703a2f2f7777772e77332e6f72672f32308d527f30302f737667222077696474683d2233353022206865696768743d223335302260408701527f2076696577426f783d223020302033353020333530223e0000000000000000006060870152651e3232b3399f60d11b60778701527f3c6c696e6561724772616469656e742069643d2262674772616469656e742220607d8701527f78313d223025222079313d223025222078323d2231303025222079323d223130609d870152631812911f60e11b60bd8701527f3c73746f70206f66667365743d223025222073746f702d636f6c6f723d22236660c1870152681c331cb3309110179f60b91b60e18701527f3c73746f70206f66667365743d2231303025222073746f702d636f6c6f723d228060ea8801526a11b29cb2b1b2b31110179f60a91b61010a880152701e17b634b732b0b923b930b234b2b73a1f60791b9081610115890152661e17b232b3399f60c91b6101268901527f3c726563742077696474683d223130302522206865696768743d22313030252261012d8901527f2066696c6c3d2275726c282362674772616469656e742922202f3e000000000061014d8901527f3c7265637420783d2232302220793d223230222077696474683d2233313022206101688901527f6865696768743d22333130222072783d223230222066696c6c3d2277686974656101888901527f22207374726f6b653d222365306530653022207374726f6b652d77696474683d6101a88901527f2232222066696c7465723d2264726f702d736861646f772830707820347078206101c88901527f367078207267626128302c20302c20302c20302e31292922202f3e00000000006101e88901527f3c6c696e6561724772616469656e742069643d226865616465724772616469656102038901527f6e74222078313d223025222079313d223025222078323d223130302522207932610223890152651e911812911f60d11b6102438901527f3c73746f70206f66667365743d223025222073746f702d636f6c6f723d22233461024989015268199b18b2b29110179f60b91b6102698901526102728801526a1199b09831b0999110179f60a91b61029288015261029d8701527f3c7265637420783d2233352220793d223335222077696474683d2232383022206102ae8701527f6865696768743d223530222072783d223130222066696c6c3d2275726c2823686102ce8701527132b0b232b923b930b234b2b73a149110179f60711b6102ee8701527f3c7465787420783d223137352220793d2236352220666f6e742d66616d696c796103008701527f3d22417269616c2c2073616e732d73657269662220666f6e742d7765696768746103208701527f3d22626f6c642220666f6e742d73697a653d223230222066696c6c3d227768696103408701527f74652220746578742d616e63686f723d226d6964646c652220646f6d696e616e6103608701527f742d626173656c696e653d226d6964646c65223e4449474954414c204944454e6103808701526a2a24aa2c9e17ba32bc3a1f60a91b6103a08701527f3c7465787420783d223137352220793d223130352220666f6e742d66616d696c6103ab87015261050e7f793d22417269616c2c2073616e732d73657269662220666f6e742d73697a653d998a6103cb8901527f223134222066696c6c3d22233333333333332220746578742d616e63686f723d6103eb8901526c01136b4b2323632911f24a21d1609d1b61040b890152610d1e815180926104189e8f8c019101613132565b8701661e17ba32bc3a1f60c91b809c8201527f3c666f726569676e4f626a65637420783d2234352220793d223131352220776961041f82015275323a341e91191b1811103432b4b3b43a1e911998111f60511b61043f8201527f3c64697620786d6c6e733d22687474703a2f2f7777772e77332e6f72672f31396104558201527f39392f7868746d6c22207374796c653d22666f6e742d66616d696c793a2041726104758201527f69616c2c2073616e732d73657269663b20666f6e742d73697a653a20313270786104958201527f3b20636f6c6f723a20233636363636363b20746578742d616c69676e3a2063656104b58201527f6e7465723b206f766572666c6f772d777261703a20627265616b2d776f72643b6104d58201527f20776f72642d627265616b3a20627265616b2d616c6c3b223e000000000000006104f582015201906144a2565b91651e17b234bb1f60d11b83526f1e17b337b932b4b3b727b13532b1ba1f60811b8d8401527f3c7465787420783d223137352220793d223135352220666f6e742d66616d696c60168401528760368401527f223132222066696c6c3d22233636363636362220746578742d616e63686f723d60568401526f01136b4b2323632911f27bbb732b91d160851b60768401525180936086840190613132565b0185608682015203606d8101865201846130a1565b88600052600a8452604060002060ff600482015416610f41610f3b82613fc6565b91614689565b938b600052600e875286610f5960406000205461435f565b9260ff8b610f6a60028801546140d2565b960154161561186657604051610f7f81613050565b601081526f149958dbdd995c9e48115b98589b195960821b83820152955b836040519788978286808b019c7f3c7265637420783d2237352220793d22313730222077696474683d22323030228e5260408c017f206865696768743d223430222072783d223230222066696c6c3d22000000000090528b815192605b84920192019161100992613132565b7f222066696c7465723d2264726f702d736861646f772830707820327078203370605b918c01918201527f78207267626128302c20302c20302c20302e31292922202f3e00000000000000607b8201527f3c7465787420783d223137352220793d223139352220666f6e742d66616d696c60948201527f793d22417269616c2c2073616e732d73657269662220666f6e742d776569676860b48201527f743d22626f6c642220666f6e742d73697a653d223136222066696c6c3d22776860d48201527f6974652220746578742d616e63686f723d226d6964646c652220646f6d696e6160f482015274373a16b130b9b2b634b7329e9136b4b2323632911f60591b61011482015286516101299790919061112a9083908a8401908c01613132565b019586015261013085017f3c7265637420783d2237352220793d22323230222077696474683d223230302290527f206865696768743d223235222072783d2235222066696c6c3d22236638663966806101508701527f6122207374726f6b653d222365306530653022207374726f6b652d776964746880610170880152661e91189110179f60c91b918261019089015261019788017f3c7465787420783d223137352220793d223233372220666f6e742d66616d696c9052866101b7890152857f223132222066696c6c3d22233333333333332220746578742d616e63686f723d98896101d78201527101136b4b2323632911f21b932b0ba32b21d160751b6101f782015285519061020996828d89840192019161124792613132565b01948501527f3c7265637420783d2237352220793d22323535222077696474683d22323030226102108501526102308401526102508301526102708201527f3c7465787420783d223137352220793d223237322220666f6e742d66616d696c61027782015261029781018490526102b78101859052681136b4b2323632911f60b91b6102d782015281516102e09690926112e79184918985019101613132565b01938401527f3c7265637420783d2233352220793d22323930222077696474683d22323830226102e78401527f206865696768743d223330222072783d223135222066696c6c3d2223663066306103078401527f6630222066696c7465723d2264726f702d736861646f772830707820317078206103278401527f327078207267626128302c20302c20302c20302e3035292922202f3e000000006103478401527f3c7465787420783d223137352220793d223331302220666f6e742d66616d696c6103638401526103838301526103a38201527301136b4b2323632911f2b32b934b334b2b9399d160651b6103c382015282516103d7939091906113f3908390868401908c01613132565b01918201526103de8101651e17b9bb339f60d11b9052036103c4810182526103e40161141f90826130a1565b60405194859351908186860161143492613132565b83019051918285830161144692613132565b01038083520161145690826130a1565b61145f90614525565b93600483015460ff1661147190613fc6565b9160028401546114809061435f565b600385015461148e9061435f565b9185015460ff1615611846576040516114a681613050565b600381526259657360e81b89820152925b600052600e88526040600020546114cd9061435f565b946040519788978a89017f7b226e616d65223a20224469676974616c204964656e746974792023000000009052805190818c603c8c0192019161150f92613132565b7f222c20226465736372697074696f6e223a2022426c6f636b636861696e2d6261603c918a01918201527f736564204469676974616c204964656e74697479204e4654222c2022696d6167605c8201527f65223a2022646174613a696d6167652f7376672b786d6c3b6261736536342c00607c82015281519161159a908390609b8401908e01613132565b0171222c202261747472696275746573223a205b60701b609b82015260ad81017f7b2274726169745f74797065223a2022444944222c202276616c7565223a2022905260cd016115e9916144a2565b630113e96160e51b8082527f7b2274726169745f74797065223a2022566572696669636174696f6e204c657660048301526e32b6111610113b30b63ab2911d101160891b60248301528551909590919061164b90839060338401908d01613132565b01846033820152603781017f7b2274726169745f74797065223a20224372656174696f6e2044617465222c209052680113b30b63ab2911d160bd1b6057820152815191828a606084019201916116a092613132565b01906203e96160ed1b91826060820152606381017f7b2274726169745f74797065223a20224c61737420557064617465222c202276905266030b63ab2911d160cd1b6083820152815191828a608a84019201916116fc92613132565b0190608a820152608d81017f7b2274726169745f74797065223a20225265636f76657261626c65222c20227690526730b63ab2911d101160c11b60ad820152815191828860b5840192019161175092613132565b019060b582015260b981017f7b2274726169745f74797065223a2022566572696669657220436f756e74222c905269010113b30b63ab2911d160b51b60d9820152815191828660e384019201916117a692613132565b0160e38101607d60f81b905260e48101615d7d60f01b90520360c68101825260e6016117d290826130a1565b6117db90614525565b9060405180928282017f646174613a6170706c69636174696f6e2f6a736f6e3b6261736536342c00000090528051908184603d850192019161181c92613132565b810103601d81018352603d0161183290836130a1565b60405191818392835282016106a7916131a7565b60405161185281613050565b60028152614e6f60f01b89820152926114b7565b60405161187281613050565b600f81526e139bc8149958dbdd995c9e4814d95d608a1b8382015295610f9d565b9091929394955060ff60f81b6118a98284613be7565b51169060251981018181116118db576118c96118cf9360001a9186613be7565b53613ec7565b908b959493929161077d565b634e487b7160e01b600052601160045260246000fd5b929350909161191c906001600160f81b031961190d8285613be7565b511660001a6118c98286613be7565b908993929161075a565b60405162461bcd60e51b8152600481018590526014602482015273151bdad95b88191bd95cc81b9bdd08195e1a5cdd60621b6044820152606490fd5b60405162461bcd60e51b815260048101839052601f60248201527f55524920717565727920666f72206e6f6e6578697374656e7420746f6b656e006044820152606490fd5b3461026f57608036600319011261026f576119c061317b565b6119c8613191565b90606435906044356001600160401b03831161026f573660238401121561026f5761061393611a04611a279436906024816004013591016130dd565b92611a17611a12843361399c565b6138c7565b611a22838383613d06565b613b2a565b61397c565b3461026f57604036600319011261026f57600435611a48613191565b611a50613eea565b6001600160a01b0380611a6284613866565b163303611b7a578116908115611b355782600052600a60205260ff60066040600020015416611af9577f1c159cfd96672eca794ae8139b8b5d0d2c4363aaeddd3fa7df0a626daff3a38e9160209184600052600a8352604060002090600160068301918254906101008360a81b039060081b16906affffffffffffffffffffff60a81b1617179055600342910155604051908152a2005b60405162461bcd60e51b8152602060048201526014602482015273149958dbdd995c9e48185b1c9958591e481cd95d60621b6044820152606490fd5b60405162461bcd60e51b815260206004820152601860248201527f496e76616c6964207265636f76657279206164647265737300000000000000006044820152606490fd5b60405162461bcd60e51b815260206004820152600f60248201526e2737ba103a37b5b2b71037bbb732b960891b6044820152606490fd5b3461026f57604036600319011261026f57611bca61317b565b506024358015150361026f576040516212242560e91b815260006004820152602490fd5b3461026f57600036600319011261026f57602060405160008152f35b3461026f57600036600319011261026f5760405160006001805490611c2e826132a7565b80855291818116908115611cae5750600114611c55575b6106a784610693818603826130a1565b600081815292507fb10e2d527612073b26eecdfd717e6a320cf44b4afac2b0732d9fcbe2b7fa0cf65b828410611c9657505050810160200161069382611c45565b80546020858701810191909152909301928101611c7e565b60ff191660208087019190915292151560051b850190920192506106939150839050611c45565b3461026f57608036600319011261026f57611cee61317b565b6024356001600160401b03811161026f57611d0d903690600401613114565b906044356001600160401b03811161026f57611d2d903690600401613224565b6064356001600160401b03811161026f57611d4c903690600401613224565b90611d55613554565b611d5d613eea565b6001600160a01b0383166000908152600b602052604090205460ff1661232c5760ff6040516020818751611d948183858c01613132565b8101600c81520301902054166122ee578351156122b357805182510361227a5760016008540180600855604051611dca8161306b565b600081526001600160a01b0385161561223657600082815260026020526040902054611e9791611a2791611e0a906001600160a01b031615155b15613f2e565b600084815260026020526040902054611e2d906001600160a01b03161515611e04565b6001600160a01b0387166000818152600360209081526040808320805460010190558783526002909152812080546001600160a01b031916831790558591907fddf252ad1be2c89b69c2b068fc378daa952ba7f163c4a11628f55a4df523b3ef8180a48387613a0a565b80600052600a60205260406000209480516001600160401b03811161208c57611ec087546132a7565b601f81116121f2575b50806020601f821160011461218b57600091612180575b508160011b916000199060031b1c19161786555b60ff1960018701541660018701554260028701554260038701556004860160ff1981541690556006860160ff1981541690556000600787015560005b83518110156120dc57611f438185613ed6565b5151156120a257611f548186613ed6565b51611f6c60058901611f668488613ed6565b51613155565b908051906001600160401b03821161208c57611f8883546132a7565b601f8111612048575b50602090601f8311600114611fd957611fc99493929160009183611fce575b50508160011b916000199060031b1c1916179055613ec7565b611f30565b015190508b80611fb0565b908360005260206000209160005b601f19851681106120305750918391600193611fc9979695601f19811610612017575b505050811b019055613ec7565b015160001960f88460031b161c191690558b808061200a565b91926020600181928685015181550194019201611fe7565b836000526020600020601f840160051c810160208510612085575b601f830160051c82018110612079575050611f91565b60008155600101612063565b5080612063565b634e487b7160e01b600052604160045260246000fd5b60405162461bcd60e51b8152602060048201526012602482015271456d707479206d65746164617461206b657960701b6044820152606490fd5b60208383817f6287fd2c231a0416a5582f9950b602c0e5d29bc108ee85fb5133b680f6c636b76121758b60018060a01b038116600052600b87526040600020600160ff198254161790556009875283604060002055604051878187516121458183858c01613132565b8101600c815203019020600160ff1982541617905560405191829188835260018060a01b031695888301906131a7565b0390a3604051908152f35b905082015188611ee0565b91508760005260206000206000925b601f19831684106121da576001935082601f198116106121c1575b5050811b018655611ef4565b84015160001960f88460031b161c1916905588806121b5565b8481015182556020938401936001909201910161219a565b876000526020600020601f830160051c81016020841061222f575b601f830160051c82018110612223575050611ec9565b6000815560010161220d565b508061220d565b606460405162461bcd60e51b815260206004820152602060248201527f4552433732313a206d696e7420746f20746865207a65726f20616464726573736044820152fd5b60405162461bcd60e51b815260206004820152601160248201527009acae8c2c8c2e8c240dad2e6dac2e8c6d607b1b6044820152606490fd5b60405162461bcd60e51b81526020600482015260136024820152724449442063616e6e6f7420626520656d70747960681b6044820152606490fd5b60405162461bcd60e51b815260206004820152601660248201527511125108185b1c9958591e481c9959da5cdd195c995960521b6044820152606490fd5b60405162461bcd60e51b815260206004820152601c60248201527f5573657220616c72656164792068617320616e206964656e74697479000000006044820152606490fd5b3461026f57604036600319011261026f5761238a613191565b600435600052600660205260406000209060018060a01b0316600052602052602060ff604060002054166040519015158152f35b3461026f57600036600319011261026f576123d7613387565b6123df613eea565b600160ff1960075416176007557f62e78cea01bee320cd4e420270b5ea74000d11b0c9f74754ebdbfc544b05a2586020604051338152a1005b3461026f57602036600319011261026f576001600160a01b0361243961317b565b1680156124585760005260036020526020604060002054604051908152f35b60405162461bcd60e51b815260206004820152602960248201527f4552433732313a2061646472657373207a65726f206973206e6f7420612076616044820152683634b21037bbb732b960b91b6064820152608490fd5b3461026f57602036600319011261026f57600435600052600e6020526020604060002054604051908152f35b3461026f57602036600319011261026f576001600160a01b036124fc61317b565b1660005260096020526020604060002054604051908152f35b3461026f57602036600319011261026f576020612533600435613866565b6040516001600160a01b039091168152f35b3461026f57600036600319011261026f57602060ff600754166040519015158152f35b3461026f57600036600319011261026f576020600854604051908152f35b3461026f57610613611a2761259a366131cc565b90604051926125a88461306b565b60008452611a17611a12843361399c565b3461026f57600036600319011261026f576125d2613387565b60075460ff8116156126115760ff19166007557f5db9ee0a495bf2e6ff9c91a7834c1ba4fdd244a5e8aa4e537bd38aeae4b073aa6020604051338152a1005b60405162461bcd60e51b815260206004820152601460248201527314185d5cd8589b194e881b9bdd081c185d5cd95960621b6044820152606490fd5b3461026f57602036600319011261026f57600435600081815260026020526040902054612684906001600160a01b03161515613f7a565b600052600a60205261271160406000206106a760ff6001830154166126ac60028401546140d2565b926127426126bd60038301546140d2565b6127346126d060ff600486015416613fc6565b91612726600686015496600787015480151560001461276e576126f56126fb916140d2565b976132e1565b996040519b8c9b8c6101008091528d01906131a7565b91151560208c01528a820360408c01526131a7565b9088820360608a01526131a7565b9086820360808801526131a7565b60ff8316151560a086015260089290921c6001600160a01b031660c085015283820360e08501526131a7565b506126fb60405161277e81613050565b601081526f139bdd081d995c9a599a5959081e595d60821b6020820152976132e1565b3461026f57604036600319011261026f576127ba613191565b336001600160a01b038216036127d657610613906004356137a4565b60405162461bcd60e51b815260206004820152602f60248201527f416363657373436f6e74726f6c3a2063616e206f6e6c792072656e6f756e636560448201526e103937b632b9903337b91039b2b63360891b6064820152608490fd5b3461026f57600036600319011261026f5760206040517f0acf805600123ef007091da3b3ffb39474074c656c127aa68cb0ffec232a8ff88152f35b3461026f57602036600319011261026f576004356000818152600260205260409020546128a5906001600160a01b03161515613f7a565b600052600a6020526128f7604060002060ff600182015416600282015491612913600382015460ff600484015416906128e26006850154946132e1565b9560405197889760e0895260e08901906131a7565b9515156020880152604087015260608601526080850190613201565b60ff8116151560a084015260081c6001600160a01b031660c08301520390f35b3461026f57604036600319011261026f5760043561294f613191565b816000526006602052612969600160406000200154613699565b81600052600660205260406000209060018060a01b0316908160005260205260ff604060002054161561299857005b8160005260066020526040600020816000526020526040600020600160ff1982541617905533917f2f8788117e7eff1d82e926ec794901d17c78024a50270940304540a733656f0d600080a4005b3461026f57602036600319011261026f5760043560005260066020526020600160406000200154604051908152f35b3461026f57610613612a26366131cc565b91612a34611a12843361399c565b613d06565b3461026f57602036600319011261026f576001600160a01b03612a5a61317b565b16600052600b602052602060ff604060002054166040519015158152f35b3461026f57604036600319011261026f57612a9161317b565b506040516212242560e91b815260248035600483015290fd5b3461026f57602036600319011261026f576020612533600435613889565b3461026f57600036600319011261026f5760405160008054612ae9816132a7565b80845290600190818116908115611cae5750600114612b12576106a784610693818603826130a1565b600080805292507f290decd9548b62a8d60345a988386fc84ba6bc95484008f6362f93160ef3e5635b828410612b5357505050810160200161069382611c45565b80546020858701810191909152909301928101612b3b565b3461026f57604036600319011261026f57612b8461317b565b612b8c613191565b3360009081527f94d92cec0fd76884610690d80e33d2fd23f78997b4836bf3179e3b236b4b9d0b60209081526040909120547f0acf805600123ef007091da3b3ffb39474074c656c127aa68cb0ffec232a8ff89060ff1615612dda5750612bf1613eea565b6001600160a01b038381166000818152600b845260409020549092919060ff1615612d955783169283600052600b825260ff60406000205416612d44576000838152600983526040808220548083526002602052912054909590612c5f906001600160a01b03161515613f7a565b85600052600a835260ff6006604060002001541615612cff57857f7984e3674dbd5e0e4e3a3d6487f3c513927288d94c848113bf35a5588bcba4849392612ce49286600052600b8552604060002060ff199081815416905588600052600160406000209182541617905560098552826040600020558660005260006040812055613d06565b84600052600a815242600360406000200155604051428152a4005b60405162461bcd60e51b815260048101849052601860248201527f4964656e74697479206e6f74207265636f76657261626c6500000000000000006044820152606490fd5b60405162461bcd60e51b815260048101839052602360248201527f546172676574206164647265737320616c726561647920686173206964656e7460448201526269747960e81b6064820152608490fd5b60405162461bcd60e51b815260048101839052601e60248201527f536f75726365206164647265737320686173206e6f206964656e7469747900006044820152606490fd5b90612de433613bf8565b91604051612df181613086565b60428152828101916060368437815115612f5457603083538151600190811015612f5457607860218401536041905b808211612f10575050612ecd57612e9993612ea89260489260405196879376020b1b1b2b9b9a1b7b73a3937b61d1030b1b1b7bab73a1604d1b88860152612e70815180928a603789019101613132565b8401917001034b99036b4b9b9b4b733903937b6329607d1b603784015251809386840190613132565b010360288101855201836130a1565b612ec960405192839262461bcd60e51b8452600484015260248301906131a7565b0390fd5b6064836040519062461bcd60e51b825280600483015260248201527f537472696e67733a20686578206c656e67746820696e73756666696369656e746044820152fd5b9091600f81166010811015612f54576f181899199a1a9b1b9c1cb0b131b232b360811b901a612f3f8486613be7565b5360041c9180156118db576000190190612e20565b634e487b7160e01b600052603260045260246000fd5b3461026f57602036600319011261026f576004356001600160401b03811161026f5760ff612fb56020612fa281943690600401613114565b8160405193828580945193849201613132565b8101600c81520301902054166040519015158152f35b3461026f57602036600319011261026f576004359063ffffffff60e01b821680920361026f57602091637965db0b60e01b811490811561300d575b5015158152f35b6380ac58cd60e01b81149150811561303f575b811561302e575b5083613006565b6301ffc9a760e01b14905083613027565b635b5e139f60e01b81149150613020565b604081019081106001600160401b0382111761208c57604052565b602081019081106001600160401b0382111761208c57604052565b608081019081106001600160401b0382111761208c57604052565b90601f801991011681019081106001600160401b0382111761208c57604052565b6001600160401b03811161208c57601f01601f191660200190565b9291926130e9826130c2565b916130f760405193846130a1565b82948184528183011161026f578281602093846000960137010152565b9080601f8301121561026f5781602061312f933591016130dd565b90565b60005b8381106131455750506000910152565b8181015183820152602001613135565b60209061316f928260405194838680955193849201613132565b82019081520301902090565b600435906001600160a01b038216820361026f57565b602435906001600160a01b038216820361026f57565b906020916131c081518092818552858086019101613132565b601f01601f1916010190565b606090600319011261026f576001600160a01b0390600435828116810361026f5791602435908116810361026f579060443590565b90600482101561320e5752565b634e487b7160e01b600052602160045260246000fd5b9080601f8301121561026f578135906001600160401b039283831161208c578260051b6040519460209461325a868401886130a1565b865284808701928401019380851161026f57858401925b858410613282575050505050505090565b833583811161026f57879161329c848480948a0101613114565b815201930192613271565b90600182811c921680156132d7575b60208310146132c157565b634e487b7160e01b600052602260045260246000fd5b91607f16916132b6565b90604051918260008254926132f5846132a7565b9081845260019485811690816000146133645750600114613321575b505061331f925003836130a1565b565b9093915060005260209081600020936000915b81831061334c57505061331f93508201013880613311565b85548884018501529485019487945091830191613334565b91505061331f94506020925060ff191682840152151560051b8201013880613311565b3360009081527f54cdd369e4e8a8515e52ca72ec816c2101831ad1f18bf44102ed171459c9b4f8602090815260408083205490929060ff16156133c957505050565b6133d233613bf8565b90808451906133e082613086565b6042825284820192606036853782511561354057603084538251906001918210156135405790607860218501536041915b8183116134d257505050613490576048612ec993869361347493613465985198899376020b1b1b2b9b9a1b7b73a3937b61d1030b1b1b7bab73a1604d1b8a860152612e70815180928c603789019101613132565b010360288101875201856130a1565b5192839262461bcd60e51b8452600484015260248301906131a7565b60648486519062461bcd60e51b825280600483015260248201527f537472696e67733a20686578206c656e67746820696e73756666696369656e746044820152fd5b909192600f8116601081101561352c576f181899199a1a9b1b9c1cb0b131b232b360811b901a6135028587613be7565b5360041c92801561351857600019019190613411565b634e487b7160e01b82526011600452602482fd5b634e487b7160e01b83526032600452602483fd5b634e487b7160e01b81526032600452602490fd5b3360009081527fe298173fb715fb8b47cba95afe542599cde89075e978203baa0c87bd3333a439602090815260408083205490927f0ce23c3e399818cfee81a7ab0880f714e53d7672b08df0fa62f2843416e1ea099160ff16156135b85750505050565b6135c133613bf8565b918451906135ce82613086565b6042825284820192606036853782511561354057603084538251906001918210156135405790607860218501536041915b81831161365357505050613490576048612ec993869361347493613465985198899376020b1b1b2b9b9a1b7b73a3937b61d1030b1b1b7bab73a1604d1b8a860152612e70815180928c603789019101613132565b909192600f8116601081101561352c576f181899199a1a9b1b9c1cb0b131b232b360811b901a6136838587613be7565b5360041c928015613518576000190191906135ff565b60009080825260209060068252604092838120338252835260ff8482205416156136c35750505050565b6136cc33613bf8565b918451906136d982613086565b6042825284820192606036853782511561354057603084538251906001918210156135405790607860218501536041915b81831161375e57505050613490576048612ec993869361347493613465985198899376020b1b1b2b9b9a1b7b73a3937b61d1030b1b1b7bab73a1604d1b8a860152612e70815180928c603789019101613132565b909192600f8116601081101561352c576f181899199a1a9b1b9c1cb0b131b232b360811b901a61378e8587613be7565b5360041c9280156135185760001901919061370a565b906000918083526006602052604083209160018060a01b03169182845260205260ff6040842054166137d557505050565b8083526006602052604083208284526020526040832060ff1981541690557ff6391f5c32d9c69d2a47ea670b442974b53935d1edc7fd64eb21e047a839171b339380a4565b1561382157565b60405162461bcd60e51b815260206004820152601860248201527f4552433732313a20696e76616c696420746f6b656e20494400000000000000006044820152606490fd5b6000908152600260205260409020546001600160a01b031661312f81151561381a565b6000818152600260205260409020546138ac906001600160a01b0316151561381a565b6000908152600460205260409020546001600160a01b031690565b156138ce57565b60405162461bcd60e51b815260206004820152602d60248201527f4552433732313a2063616c6c6572206973206e6f7420746f6b656e206f776e6560448201526c1c881bdc88185c1c1c9bdd9959609a1b6064820152608490fd5b60809060208152603260208201527f4552433732313a207472616e7366657220746f206e6f6e20455243373231526560408201527131b2b4bb32b91034b6b83632b6b2b73a32b960711b60608201520190565b1561398357565b60405162461bcd60e51b815280612ec960048201613929565b906001600160a01b0380806139b084613866565b169316918383149384156139e3575b5083156139cd575b50505090565b6139d991929350613889565b16143880806139c7565b909350600052600560205260406000208260005260205260ff6040600020541692386139bf565b9192600092909190803b15613b2057613a58946040518092630a85bd0160e11b9485835233600484015287602484015260448301526080606483015281878160209a8b9660848301906131a7565b03926001600160a01b03165af1849181613adc575b50613acb575050503d600014613ac3573d613a87816130c2565b90613a9560405192836130a1565b81528091833d92013e5b80519182613ac05760405162461bcd60e51b815280612ec960048201613929565b01fd5b506060613a9f565b6001600160e01b0319161492509050565b9091508581813d8311613b19575b613af481836130a1565b81010312613b1557516001600160e01b031981168103613b15579038613a6d565b8480fd5b503d613aea565b5050915050600190565b9293600093909291803b15613baa57948491613b849660405180948193630a85bd0160e11b9788845233600485015260018060a01b0380921660248501526044840152608060648401528260209b8c9760848301906131a7565b0393165af1849181613adc5750613acb575050503d600014613ac3573d613a87816130c2565b505050915050600190565b90613bbf826130c2565b613bcc60405191826130a1565b8281528092613bdd601f19916130c2565b0190602036910137565b908151811015612f54570160200190565b60405190606082018281106001600160401b0382111761208c57604052602a8252602082016040368237825115612f5457603090538151600190811015612f5457607860218401536029905b808211613c98575050613c545790565b606460405162461bcd60e51b815260206004820152602060248201527f537472696e67733a20686578206c656e67746820696e73756666696369656e746044820152fd5b9091600f81166010811015613cf1576f181899199a1a9b1b9c1cb0b131b232b360811b901a613cc78486613be7565b5360041c918015613cdc576000190190613c44565b60246000634e487b7160e01b81526011600452fd5b60246000634e487b7160e01b81526032600452fd5b3360009081527f94d92cec0fd76884610690d80e33d2fd23f78997b4836bf3179e3b236b4b9d0b602090815260408083205490969594939060ff1615613e565795849596613d56613d7096613866565b6001600160a01b0396918716958792909183168714613e6d565b16948515613e06577fddf252ad1be2c89b69c2b068fc378daa952ba7f163c4a11628f55a4df523b3ef939291613db2868893613dab8b613866565b1614613e6d565b878452600483526002818520936bffffffffffffffffffffffff60a01b94858154169055878652600381528286206000198154019055838652828620600181540190558986525283209182541617905580a4565b815162461bcd60e51b8152600481018490526024808201527f4552433732313a207472616e7366657220746f20746865207a65726f206164646044820152637265737360e01b6064820152608490fd5b86516212242560e91b815260048101869052602490fd5b15613e7457565b60405162461bcd60e51b815260206004820152602560248201527f4552433732313a207472616e736665722066726f6d20696e636f72726563742060448201526437bbb732b960d91b6064820152608490fd5b60001981146118db5760010190565b8051821015612f545760209160051b010190565b60ff60075416613ef657565b60405162461bcd60e51b815260206004820152601060248201526f14185d5cd8589b194e881c185d5cd95960821b6044820152606490fd5b15613f3557565b60405162461bcd60e51b815260206004820152601c60248201527f4552433732313a20746f6b656e20616c7265616479206d696e746564000000006044820152606490fd5b15613f8157565b60405162461bcd60e51b815260206004820152601760248201527f4964656e7469747920646f6573206e6f742065786973740000000000000000006044820152606490fd5b600481101561320e57801561408d576001811461406257600281146140395760031461400f57604051613ff881613050565b60078152662aa725a727aba760c91b602082015290565b60405161401b81613050565b600e81526d119553131648159154925192515160921b602082015290565b5060405161404681613050565b600c81526b12d650c8159154925192515160a21b602082015290565b5060405161406f81613050565b600e81526d109054d250c8159154925192515160921b602082015290565b5060405161409a81613050565b600a8152691553959154925192515160b21b602082015290565b919082039182116118db57565b90600c811015612f545760051b0190565b620151809004906107b29061016d5b83116143025760409081519161018083018381106001600160401b0382111761208c578152601f9081845260209182850190601c82528083870152601e6060870152806080870152601e60a08701528060c08701528060e0870152601e61010087015280610120870152601e6101408701526101608601526003861615806142ea575b6142e0575b506000955b600c8710806142c9575b156141a45761419861419e9160ff6141908a896140c1565b5116906140b4565b96613ec7565b9561416e565b919461312f945061429c6141cc6141c66141c06022979a613ec7565b95613ec7565b9261435f565b93600a8110156142ba576141df9061435f565b614214602185518093600360fc1b8c8301526142048c82519283918686019101613132565b81010360018101845201826130a1565b915b600a8110156142ab576142289061435f565b61424d602185518093600360fc1b8c8301526142048c82519283918686019101613132565b925b519684614265899651809284808a019101613132565b850192602d60f81b9384838201526142868251809385602185019101613132565b0192602184015283519384918785019101613132565b010360028101845201826130a1565b6142b49061435f565b9261424f565b6142c39061435f565b91614216565b5060ff6142d688876140c1565b5116811015614178565b601d905238614169565b50606486061515806141645750610190860615614164565b600382161580614347575b1561433c5761ffff61016e5b168084106140e157919261433083614336926140b4565b93613ec7565b916140e1565b61ffff61016d614319565b506064820615158061430d575061019082061561430d565b806000917a184f03e93ff9f4daa797ed6e38ed64bf6a1f01000000000000000080821015614494575b506d04ee2d6d415b85acef810000000080831015614485575b50662386f26fc1000080831015614476575b506305f5e10080831015614467575b5061271080831015614458575b506064821015614448575b600a8092101561443e575b6001908160216143f6828701613bb5565b95860101905b614408575b5050505090565b600019019083906f181899199a1a9b1b9c1cb0b131b232b360811b8282061a835304918215614439579190826143fc565b614401565b91600101916143e5565b91906064600291049101916143da565b600491939204910191386143cf565b600891939204910191386143c2565b601091939204910191386143b3565b602091939204910191386143a1565b604093508104915038614388565b6000929181546144b1816132a7565b9260019180831690811561450a57506001146144ce575b50505050565b90919293945060005260209081600020906000915b8583106144f957505050500190388080806144c8565b8054858401529183019181016144e3565b60ff19168452505050811515909102019150388080806144c8565b8051156146755760405190606082018281106001600160401b0382111761208c57604052604082527f4142434445464748494a4b4c4d4e4f505152535455565758595a61626364656660208301527f6768696a6b6c6d6e6f707172737475767778797a303132333435363738392b2f604083015280516002918282018092116118db576003918290046001600160fe1b03811681036118db576145cb908495941b613bb5565b936020850193829183518401906020820192835194600085525b83811061462457505050505251068060011461461157600214614606575090565b603d90600019015390565b50603d9081600019820153600119015390565b87600491999293949901918251600190603f9082828260121c16880101518453828282600c1c16880101518385015382828260061c16880101518885015316850101518982015301979291906145e5565b506040516146828161306b565b6000815290565b600481101561320e57801561473d576001811461471957600281146146f5576003146146d2576040516146bb81613050565b600781526611a3232323232360c91b602082015290565b6040516146de81613050565b6007815266119c311ab1b31b60c91b602082015290565b5060405161470281613050565b60078152661199b11c19331b60c91b602082015290565b5060405161472681613050565b60078152660233461646538360cc1b602082015290565b5060405161474a81613050565b6007815266119cb23099b0b360c91b60208201529056fea2646970667358221220e1281cd111ba8fae65096b4beebe1627f17abc58a6f3bb74c887fc0af84f9cb464736f6c634300081300332f8788117e7eff1d82e926ec794901d17c78024a50270940304540a733656f0d",
  "linkReferences": {},
  "deployedLinkReferences": {}
}