{
  "_format": "hh-sol-artifact-1",
  "contractName": "ModeratorControl",
  "sourceName": "contracts/ModeratorControl.sol",
  "abi": [
    {
      "inputs": [
        {
          "internalType": "address",
          "name": "_digitalIdentityAddress",
          "type": "address"
        },
        {
          "internalType": "address",
          "name": "_reputationAddress",
          "type": "address"
        }
      ],
      "stateMutability": "nonpayable",
      "type": "constructor"
    },
    {
      "anonymous": false,
      "inputs": [
        {
          "indexed": true,
          "internalType": "address",
          "name": "appealSystemAddress",
          "type": "address"
        }
      ],
      "name": "AppealSystemSet",
      "type": "event"
    },
    {
      "anonymous": false,
      "inputs": [
        {
          "indexed": true,
          "internalType": "uint256",
          "name": "caseId",
          "type": "uint256"
        },
        {
          "indexed": true,
          "internalType": "address",
          "name": "user",
          "type": "address"
        },
        {
          "indexed": false,
          "internalType": "enum ModeratorControl.ActionType",
          "name": "actionType",
          "type": "uint8"
        },
        {
          "indexed": false,
          "internalType": "string",
          "name": "reason",
          "type": "string"
        },
        {
          "indexed": true,
          "internalType": "address",
          "name": "moderatorOrOracle",
          "type": "address"
        }
      ],
      "name": "CaseCreated",
      "type": "event"
    },
    {
      "anonymous": false,
      "inputs": [
        {
          "indexed": true,
          "internalType": "uint256",
          "name": "caseId",
          "type": "uint256"
        },
        {
          "indexed": true,
          "internalType": "address",
          "name": "resolver",
          "type": "address"
        }
      ],
      "name": "CaseResolved",
      "type": "event"
    },
    {
      "anonymous": false,
      "inputs": [
        {
          "indexed": true,
          "internalType": "address",
          "name": "user",
          "type": "address"
        },
        {
          "indexed": false,
          "internalType": "enum DigitalIdentityNFT.VerificationLevel",
          "name": "level",
          "type": "uint8"
        }
      ],
      "name": "IdentityVerificationApproved",
      "type": "event"
    },
    {
      "anonymous": false,
      "inputs": [
        {
          "indexed": false,
          "internalType": "address",
          "name": "account",
          "type": "address"
        }
      ],
      "name": "Paused",
      "type": "event"
    },
    {
      "anonymous": false,
      "inputs": [
        {
          "indexed": false,
          "internalType": "uint256",
          "name": "positiveWeight",
          "type": "uint256"
        },
        {
          "indexed": false,
          "internalType": "uint256",
          "name": "negativeWeight",
          "type": "uint256"
        },
        {
          "indexed": false,
          "internalType": "uint256",
          "name": "decayRate",
          "type": "uint256"
        },
        {
          "indexed": false,
          "internalType": "uint256",
          "name": "decayPeriod",
          "type": "uint256"
        },
        {
          "indexed": false,
          "internalType": "uint256",
          "name": "activityMultiplier",
          "type": "uint256"
        }
      ],
      "name": "ReputationConfigUpdated",
      "type": "event"
    },
    {
      "anonymous": false,
      "inputs": [
        {
          "indexed": true,
          "internalType": "address",
          "name": "user",
          "type": "address"
        },
        {
          "indexed": false,
          "internalType": "enum ModeratorControl.ActionType",
          "name": "actionType",
          "type": "uint8"
        },
        {
          "indexed": false,
          "internalType": "string",
          "name": "reason",
          "type": "string"
        }
      ],
      "name": "RestrictionApplied",
      "type": "event"
    },
    {
      "anonymous": false,
      "inputs": [
        {
          "indexed": true,
          "internalType": "address",
          "name": "user",
          "type": "address"
        }
      ],
      "name": "RestrictionRemoved",
      "type": "event"
    },
    {
      "anonymous": false,
      "inputs": [
        {
          "indexed": true,
          "internalType": "bytes32",
          "name": "role",
          "type": "bytes32"
        },
        {
          "indexed": true,
          "internalType": "bytes32",
          "name": "previousAdminRole",
          "type": "bytes32"
        },
        {
          "indexed": true,
          "internalType": "bytes32",
          "name": "newAdminRole",
          "type": "bytes32"
        }
      ],
      "name": "RoleAdminChanged",
      "type": "event"
    },
    {
      "anonymous": false,
      "inputs": [
        {
          "indexed": true,
          "internalType": "bytes32",
          "name": "role",
          "type": "bytes32"
        },
        {
          "indexed": true,
          "internalType": "address",
          "name": "account",
          "type": "address"
        },
        {
          "indexed": true,
          "internalType": "address",
          "name": "sender",
          "type": "address"
        }
      ],
      "name": "RoleGranted",
      "type": "event"
    },
    {
      "anonymous": false,
      "inputs": [
        {
          "indexed": true,
          "internalType": "bytes32",
          "name": "role",
          "type": "bytes32"
        },
        {
          "indexed": true,
          "internalType": "address",
          "name": "account",
          "type": "address"
        },
        {
          "indexed": true,
          "internalType": "address",
          "name": "sender",
          "type": "address"
        }
      ],
      "name": "RoleRevoked",
      "type": "event"
    },
    {
      "anonymous": false,
      "inputs": [
        {
          "indexed": false,
          "internalType": "address",
          "name": "account",
          "type": "address"
        }
      ],
      "name": "Unpaused",
      "type": "event"
    },
    {
      "inputs": [],
      "name": "DEFAULT_ADMIN_ROLE",
      "outputs": [
        {
          "internalType": "bytes32",
          "name": "",
          "type": "bytes32"
        }
      ],
      "stateMutability": "view",
      "type": "function"
    },
    {
      "inputs": [],
      "name": "MODERATOR_ROLE",
      "outputs": [
        {
          "internalType": "bytes32",
          "name": "",
          "type": "bytes32"
        }
      ],
      "stateMutability": "view",
      "type": "function"
    },
    {
      "inputs": [],
      "name": "ORACLE_ROLE",
      "outputs": [
        {
          "internalType": "bytes32",
          "name": "",
          "type": "bytes32"
        }
      ],
      "stateMutability": "view",
      "type": "function"
    },
    {
      "inputs": [],
      "name": "RESTRICTION_THRESHOLD",
      "outputs": [
        {
          "internalType": "uint256",
          "name": "",
          "type": "uint256"
        }
      ],
      "stateMutability": "view",
      "type": "function"
    },
    {
      "inputs": [],
      "name": "SEVERE_RESTRICTION_THRESHOLD",
      "outputs": [
        {
          "internalType": "uint256",
          "name": "",
          "type": "uint256"
        }
      ],
      "stateMutability": "view",
      "type": "function"
    },
    {
      "inputs": [],
      "name": "WARNING_THRESHOLD",
      "outputs": [
        {
          "internalType": "uint256",
          "name": "",
          "type": "uint256"
        }
      ],
      "stateMutability": "view",
      "type": "function"
    },
    {
      "inputs": [],
      "name": "appealSystem",
      "outputs": [
        {
          "internalType": "contract AppealSystem",
          "name": "",
          "type": "address"
        }
      ],
      "stateMutability": "view",
      "type": "function"
    },
    {
      "inputs": [
        {
          "internalType": "address",
          "name": "user",
          "type": "address"
        },
        {
          "internalType": "enum DigitalIdentityNFT.VerificationLevel",
          "name": "level",
          "type": "uint8"
        }
      ],
      "name": "approveIdentityVerification",
      "outputs": [],
      "stateMutability": "nonpayable",
      "type": "function"
    },
    {
      "inputs": [],
      "name": "caseCount",
      "outputs": [
        {
          "internalType": "uint256",
          "name": "",
          "type": "uint256"
        }
      ],
      "stateMutability": "view",
      "type": "function"
    },
    {
      "inputs": [
        {
          "internalType": "uint256",
          "name": "_positiveWeight",
          "type": "uint256"
        },
        {
          "internalType": "uint256",
          "name": "_negativeWeight",
          "type": "uint256"
        },
        {
          "internalType": "uint256",
          "name": "_decayRate",
          "type": "uint256"
        },
        {
          "internalType": "uint256",
          "name": "_decayPeriod",
          "type": "uint256"
        },
        {
          "internalType": "uint256",
          "name": "_activityMultiplier",
          "type": "uint256"
        }
      ],
      "name": "configureReputationWeights",
      "outputs": [],
      "stateMutability": "nonpayable",
      "type": "function"
    },
    {
      "inputs": [
        {
          "internalType": "address",
          "name": "user",
          "type": "address"
        },
        {
          "internalType": "string",
          "name": "did",
          "type": "string"
        }
      ],
      "name": "createIdentity",
      "outputs": [],
      "stateMutability": "nonpayable",
      "type": "function"
    },
    {
      "inputs": [
        {
          "internalType": "address",
          "name": "user",
          "type": "address"
        },
        {
          "internalType": "enum ModeratorControl.ActionType",
          "name": "actionType",
          "type": "uint8"
        },
        {
          "internalType": "string",
          "name": "reason",
          "type": "string"
        }
      ],
      "name": "createModerationCase",
      "outputs": [],
      "stateMutability": "nonpayable",
      "type": "function"
    },
    {
      "inputs": [],
      "name": "digitalIdentity",
      "outputs": [
        {
          "internalType": "contract DigitalIdentityNFT",
          "name": "",
          "type": "address"
        }
      ],
      "stateMutability": "view",
      "type": "function"
    },
    {
      "inputs": [
        {
          "internalType": "address",
          "name": "user",
          "type": "address"
        }
      ],
      "name": "evaluateUserRestrictions",
      "outputs": [],
      "stateMutability": "nonpayable",
      "type": "function"
    },
    {
      "inputs": [
        {
          "internalType": "uint256",
          "name": "caseId",
          "type": "uint256"
        }
      ],
      "name": "getCaseDetails",
      "outputs": [
        {
          "internalType": "address",
          "name": "user",
          "type": "address"
        },
        {
          "internalType": "enum ModeratorControl.ActionType",
          "name": "actionType",
          "type": "uint8"
        },
        {
          "internalType": "string",
          "name": "reason",
          "type": "string"
        },
        {
          "internalType": "uint256",
          "name": "timestamp",
          "type": "uint256"
        },
        {
          "internalType": "address",
          "name": "moderator",
          "type": "address"
        },
        {
          "internalType": "bool",
          "name": "isResolved",
          "type": "bool"
        }
      ],
      "stateMutability": "view",
      "type": "function"
    },
    {
      "inputs": [
        {
          "internalType": "bytes32",
          "name": "role",
          "type": "bytes32"
        }
      ],
      "name": "getRoleAdmin",
      "outputs": [
        {
          "internalType": "bytes32",
          "name": "",
          "type": "bytes32"
        }
      ],
      "stateMutability": "view",
      "type": "function"
    },
    {
      "inputs": [],
      "name": "getTotalCases",
      "outputs": [
        {
          "internalType": "uint256",
          "name": "",
          "type": "uint256"
        }
      ],
      "stateMutability": "view",
      "type": "function"
    },
    {
      "inputs": [
        {
          "internalType": "address",
          "name": "user",
          "type": "address"
        }
      ],
      "name": "getUserCases",
      "outputs": [
        {
          "internalType": "uint256[]",
          "name": "",
          "type": "uint256[]"
        }
      ],
      "stateMutability": "view",
      "type": "function"
    },
    {
      "inputs": [
        {
          "internalType": "address",
          "name": "user",
          "type": "address"
        }
      ],
      "name": "getUserReputationStatus",
      "outputs": [
        {
          "internalType": "uint256",
          "name": "score",
          "type": "uint256"
        },
        {
          "internalType": "bool",
          "name": "isBanned",
          "type": "bool"
        },
        {
          "internalType": "uint256",
          "name": "lastUpdate",
          "type": "uint256"
        }
      ],
      "stateMutability": "view",
      "type": "function"
    },
    {
      "inputs": [
        {
          "internalType": "bytes32",
          "name": "role",
          "type": "bytes32"
        },
        {
          "internalType": "address",
          "name": "account",
          "type": "address"
        }
      ],
      "name": "grantRole",
      "outputs": [],
      "stateMutability": "nonpayable",
      "type": "function"
    },
    {
      "inputs": [
        {
          "internalType": "bytes32",
          "name": "role",
          "type": "bytes32"
        },
        {
          "internalType": "address",
          "name": "account",
          "type": "address"
        }
      ],
      "name": "hasRole",
      "outputs": [
        {
          "internalType": "bool",
          "name": "",
          "type": "bool"
        }
      ],
      "stateMutability": "view",
      "type": "function"
    },
    {
      "inputs": [
        {
          "internalType": "address",
          "name": "user",
          "type": "address"
        }
      ],
      "name": "initializeUserScore",
      "outputs": [],
      "stateMutability": "nonpayable",
      "type": "function"
    },
    {
      "inputs": [
        {
          "internalType": "uint256",
          "name": "",
          "type": "uint256"
        }
      ],
      "name": "moderationCases",
      "outputs": [
        {
          "internalType": "address",
          "name": "user",
          "type": "address"
        },
        {
          "internalType": "enum ModeratorControl.ActionType",
          "name": "actionType",
          "type": "uint8"
        },
        {
          "internalType": "string",
          "name": "reason",
          "type": "string"
        },
        {
          "internalType": "uint256",
          "name": "timestamp",
          "type": "uint256"
        },
        {
          "internalType": "address",
          "name": "moderator",
          "type": "address"
        },
        {
          "internalType": "bool",
          "name": "isResolved",
          "type": "bool"
        }
      ],
      "stateMutability": "view",
      "type": "function"
    },
    {
      "inputs": [],
      "name": "pause",
      "outputs": [],
      "stateMutability": "nonpayable",
      "type": "function"
    },
    {
      "inputs": [],
      "name": "paused",
      "outputs": [
        {
          "internalType": "bool",
          "name": "",
          "type": "bool"
        }
      ],
      "stateMutability": "view",
      "type": "function"
    },
    {
      "inputs": [
        {
          "internalType": "address",
          "name": "user",
          "type": "address"
        }
      ],
      "name": "removeRestriction",
      "outputs": [],
      "stateMutability": "nonpayable",
      "type": "function"
    },
    {
      "inputs": [
        {
          "internalType": "bytes32",
          "name": "role",
          "type": "bytes32"
        },
        {
          "internalType": "address",
          "name": "account",
          "type": "address"
        }
      ],
      "name": "renounceRole",
      "outputs": [],
      "stateMutability": "nonpayable",
      "type": "function"
    },
    {
      "inputs": [],
      "name": "reputationSystem",
      "outputs": [
        {
          "internalType": "contract ReputationSystem",
          "name": "",
          "type": "address"
        }
      ],
      "stateMutability": "view",
      "type": "function"
    },
    {
      "inputs": [
        {
          "internalType": "bytes32",
          "name": "role",
          "type": "bytes32"
        },
        {
          "internalType": "address",
          "name": "account",
          "type": "address"
        }
      ],
      "name": "revokeRole",
      "outputs": [],
      "stateMutability": "nonpayable",
      "type": "function"
    },
    {
      "inputs": [
        {
          "internalType": "address",
          "name": "_appealSystem",
          "type": "address"
        }
      ],
      "name": "setAppealSystem",
      "outputs": [],
      "stateMutability": "nonpayable",
      "type": "function"
    },
    {
      "inputs": [
        {
          "internalType": "bytes4",
          "name": "interfaceId",
          "type": "bytes4"
        }
      ],
      "name": "supportsInterface",
      "outputs": [
        {
          "internalType": "bool",
          "name": "",
          "type": "bool"
        }
      ],
      "stateMutability": "view",
      "type": "function"
    },
    {
      "inputs": [],
      "name": "unpause",
      "outputs": [],
      "stateMutability": "nonpayable",
      "type": "function"
    },
    {
      "inputs": [
        {
          "internalType": "address",
          "name": "user",
          "type": "address"
        },
        {
          "internalType": "int256",
          "name": "points",
          "type": "int256"
        }
      ],
      "name": "updateUserReputation",
      "outputs": [],
      "stateMutability": "nonpayable",
      "type": "function"
    },
    {
      "inputs": [
        {
          "internalType": "address",
          "name": "",
          "type": "address"
        }
      ],
      "name": "userRestrictions",
      "outputs": [
        {
          "internalType": "enum ModeratorControl.ActionType",
          "name": "",
          "type": "uint8"
        }
      ],
      "stateMutability": "view",
      "type": "function"
    }
  ],
  "bytecode": "0x608034620002d057620037cf90601f38839003908101601f19168201906001600160401b03821183831017620002d55780839160409586948552833981010312620002d0576200004f81620002eb565b6200005e6020809301620002eb565b600154906001600160a01b03908382161562000266571691821562000207576001600160a81b031990911660089190911b610100600160a81b031617600155600280546001600160a01b031916919091179055600080805280825282812033825282528281205460ff1615620001cf575b7f71f3d55856e4058ed06ee057d79ada615f65cdf5f9ee88181b914225088f834f808252818352838220338352835260ff84832054161562000195575b507f68e79a7bf1e0bc45d0a330c573bc367f9cf464fd326078812f301165fbda4ef191828252818152838220338352815260ff8483205416156200015a575b83516134ae9081620003018239f35b8282528181528382209033835252828120600160ff198254161790553391600080516020620037af833981519152339280a43880806200014b565b8082528183528382203383528352838220600160ff1982541617905533903390600080516020620037af8339815191528480a4386200010c565b8080528082528281203382528252828120600160ff19825416179055333382600080516020620037af8339815191528180a4620000cf565b845162461bcd60e51b815260048101859052603260248201527f4d6f64657261746f72436f6e74726f6c3a20496e76616c69642052657075746160448201527174696f6e53797374656d206164647265737360701b6064820152608490fd5b855162461bcd60e51b815260048101869052603460248201527f4d6f64657261746f72436f6e74726f6c3a20496e76616c69642044696769746160448201527f6c4964656e746974794e465420616464726573730000000000000000000000006064820152608490fd5b600080fd5b634e487b7160e01b600052604160045260246000fd5b51906001600160a01b0382168203620002d05756fe608080604052600436101561001357600080fd5b600090813560e01c90816301ffc9a7146129ba5750806307e2cea51461297f5780630be3a32e1461270c5780631990923a14611846578063248a9ca31461181a5780632f2ff15d1461176a57806336568abe146116d75780633afd66e7146116bb5780633f4ba83a146116265780635c975abb146116035780636587eda1146115da57806369a5b95014611362578063797669c9146113395780637a69b32d1461098f5780637ad04c00146112f55780637ca0976d146112905780638456cb591461123657806386e506421461121a5780638e952bfe146110d557806391d148541461108a5780639247db6314610f8c578063980c715014610ecf5780639d11804614610bee578063a217fddf14610bd2578063a8b527bb14610ba5578063b409dbe214610adf578063c3a9063514610a16578063d547741f146109d6578063d97564fa146109ad578063da2d7e951461098f578063ddb420ef146104a3578063df08f57f14610487578063e1075ed3146103245763e1d3551e1461019757600080fd5b346102555760209081600319360112610255576101b2612a0f565b6101ba612cc0565b6101c26132a0565b60015460405163237f1a2160e01b81526001600160a01b0392831660048201819052929185908290602490829060081c86165afa9081156103195784916102e0575b5015610267578293506002541690813b156102635782916024839260405194859384926370e9aa8f60e11b845260048401525af18015610258576102455750f35b61024e90612a98565b6102555780f35b80fd5b6040513d84823e3d90fd5b5050fd5b60405162461bcd60e51b815260048101859052604560248201527f4d6f64657261746f72436f6e74726f6c3a2055736572206d757374206861766560448201527f206469676974616c206964656e7469747920746f20696e697469616c697a652060648201526473636f726560d81b608482015260a490fd5b90508481813d8311610312575b6102f78183612b12565b8101031261030e57610308906132e4565b38610204565b8380fd5b503d6102ed565b6040513d86823e3d90fd5b5034610255576020806003193601126104835761033f612a0f565b600580546001600160a01b03928316928592909190835b828110610442575061038061036a8861337c565b97610378604051998a612b12565b80895261337c565b8787019590601f19013687378493855b8481106103db5750505050505060405193838594850191818652518092526040850193925b8281106103c457505050500390f35b8351855286955093810193928101926001016103b5565b80879a9899975260048752828260408c20541614610407575b6103fd90613357565b9895979698610390565b94875181101561042e576104268187896103fd94881b8c010152613357565b9590506103f4565b634e487b7160e01b8a52603260045260248afd5b8085989697955260048552868460408a2054161461046e575b61046490613357565b9693959496610356565b9461047b61046491613357565b95905061045b565b5080fd5b5034610255578060031936011261025557602060405160468152f35b5034610255576060366003190112610255576104bd612a0f565b60056024351015610483576044356001600160401b03811161098b576104e7903690600401612c6a565b6104ef612cc0565b6104f76132a0565b60015460405163237f1a2160e01b81526001600160a01b03808516600483018190529492600092916020918391602491839160089190911c165afa8015610258578290610950575b61054991506132f1565b6004602435146108f25783815260066020526040812060ff1981541660ff6024351617905580918192602435156000146108a25750600919905b8161083b575b5050906005549161059983613357565b600555604051916105a983612ac1565b8583526108275760243560208301528360408301524260608301523360808301528060a08301528281526004602052604081209060018060a01b0383511682549060208501516005811015610813576001600160a81b03199092161760a09190911b60ff60a01b161782556040830151805191906001600160401b0383116107ff576106386001850154612a5e565b601f81116107b7575b50602091601f84116001146107335792806003936107229896936000805160206134198339815191529a989692610728575b505060001982851b1c1916600191821b17908201555b60608301516002820155019060018060a01b0360808201511682549160a060ff811b910151151560a01b16916001600160581b0360a81b161717905584604051916106d683602435612a3b565b604060208401526000805160206134598339815191523393806106fc6040820188612bfc565b0390a460405191829161071183602435612a3b565b604060208401526040830190612bfc565b0390a280f35b015190503880610673565b919060018501835260208320925b601f198516811061079f5750836003936107229896936001936000805160206134198339815191529b9997601f19811610610787575b505050811b016001820155610689565b015160001983871b60f8161c19169055388080610777565b91926020600181928685015181550194019201610741565b60018501835260208320601f850160051c810191602086106107f5575b601f0160051c01905b8181106107ea5750610641565b8381556001016107dd565b90915081906107d4565b634e487b7160e01b82526041600452602482fd5b634e487b7160e01b84526021600452602484fd5b634e487b7160e01b81526021600452602490fd5b6002546001600160a01b031690813b1561030e57604051633f9ebffd60e11b81526001600160a01b03919091166004820152602481019290925282908290604490829084905af1801561025857610893575b80610589565b61089c90612a98565b3861088d565b925081926001602435146000146108be5750601819905b610583565b925081926002602435146000146108d9575060311990610583565b90925081926003602435036108b9576063199150610583565b60405162461bcd60e51b815260206004820152603060248201527f4d6f64657261746f72436f6e74726f6c3a205573652072656d6f76655265737460448201526f3934b1ba34b7b7103a37903ab73130b760811b6064820152608490fd5b506020813d602011610983575b8161096a60209383612b12565b810103126104835761097e610549916132e4565b61053f565b3d915061095d565b8280fd5b50346102555780600319360112610255576020600554604051908152f35b50346102555780600319360112610255576003546040516001600160a01b039091168152602090f35b503461025557604036600319011261025557610a136004356109f6612a25565b9080845283602052610a0e6001604086200154612fed565b6130f7565b80f35b50346102555760203660031901126102555760043590600554821015610a8a5760409181526004602052208054610a86600283015492610a5d600160038301549201612b33565b9260405194859460018060a01b03928360ff8660a01c1695169360ff8260a01c16911687612c21565b0390f35b60405162461bcd60e51b815260206004820152602760248201527f4d6f64657261746f72436f6e74726f6c3a2043617365204944206f7574206f6660448201526620626f756e647360c81b6064820152608490fd5b503461025557602036600319011261025557610af9612a0f565b610b01612ec9565b6001600160a01b03168015610b4957600380546001600160a01b031916821790557f3690b4507b2906e50f9ded88952c320465797d7fc16e2206fef508e8c61fd4bf8280a280f35b60405162461bcd60e51b815260206004820152602e60248201527f4d6f64657261746f72436f6e74726f6c3a20496e76616c69642041707065616c60448201526d53797374656d206164647265737360901b6064820152608490fd5b503461025557806003193601126102555760015460405160089190911c6001600160a01b03168152602090f35b5034610255578060031936011261025557602090604051908152f35b50346102555760a036600319011261025557606435602435600435608435604435610c17612ec9565b610c1f6132a0565b8215610e74578315610e19578415610dc157600254604051636725addf60e11b81526001600160a01b0390911690602081600481855afa908115610db6578891610d80575b50821015610d28578087913b15610483576040516366e9f2a560e11b81526004810186905260248101879052604481018490526064810188905260848101859052908290829060a490829084905af1801561025857610d0c575b505060408051938452602084019490945292820192909252606081019290925260808201527fcfdde9387542b767858bc2bdd9274c371da924457e50c65a37ad80b5ab81a1a69060a090a180f35b610d1890939293612a98565b610d2457908538610cbe565b8580fd5b60405162461bcd60e51b815260206004820152602a60248201527f4d6f64657261746f72436f6e74726f6c3a2044656361792072617465206d7573604482015269074206265203c20312e360b41b6064820152608490fd5b90506020813d8211610dae575b81610d9a60209383612b12565b81010312610da9575138610c64565b600080fd5b3d9150610d8d565b6040513d8a823e3d90fd5b60405162461bcd60e51b815260206004820152602a60248201527f4d6f64657261746f72436f6e74726f6c3a20446563617920706572696f64206d6044820152690757374206265203e20360b41b6064820152608490fd5b60405162461bcd60e51b815260206004820152602d60248201527f4d6f64657261746f72436f6e74726f6c3a204e6567617469766520776569676860448201526c074206d757374206265203e203609c1b6064820152608490fd5b60405162461bcd60e51b815260206004820152602d60248201527f4d6f64657261746f72436f6e74726f6c3a20506f73697469766520776569676860448201526c074206d757374206265203e203609c1b6064820152608490fd5b503461025557602036600319011261025557610ee9612a0f565b600254604051634604e42160e01b81526001600160a01b0392831660048201529160e09183916024918391165afa801561025857829183908492610f41575b5060609350604051928352151560208301526040820152f35b9250505060e0813d8211610f84575b81610f5d60e09383612b12565b81010312610483576060915080516040610f79602084016132e4565b920151909138610f28565b3d9150610f50565b50346102555760403660031901126102555780610fa7612a0f565b610faf612cc0565b610fb76132a0565b60015460405163237f1a2160e01b81526001600160a01b038381166004830152916020908290602490829060081c86165afa801561031957849061104b575b61100091506132f1565b60025416803b1561026357604051633f9ebffd60e11b81526001600160a01b03929092166004830152602480359083015282908290604490829084905af18015610258576102455750f35b506020813d8211611082575b8161106460209383612b12565b8101031261107d57611078611000916132e4565b610ff6565b505050fd5b3d9150611057565b50346102555760403660031901126102555760406110a6612a25565b91600435815280602052209060018060a01b0316600052602052602060ff604060002054166040519015158152f35b50346102555780600319604036820112611217576110f1612a0f565b90602435906001600160401b03821161107d57602061118161111a6111a0943690600401612c6a565b94611123612cc0565b61112b6132a0565b611133613393565b938761113d613393565b9260018060a01b039788938460015460081c16956111916040519a8b998a98899763494c189560e11b8952169e8f6004890152608060248901526084880190612bfc565b90848783030160448801526133b6565b918483030160648501526133b6565b03925af18015610319576111e8575b506002541690813b156102635782916024839260405194859384926370e9aa8f60e11b845260048401525af18015610258576102455750f35b6020809294503d8111611210575b6112008183612b12565b81010312610da9578291386111af565b503d6111f6565b50fd5b50346102555780600319360112610255576020604051601e8152f35b503461025557806003193601126102555761124f612ec9565b6112576132a0565b600160ff19815416176001557f62e78cea01bee320cd4e420270b5ea74000d11b0c9f74754ebdbfc544b05a2586020604051338152a180f35b50346102555760203660031901126102555760409060043581526004602052208054610a866112c160018401612b33565b91600360028501549401549060405194859460018060a01b03928360ff8660a01c1695169360ff8260a01c16911687612c21565b50346102555760203660031901126102555760209060ff906040906001600160a01b03611320612a0f565b168152600684522054166113376040518092612a3b565bf35b503461025557806003193601126102555760206040516000805160206134398339815191528152f35b5034610255576020806003193601126104835761137d612a0f565b906113866132a0565b60008051602061343983398151915283528281526040832033600052815260ff6040600020541680156115b3575b15611549576001600160a01b0391821680845260068252604084205490929060ff1660058110156115355760031490811591611515575b50156114ab578183526006815260ff60408420541660058110156108135760041461144d578183526006905260408220805460ff191660041790557fdf4f1ec932dcab3c66fb7845ba6fc669816121e5d4a81d6955d3c6d3bff7b7e98280a280f35b6084906040519062461bcd60e51b82526004820152603160248201527f4d6f64657261746f72436f6e74726f6c3a204e6f20616374697665207265737460448201527072696374696f6e20746f2072656d6f766560781b6064820152fd5b6084906040519062461bcd60e51b82526004820152603b60248201527f4d6f64657261746f72436f6e74726f6c3a2042616e2063616e206f6e6c79206260448201527f652072656d6f766564207669612061707065616c2073797374656d00000000006064820152fd5b6003541680151591508161152b575b50386113eb565b9050331438611524565b634e487b7160e01b85526021600452602485fd5b6084906040519062461bcd60e51b82526004820152603b60248201527f4d6f64657261746f72436f6e74726f6c3a2043616c6c6572206d75737420626560448201527f206d6f64657261746f72206f722061707065616c2073797374656d00000000006064820152fd5b506003546001600160a01b031680151590816115d0575b506113b4565b90503314386115ca565b50346102555780600319360112610255576002546040516001600160a01b039091168152602090f35b5034610255578060031936011261025557602060ff600154166040519015158152f35b503461025557806003193601126102555761163f612ec9565b60015460ff81161561167f5760ff19166001557f5db9ee0a495bf2e6ff9c91a7834c1ba4fdd244a5e8aa4e537bd38aeae4b073aa6020604051338152a180f35b60405162461bcd60e51b815260206004820152601460248201527314185d5cd8589b194e881b9bdd081c185d5cd95960621b6044820152606490fd5b5034610255578060031936011261025557602060405160328152f35b5034610255576040366003190112610255576116f1612a25565b336001600160a01b0382160361170d57610a13906004356130f7565b60405162461bcd60e51b815260206004820152602f60248201527f416363657373436f6e74726f6c3a2063616e206f6e6c792072656e6f756e636560448201526e103937b632b9903337b91039b2b63360891b6064820152608490fd5b503461025557604036600319011261025557600435611787612a25565b8183528260205261179e6001604085200154612fed565b81835282602052604083209060018060a01b0316908160005260205260ff60406000205416156117cc578280f35b8183528260205260408320816000526020526040600020600160ff1982541617905533917f2f8788117e7eff1d82e926ec794901d17c78024a50270940304540a733656f0d8480a438808280f35b503461025557602036600319011261025557600160406020926004358152808452200154604051908152f35b503461025557602036600319011261025557611860612a0f565b600080516020613439833981519152825281602052604082203360005260205260ff90816040600020541680156126cc575b1561266a5761189f6132a0565b60015460405163237f1a2160e01b8082526001600160a01b038481166004840152909460249360081c909116916020818581865afa801561262057879061262b575b6118eb91506132f1565b60025460405163b34e0c4760e01b81526001600160a01b0386811660048301529091602091839187918391165afa9081156126205787916125ee575b50601e8111611da057506001600160a01b03841686526006602052604086205490915081166005811015611d8d57600214159081611d4e575b5061196c575b50505080f35b6040519261197984612adc565b601c84527f53636f72652062656c6f7720736576657265207468726573686f6c64000000006020808601919091526001546040519283526001600160a01b03858116600485015283918591839160081c165afa8015611d0757600090611d13575b6119e491506132f1565b6001600160a01b038281166000908152600660205260409020805460ff191660029081179091555416803b15610da957604051633f9ebffd60e11b81526001600160a01b038416600482015260311983820152906000908290604490829084905af18015611d0757611cf8575b5060055490611a5f82613357565b60055560405190611a6f82612ac1565b60018060a01b038416825260208201906002825260408301868152426060850152336080850152600060a085015284600052600460205260406000209260018060a01b03855116845491516005811015611ce3576001600160a81b03199092161760a09190911b60ff60a01b16178355518051916001600160401b038311611ccf5750611aff6001840154612a5e565b601f8111611c88575b50602090601f8311600114611c01579282600080516020613419833981519152979593600393611beb9896600092611bf6575b505060001982851b1c1916600191821b17908201555b60608301516002820155019060018060a01b0360808201511682549160a060ff811b910151151560a01b16916001600160581b0360a81b16171790556040516002815260406020820152339160008051602061345983398151915260018060a01b0385169280611bc4604082018b612bfc565b0390a4604051918291600283526040602084015260018060a01b0316946040830190612bfc565b0390a2388080611966565b015190503880611b3b565b906001840160005260206000209160005b601f1985168110611c70575083600393611beb9896936001936000805160206134198339815191529b9997601f19811610611c58575b505050811b016001820155611b51565b015160001983871b60f8161c19169055388080611c48565b91926020600181928685015181550194019201611c12565b600184016000526020600020601f840160051c810160208510611cc8575b601f830160051c82018110611cbc575050611b08565b60008155600101611ca6565b5080611ca6565b634e487b7160e01b60009081526041600452fd5b84634e487b7160e01b60005260216004526000fd5b611d0190612a98565b38611a51565b6040513d6000823e3d90fd5b6020823d602011611d46575b81611d2c60209383612b12565b810103126102555750611d416119e4916132e4565b6119da565b3d9150611d1f565b6001600160a01b0384168652600660205260408620541690506005811015611d7a576003141538611960565b50634e487b7160e01b8452602160045283fd5b634e487b7160e01b865260216004528286fd5b6032811161220f57506001600160a01b03841686526006602052604086205490915081166005811015611d8d576001141590816121e1575b816121b5575b50611de95750505080f35b604051926001600160401b039060608501828111868210176121a057604052602185527f53636f72652062656c6f77207265737472696374696f6e207468726573686f6c6020860152601960fa1b6040860152602060018060a01b0360015460081c16918460405180948193825260018060a01b03891660048301525afa8015611d0757600090612165575b611e7f91506132f1565b6001600160a01b038381166000908152600660205260409020805460ff1916600117905560025416803b15610da957604051633f9ebffd60e11b81526001600160a01b038516600482015260181984820152906000908290604490829084905af18015611d0757612156575b5060055491611ef983613357565b60055560405191611f0983612ac1565b60018060a01b038516835260208301916001835260408401878152426060860152336080860152600060a086015285600052600460205260406000209360018060a01b03865116855491516005811015611ce35760ff60a01b9060a01b16916001600160581b0360a81b161717845551908151928311611ccf5750611f916001840154612a5e565b601f811161210f575b50602090601f8311600114612088579282600080516020613419833981519152979593600393611beb989660009261207d575b505060001982851b1c1916600191821b17908201555b60608301516002820155019060018060a01b0360808201511682549160a060ff811b910151151560a01b16916001600160581b0360a81b16171790556040516001815260406020820152339160008051602061345983398151915260018060a01b0385169280612056604082018b612bfc565b0390a4604051918291600183526040602084015260018060a01b0316946040830190612bfc565b015190503880611fcd565b906001840160005260206000209160005b601f19851681106120f7575083600393611beb9896936001936000805160206134198339815191529b9997601f198116106120df575b505050811b016001820155611fe3565b015160001983871b60f8161c191690553880806120cf565b91926020600181928685015181550194019201612099565b600184016000526020600020601f840160051c81016020851061214f575b601f830160051c82018110612143575050611f9a565b6000815560010161212d565b508061212d565b61215f90612a98565b38611eeb565b6020823d602011612198575b8161217e60209383612b12565b810103126102555750612193611e7f916132e4565b611e75565b3d9150612171565b83634e487b7160e01b60005260416004526000fd5b6001600160a01b0384168652600660205260408620541690506005811015611d7a576003141538611dde565b6001600160a01b03841686526006602052604086205490915081166005811015611d8d576002141590611dd8565b60461015612220575b505050505080f35b6001600160a01b038416865260066020526040862054166005811015611d8d5760041461224e575b80612218565b60206040519461225d86612adc565b601d86527f53636f72652062656c6f77207761726e696e67207468726573686f6c64000000828701526040519081526001600160a01b0385166004820152918290849082905afa8015611d07576000906125b3575b6122bc91506132f1565b6001600160a01b038281166000908152600660205260409020805460ff1916905560025416803b15610da957604051633f9ebffd60e11b81526001600160a01b038416600482015260091983820152906000908290604490829084905af18015611d07576125a4575b506005549061233382613357565b6005556040519061234382612ac1565b60018060a01b038416825260208201906000825260408301868152426060850152336080850152600060a085015284600052600460205260406000209260018060a01b03855116845491516005811015611ce3576001600160a81b03199092161760a09190911b60ff60a01b16178355518051916001600160401b038311611ccf57506123d36001840154612a5e565b601f811161255d575b50602090601f83116001146124d65792826000805160206134198339815191529795936003936124bf98966000926124cb575b505060001982851b1c1916600191821b17908201555b60608301516002820155019060018060a01b0360808201511682549160a060ff811b910151151560a01b16916001600160581b0360a81b16171790556040516000815260406020820152339160008051602061345983398151915260018060a01b0385169280612498604082018b612bfc565b0390a4604051918291600083526040602084015260018060a01b0316946040830190612bfc565b0390a238808080612248565b01519050388061240f565b906001840160005260206000209160005b601f19851681106125455750836003936124bf9896936001936000805160206134198339815191529b9997601f1981161061252d575b505050811b016001820155612425565b015160001983871b60f8161c1916905538808061251d565b919260206001819286850151815501940192016124e7565b600184016000526020600020601f840160051c81016020851061259d575b601f830160051c820181106125915750506123dc565b6000815560010161257b565b508061257b565b6125ad90612a98565b38612325565b6020823d6020116125e6575b816125cc60209383612b12565b8101031261025557506125e16122bc916132e4565b6122b2565b3d91506125bf565b90506020813d602011612618575b8161260960209383612b12565b81010312610da9575138611927565b3d91506125fc565b6040513d89823e3d90fd5b506020813d602011612662575b8161264560209383612b12565b8101031261265e576126596118eb916132e4565b6118e1565b8680fd5b3d9150612638565b60405162461bcd60e51b815260206004820152603460248201527f4d6f64657261746f72436f6e74726f6c3a2043616c6c6572206d757374206265604482015273206d6f64657261746f72206f72206f7261636c6560601b6064820152608490fd5b507f68e79a7bf1e0bc45d0a330c573bc367f9cf464fd326078812f301165fbda4ef183528260205260408320336000526020528160406000205416611892565b503461025557604036600319011261025557612726612a0f565b6024908135600481101561030e5761273c612cc0565b6127446132a0565b60018060a01b038060015460081c16906040519363237f1a2160e01b8552169384600485015260209384818381865afa90811561262057879161294a575b50156128f557604051633288df9760e11b8152600481018690529184838381845afa9283156126205787936128c6575b50821561286c57908187923b1561098b576127ea9383604492604051968795869463e96bc10d60e01b8652600486015284018961340b565b5af180156128615761282c575b50907f16a881d7c4b7d05d38f2860d95f489395b7e069bc239582175419b8e7985b6a291612828604051809261340b565ba280f35b936128597f16a881d7c4b7d05d38f2860d95f489395b7e069bc239582175419b8e7985b6a2939295612a98565b9390916127f7565b6040513d87823e3d90fd5b60405162461bcd60e51b815260048101869052602d818401527f4d6f64657261746f72436f6e74726f6c3a20546f6b656e204944206e6f74206660448201526c37bab732103337b9103ab9b2b960991b6064820152608490fd5b9092508481813d83116128ee575b6128de8183612b12565b8101031261265e575191386127b2565b503d6128d4565b8360296084926040519262461bcd60e51b845260048401528201527f4d6f64657261746f72436f6e74726f6c3a204964656e7469747920646f6573206044820152681b9bdd08195e1a5cdd60ba1b6064820152fd5b90508481813d8311612978575b6129618183612b12565b8101031261265e57612972906132e4565b38612782565b503d612957565b503461025557806003193601126102555760206040517f68e79a7bf1e0bc45d0a330c573bc367f9cf464fd326078812f301165fbda4ef18152f35b9050346104835760203660031901126104835760043563ffffffff60e01b811680910361098b5760209250637965db0b60e01b81149081156129fe575b5015158152f35b6301ffc9a760e01b149050386129f7565b600435906001600160a01b0382168203610da957565b602435906001600160a01b0382168203610da957565b906005821015612a485752565b634e487b7160e01b600052602160045260246000fd5b90600182811c92168015612a8e575b6020831014612a7857565b634e487b7160e01b600052602260045260246000fd5b91607f1691612a6d565b6001600160401b038111612aab57604052565b634e487b7160e01b600052604160045260246000fd5b60c081019081106001600160401b03821117612aab57604052565b604081019081106001600160401b03821117612aab57604052565b608081019081106001600160401b03821117612aab57604052565b90601f801991011681019081106001600160401b03821117612aab57604052565b9060405191826000825492612b4784612a5e565b908184526001948581169081600014612bb65750600114612b73575b5050612b7192500383612b12565b565b9093915060005260209081600020936000915b818310612b9e575050612b7193508201013880612b63565b85548884018501529485019487945091830191612b86565b915050612b7194506020925060ff191682840152151560051b8201013880612b63565b60005b838110612bec5750506000910152565b8181015183820152602001612bdc565b90602091612c1581518092818552858086019101612bd9565b601f01601f1916010190565b94909160a094979693612c46612c5792600180891b0380961689526020890190612a3b565b60c0604088015260c0870190612bfc565b9660608601521660808401521515910152565b81601f82011215610da9578035906001600160401b038211612aab5760405192612c9e601f8401601f191660200185612b12565b82845260208383010111610da957816000926020809301838601378301015290565b3360009081527ff179aafcc4ff8137fca1ef3b9ec4d165f87016ba123e7973fba770bc55e240e3602090815260408083205490926000805160206134398339815191529160ff1615612d125750505050565b612d1b33613192565b91845190612d2882612af7565b60428252848201926060368537825115612eb55760308453825190600191821015612eb55790607860218501536041915b818311612e4757505050612e05576048612e01938693612de593612dd6985198899376020b1b1b2b9b9a1b7b73a3937b61d1030b1b1b7bab73a1604d1b8a860152612dad815180928c603789019101612bd9565b8401917001034b99036b4b9b9b4b733903937b6329607d1b603784015251809386840190612bd9565b01036028810187520185612b12565b5192839262461bcd60e51b845260048401526024830190612bfc565b0390fd5b60648486519062461bcd60e51b825280600483015260248201527f537472696e67733a20686578206c656e67746820696e73756666696369656e746044820152fd5b909192600f81166010811015612ea1576f181899199a1a9b1b9c1cb0b131b232b360811b901a612e77858761316b565b5360041c928015612e8d57600019019190612d59565b634e487b7160e01b82526011600452602482fd5b634e487b7160e01b83526032600452602483fd5b634e487b7160e01b81526032600452602490fd5b3360009081527fad3228b676f7d3cd4284a5443f17f1962b36e491b30a40b2405849e597ba5fb5602090815260408083205490929060ff1615612f0b57505050565b612f1433613192565b9080845190612f2282612af7565b60428252848201926060368537825115612eb55760308453825190600191821015612eb55790607860218501536041915b818311612fa757505050612e05576048612e01938693612de593612dd6985198899376020b1b1b2b9b9a1b7b73a3937b61d1030b1b1b7bab73a1604d1b8a860152612dad815180928c603789019101612bd9565b909192600f81166010811015612ea1576f181899199a1a9b1b9c1cb0b131b232b360811b901a612fd7858761316b565b5360041c928015612e8d57600019019190612f53565b600090808252602090828252604092838120338252835260ff8482205416156130165750505050565b61301f33613192565b9184519061302c82612af7565b60428252848201926060368537825115612eb55760308453825190600191821015612eb55790607860218501536041915b8183116130b157505050612e05576048612e01938693612de593612dd6985198899376020b1b1b2b9b9a1b7b73a3937b61d1030b1b1b7bab73a1604d1b8a860152612dad815180928c603789019101612bd9565b909192600f81166010811015612ea1576f181899199a1a9b1b9c1cb0b131b232b360811b901a6130e1858761316b565b5360041c928015612e8d5760001901919061305d565b9060009180835282602052604083209160018060a01b03169182845260205260ff60408420541661312757505050565b80835282602052604083208284526020526040832060ff1981541690557ff6391f5c32d9c69d2a47ea670b442974b53935d1edc7fd64eb21e047a839171b339380a4565b90815181101561317c570160200190565b634e487b7160e01b600052603260045260246000fd5b60405190606082018281106001600160401b03821117612aab57604052602a825260208201604036823782511561317c5760309053815160019081101561317c57607860218401536029905b8082116132325750506131ee5790565b606460405162461bcd60e51b815260206004820152602060248201527f537472696e67733a20686578206c656e67746820696e73756666696369656e746044820152fd5b9091600f8116601081101561328b576f181899199a1a9b1b9c1cb0b131b232b360811b901a613261848661316b565b5360041c9180156132765760001901906131de565b60246000634e487b7160e01b81526011600452fd5b60246000634e487b7160e01b81526032600452fd5b60ff600154166132ac57565b60405162461bcd60e51b815260206004820152601060248201526f14185d5cd8589b194e881c185d5cd95960821b6044820152606490fd5b51908115158203610da957565b156132f857565b60405162461bcd60e51b815260206004820152603160248201527f4d6f64657261746f72436f6e74726f6c3a2055736572206d7573742068617665604482015270206469676974616c206964656e7469747960781b6064820152608490fd5b60001981146133665760010190565b634e487b7160e01b600052601160045260246000fd5b6001600160401b038111612aab5760051b60200190565b604051602081018181106001600160401b03821117612aab576040526000815290565b90815180825260208092019182818360051b85019501936000915b8483106133e15750505050505090565b90919293949584806133fb83856001950387528a51612bfc565b98019301930191949392906133d1565b906004821015612a48575256fe63625427dded57351cfa3cebcc398df9ab7599624ccfabd8639e5c540b2cdb6f71f3d55856e4058ed06ee057d79ada615f65cdf5f9ee88181b914225088f834f06640ababfaad5e515ddcbaef7bd4bc48554328c59e873642086a7c22adaff16a26469706673582212209373c64f01615c9ecfb9d82c83f96b9b11c238ee7c01da5df6f1eb261184f22464736f6c634300081300332f8788117e7eff1d82e926ec794901d17c78024a50270940304540a733656f0d",
  "linkReferences": {},
  "deployedLinkReferences": {}
}