{
  "_format": "hh-sol-artifact-1",
  "contractName": "MultiFactorAuth",
  "sourceName": "contracts/MultiFactorAuth.sol",
  "abi": [
    {
      "inputs": [
        {
          "internalType": "address",
          "name": "_digitalIdentity",
          "type": "address"
        }
      ],
      "stateMutability": "nonpayable",
      "type": "constructor"
    },
    {
      "anonymous": false,
      "inputs": [
        {
          "indexed": true,
          "internalType": "address",
          "name": "user",
          "type": "address"
        },
        {
          "indexed": false,
          "internalType": "enum MultiFactorAuth.FactorType",
          "name": "factor",
          "type": "uint8"
        }
      ],
      "name": "FactorAdded",
      "type": "event"
    },
    {
      "anonymous": false,
      "inputs": [
        {
          "indexed": true,
          "internalType": "address",
          "name": "user",
          "type": "address"
        },
        {
          "indexed": false,
          "internalType": "enum MultiFactorAuth.FactorType",
          "name": "factor",
          "type": "uint8"
        }
      ],
      "name": "FactorRemoved",
      "type": "event"
    },
    {
      "anonymous": false,
      "inputs": [
        {
          "indexed": true,
          "internalType": "address",
          "name": "user",
          "type": "address"
        },
        {
          "indexed": false,
          "internalType": "enum MultiFactorAuth.FactorType",
          "name": "factor",
          "type": "uint8"
        }
      ],
      "name": "FactorVerified",
      "type": "event"
    },
    {
      "anonymous": false,
      "inputs": [
        {
          "indexed": true,
          "internalType": "address",
          "name": "user",
          "type": "address"
        }
      ],
      "name": "MFADisabled",
      "type": "event"
    },
    {
      "anonymous": false,
      "inputs": [
        {
          "indexed": true,
          "internalType": "address",
          "name": "user",
          "type": "address"
        },
        {
          "indexed": false,
          "internalType": "enum MultiFactorAuth.FactorType[]",
          "name": "factors",
          "type": "uint8[]"
        }
      ],
      "name": "MFAEnabled",
      "type": "event"
    },
    {
      "anonymous": false,
      "inputs": [
        {
          "indexed": false,
          "internalType": "address",
          "name": "account",
          "type": "address"
        }
      ],
      "name": "Paused",
      "type": "event"
    },
    {
      "anonymous": false,
      "inputs": [
        {
          "indexed": true,
          "internalType": "bytes32",
          "name": "role",
          "type": "bytes32"
        },
        {
          "indexed": true,
          "internalType": "bytes32",
          "name": "previousAdminRole",
          "type": "bytes32"
        },
        {
          "indexed": true,
          "internalType": "bytes32",
          "name": "newAdminRole",
          "type": "bytes32"
        }
      ],
      "name": "RoleAdminChanged",
      "type": "event"
    },
    {
      "anonymous": false,
      "inputs": [
        {
          "indexed": true,
          "internalType": "bytes32",
          "name": "role",
          "type": "bytes32"
        },
        {
          "indexed": true,
          "internalType": "address",
          "name": "account",
          "type": "address"
        },
        {
          "indexed": true,
          "internalType": "address",
          "name": "sender",
          "type": "address"
        }
      ],
      "name": "RoleGranted",
      "type": "event"
    },
    {
      "anonymous": false,
      "inputs": [
        {
          "indexed": true,
          "internalType": "bytes32",
          "name": "role",
          "type": "bytes32"
        },
        {
          "indexed": true,
          "internalType": "address",
          "name": "account",
          "type": "address"
        },
        {
          "indexed": true,
          "internalType": "address",
          "name": "sender",
          "type": "address"
        }
      ],
      "name": "RoleRevoked",
      "type": "event"
    },
    {
      "anonymous": false,
      "inputs": [
        {
          "indexed": true,
          "internalType": "address",
          "name": "user",
          "type": "address"
        },
        {
          "indexed": false,
          "internalType": "bytes32",
          "name": "sessionId",
          "type": "bytes32"
        }
      ],
      "name": "SessionCompleted",
      "type": "event"
    },
    {
      "anonymous": false,
      "inputs": [
        {
          "indexed": true,
          "internalType": "address",
          "name": "user",
          "type": "address"
        },
        {
          "indexed": false,
          "internalType": "bytes32",
          "name": "sessionId",
          "type": "bytes32"
        }
      ],
      "name": "SessionCreated",
      "type": "event"
    },
    {
      "anonymous": false,
      "inputs": [
        {
          "indexed": false,
          "internalType": "address",
          "name": "account",
          "type": "address"
        }
      ],
      "name": "Unpaused",
      "type": "event"
    },
    {
      "inputs": [],
      "name": "DEFAULT_ADMIN_ROLE",
      "outputs": [
        {
          "internalType": "bytes32",
          "name": "",
          "type": "bytes32"
        }
      ],
      "stateMutability": "view",
      "type": "function"
    },
    {
      "inputs": [],
      "name": "MFA_VERIFIER_ROLE",
      "outputs": [
        {
          "internalType": "bytes32",
          "name": "",
          "type": "bytes32"
        }
      ],
      "stateMutability": "view",
      "type": "function"
    },
    {
      "inputs": [
        {
          "internalType": "enum MultiFactorAuth.FactorType",
          "name": "factor",
          "type": "uint8"
        }
      ],
      "name": "addFactor",
      "outputs": [],
      "stateMutability": "nonpayable",
      "type": "function"
    },
    {
      "inputs": [
        {
          "internalType": "address",
          "name": "",
          "type": "address"
        }
      ],
      "name": "currentSession",
      "outputs": [
        {
          "internalType": "bytes32",
          "name": "sessionId",
          "type": "bytes32"
        },
        {
          "internalType": "uint256",
          "name": "timestamp",
          "type": "uint256"
        },
        {
          "internalType": "uint256",
          "name": "expiryTime",
          "type": "uint256"
        },
        {
          "internalType": "bool",
          "name": "isValid",
          "type": "bool"
        }
      ],
      "stateMutability": "view",
      "type": "function"
    },
    {
      "inputs": [],
      "name": "digitalIdentity",
      "outputs": [
        {
          "internalType": "contract IDigitalIdentityNFT",
          "name": "",
          "type": "address"
        }
      ],
      "stateMutability": "view",
      "type": "function"
    },
    {
      "inputs": [],
      "name": "disableMFA",
      "outputs": [],
      "stateMutability": "nonpayable",
      "type": "function"
    },
    {
      "inputs": [
        {
          "internalType": "enum MultiFactorAuth.FactorType[]",
          "name": "factors",
          "type": "uint8[]"
        }
      ],
      "name": "enableMFA",
      "outputs": [],
      "stateMutability": "nonpayable",
      "type": "function"
    },
    {
      "inputs": [
        {
          "internalType": "address",
          "name": "user",
          "type": "address"
        }
      ],
      "name": "getEnabledFactors",
      "outputs": [
        {
          "internalType": "enum MultiFactorAuth.FactorType[]",
          "name": "",
          "type": "uint8[]"
        }
      ],
      "stateMutability": "view",
      "type": "function"
    },
    {
      "inputs": [
        {
          "internalType": "bytes32",
          "name": "role",
          "type": "bytes32"
        }
      ],
      "name": "getRoleAdmin",
      "outputs": [
        {
          "internalType": "bytes32",
          "name": "",
          "type": "bytes32"
        }
      ],
      "stateMutability": "view",
      "type": "function"
    },
    {
      "inputs": [
        {
          "internalType": "address",
          "name": "user",
          "type": "address"
        }
      ],
      "name": "getSessionStatus",
      "outputs": [
        {
          "internalType": "bool",
          "name": "isValid",
          "type": "bool"
        },
        {
          "internalType": "uint256",
          "name": "timestamp",
          "type": "uint256"
        },
        {
          "internalType": "uint256",
          "name": "expiryTime",
          "type": "uint256"
        },
        {
          "internalType": "enum MultiFactorAuth.FactorType[]",
          "name": "completedFactors",
          "type": "uint8[]"
        }
      ],
      "stateMutability": "view",
      "type": "function"
    },
    {
      "inputs": [
        {
          "internalType": "bytes32",
          "name": "role",
          "type": "bytes32"
        },
        {
          "internalType": "address",
          "name": "account",
          "type": "address"
        }
      ],
      "name": "grantRole",
      "outputs": [],
      "stateMutability": "nonpayable",
      "type": "function"
    },
    {
      "inputs": [
        {
          "internalType": "bytes32",
          "name": "role",
          "type": "bytes32"
        },
        {
          "internalType": "address",
          "name": "account",
          "type": "address"
        }
      ],
      "name": "hasRole",
      "outputs": [
        {
          "internalType": "bool",
          "name": "",
          "type": "bool"
        }
      ],
      "stateMutability": "view",
      "type": "function"
    },
    {
      "inputs": [
        {
          "internalType": "address",
          "name": "",
          "type": "address"
        }
      ],
      "name": "mfaStatus",
      "outputs": [
        {
          "internalType": "bool",
          "name": "isEnabled",
          "type": "bool"
        },
        {
          "internalType": "uint256",
          "name": "lastVerified",
          "type": "uint256"
        },
        {
          "internalType": "address",
          "name": "verifier",
          "type": "address"
        }
      ],
      "stateMutability": "view",
      "type": "function"
    },
    {
      "inputs": [],
      "name": "pause",
      "outputs": [],
      "stateMutability": "nonpayable",
      "type": "function"
    },
    {
      "inputs": [],
      "name": "paused",
      "outputs": [
        {
          "internalType": "bool",
          "name": "",
          "type": "bool"
        }
      ],
      "stateMutability": "view",
      "type": "function"
    },
    {
      "inputs": [
        {
          "internalType": "enum MultiFactorAuth.FactorType",
          "name": "factor",
          "type": "uint8"
        }
      ],
      "name": "removeFactor",
      "outputs": [],
      "stateMutability": "nonpayable",
      "type": "function"
    },
    {
      "inputs": [
        {
          "internalType": "bytes32",
          "name": "role",
          "type": "bytes32"
        },
        {
          "internalType": "address",
          "name": "account",
          "type": "address"
        }
      ],
      "name": "renounceRole",
      "outputs": [],
      "stateMutability": "nonpayable",
      "type": "function"
    },
    {
      "inputs": [
        {
          "internalType": "bytes32",
          "name": "role",
          "type": "bytes32"
        },
        {
          "internalType": "address",
          "name": "account",
          "type": "address"
        }
      ],
      "name": "revokeRole",
      "outputs": [],
      "stateMutability": "nonpayable",
      "type": "function"
    },
    {
      "inputs": [],
      "name": "startAuthSession",
      "outputs": [
        {
          "internalType": "bytes32",
          "name": "",
          "type": "bytes32"
        }
      ],
      "stateMutability": "nonpayable",
      "type": "function"
    },
    {
      "inputs": [
        {
          "internalType": "bytes4",
          "name": "interfaceId",
          "type": "bytes4"
        }
      ],
      "name": "supportsInterface",
      "outputs": [
        {
          "internalType": "bool",
          "name": "",
          "type": "bool"
        }
      ],
      "stateMutability": "view",
      "type": "function"
    },
    {
      "inputs": [],
      "name": "unpause",
      "outputs": [],
      "stateMutability": "nonpayable",
      "type": "function"
    },
    {
      "inputs": [
        {
          "internalType": "bytes32",
          "name": "",
          "type": "bytes32"
        }
      ],
      "name": "usedChallenges",
      "outputs": [
        {
          "internalType": "bool",
          "name": "",
          "type": "bool"
        }
      ],
      "stateMutability": "view",
      "type": "function"
    },
    {
      "inputs": [
        {
          "internalType": "enum MultiFactorAuth.FactorType",
          "name": "factor",
          "type": "uint8"
        },
        {
          "internalType": "bytes32",
          "name": "challenge",
          "type": "bytes32"
        },
        {
          "internalType": "bytes",
          "name": "signature",
          "type": "bytes"
        }
      ],
      "name": "verifyFactor",
      "outputs": [],
      "stateMutability": "nonpayable",
      "type": "function"
    }
  ],
  "bytecode": "0x6080346200015b57601f620024db38819003918201601f1916830192916001600160401b038411838510176200016057808392604095865283396020928391810103126200015b57516001600160a01b03811681036200015b57600180546001600160a81b03191660089290921b610100600160a81b0316919091179055600080805280825282812033825282528281205460ff161562000123575b7f444d45243fd4fa9f9c79ab47b3862072a1b727e5a44be32e8d5076521b60807f91828252818152838220338352815260ff848320541615620000e8575b83516123449081620001778239f35b8282528181528382209033835252828120600160ff198254161790553391600080516020620024bb833981519152339280a4388080620000d9565b8080528082528281203382528252828120600160ff19825416179055333382600080516020620024bb8339815191528180a46200009b565b600080fd5b634e487b7160e01b600052604160045260246000fdfe608060408181526004918236101561001657600080fd5b600092833560e01c91826301ffc9a71461119e5750838263053518f31461111e575081630763d7d014610ed45781630c17983214610ea8578163101cff4e14610e6d578163248a9ca314610e435781632f2ff15d14610d9a5781633599cfda14610c7657816335f9e864146108e6578163362f75841461088e57816336568abe146107fc578163378b8dea146107855781633f4ba83a146106ef578163406181f1146105eb5781635c975abb146105c75781638456cb591461056d57816387d28f1d1461051757816391d14854146104d1578163951bde6d1461020f578163a217fddf146101f4578163a8b527bb146101c7578163d547741f14610185575063fca9d72d1461012457600080fd5b346101815760203660031901126101815760809181906001600160a01b0361014a61120c565b1681526003602052209081549160018101549160ff6003600284015493015416928151948552602085015283015215156060820152f35b5080fd5b919050346101c357806003193601126101c3576101c091356101bb60016101aa6111f1565b9383875286602052862001546114e7565b611615565b80f35b8280fd5b505034610181578160031936011261018157600154905160089190911c6001600160a01b03168152602090f35b50503461018157816003193601126101815751908152602090f35b83833461018157602090816003193601126101c35783359167ffffffffffffffff908184116104cd57366023850112156104cd57838601359182116104cd57602495868501948736918560051b0101116104c95761026b6118b4565b60018054855163237f1a2160e01b8152338482015291989190849082908490829060081c6001600160a01b03165afa9081156104bf578891610489575b5015610449573387526002835260ff85882054166104135783156103dc5750338652600282528386209060ff19888184541617835587918984019301915b858110610362575050505090825192818385018486525283019391855b8281106103355786337f76cf4f9729c557b103ca8c6cbee9459f59d5ba55792075c86ab5c0e29d6420b287890388a280f35b909192948535600681101561035e5783826103528b948394611276565b01960193929101610303565b8780fd5b61036d81878a6117e4565b35600690818110156103d8576103849015156117f4565b61038f82888b6117e4565b35818110156103d8576103a29086611872565b6103ad82888b6117e4565b35908110156103d457906103c46103cf928561189c565b8381541690556117bf565b6102e6565b8980fd5b8a80fd5b60149060649386519362461bcd60e51b855284015282015273139bc8199858dd1bdc9cc81cdc1958da599a595960621b6044820152fd5b60139060649386519362461bcd60e51b85528401528201527213519048185b1c9958591e48195b98589b1959606a1b6044820152fd5b601a9060649386519362461bcd60e51b85528401528201527f4d7573742068617665206469676974616c206964656e746974790000000000006044820152fd5b90508381813d83116104b8575b6104a08183611254565b8101031261035e5751801515810361035e57896102a8565b503d610496565b86513d8a823e3d90fd5b8580fd5b8480fd5b9050346101c357816003193601126101c3578160209360ff926104f26111f1565b903582528186528282206001600160a01b039091168252855220549151911615158152f35b50503461018157602036600319011261018157610569916105569060019083906001600160a01b0361054761120c565b16815260026020522001611bb8565b9051918291602083526020830190611299565b0390f35b50503461018157816003193601126101815760207f62e78cea01bee320cd4e420270b5ea74000d11b0c9f74754ebdbfc544b05a258916105ab6112d9565b6105b36118b4565b600160ff198154161760015551338152a180f35b50503461018157816003193601126101815760209060ff6001541690519015158152f35b919050346101c357602090816003193601126106eb5782359260068410156104cd576106156118b4565b3385526002835261062b60ff83872054166118f8565b6106368415156117f4565b3385526002835260ff61064d85838589200161189c565b54166106b1577f04ba4ac669fd45fdcf5088ff7a9eb4121824e7bbf60020a9b82cf5edeaa0d8f4929161069b856106ab93338952600286528389206106958360018301611872565b0161189c565b60ff198154169055518094611276565b3392a280f35b82606492519162461bcd60e51b83528201526016602482015275119858dd1bdc88185b1c9958591e48195b98589b195960521b6044820152fd5b8380fd5b9050346101c357826003193601126101c3576107096112d9565b6001549060ff82161561074b575060ff1916600155513381527f5db9ee0a495bf2e6ff9c91a7834c1ba4fdd244a5e8aa4e537bd38aeae4b073aa90602090a180f35b606490602084519162461bcd60e51b8352820152601460248201527314185d5cd8589b194e881b9bdd081c185d5cd95960621b6044820152fd5b8284346107f95760203660031901126107f9576105699082906001600160a01b036107ae61120c565b1681526003602052209160ff600384015416926107d660018201549560028301549201611bb8565b918051958695151586526020860152840152608060608401526080830190611299565b80fd5b839150346101815782600319360112610181576108176111f1565b90336001600160a01b0383160361083357906101c09135611615565b608490602085519162461bcd60e51b8352820152602f60248201527f416363657373436f6e74726f6c3a2063616e206f6e6c792072656e6f756e636560448201526e103937b632b9903337b91039b2b63360891b6064820152fd5b505034610181576020366003190112610181576060916001600160a01b0391908190836108b961120c565b1681526002602052209060ff82541692600360028401549301541691815193151584526020840152820152f35b9050346101c35760603660031901126101c35780359060068210156106eb57602491604480359267ffffffffffffffff92918535848611610c725736602387011215610c72578583013595858711610c6057898951916020986109528a601f19601f8401160185611254565b808452368b82840101116101c357808b8b930183860137830101526109756118b4565b338a526002875261098b60ff8a8c2054166118f8565b338a5260039586885260ff878b8d2001541615610c2b57338b5286885260028a8c2001544211610bf757828b5284885260ff8a8c205416610bbc578951888101913360601b83528760f81b603483015284603583015260358252606082019082821090821117610baa578b525190207f19457468657265756d205369676e6564204d6573736167653a0a3332000000008b52601c52603c8a20610a3991610a3191611a75565b919091611971565b336001600160a01b0390911603610b755733895284865287892091600583019760ff610a65878b61189c565b5416610b35575050918391610aa2938a52818752610a93838a8c209960ff199a60018c82541617905561189c565b60018982541617905501611872565b610aae85518092611276565b7fc311179cd17cac10206993ad0009b804e6fa789680317f70daaf10b34a3cf2d4833392a2610adc33611b3c565b610ae4578480f35b7fb810074b779a12a880a5509926386ebe17eacc32f4b6b309b1e56928b0afc37e923386528183528486209182019081541690556002825242600285872001555492519283523392a2388080808480f35b7f466163746f7220616c726561647920636f6d706c657465640000000000000000606492601887938b8e519562461bcd60e51b8752860152840152820152fd5b875162461bcd60e51b815280840187905260118189015270496e76616c6964207369676e617475726560781b81840152606490fd5b634e487b7160e01b8d52604187528a8dfd5b50885162461bcd60e51b81528085018890526016818a01527510da185b1b195b99d948185b1c9958591e481d5cd95960521b81850152606490fd5b50885162461bcd60e51b8152808501889052600f818a01526e14d95cdcda5bdb88195e1c1a5c9959608a1b81850152606490fd5b50885162461bcd60e51b81528085018890526010818a01526f2737903b30b634b21039b2b9b9b4b7b760811b81850152606490fd5b634e487b7160e01b8a5260418452878afd5b8880fd5b838334610181578160031936011261018157610c906118b4565b3382526002602052610ca760ff82842054166118f8565b6000194301438111610d8757815160208101913360601b8352426034830152406054820152605481526080810181811067ffffffffffffffff821117610d7457835251902091338152600360205281812090838255426001830155610384420190814211610d615750600282015560038101805460ff19166001179055602093610d319101611936565b80518281527f85f3418b2e710f74a1895704c48f20a4bcc07c0b843aff32abc2b64766dae54a843392a251908152f35b634e487b7160e01b815260118652602490fd5b634e487b7160e01b855260418652602485fd5b634e487b7160e01b835260118452602483fd5b9050346101c357816003193601126101c3573590610db66111f1565b9082845283602052610dcd600182862001546114e7565b82845260208481528185206001600160a01b039093168086529290528084205460ff1615610df9578380f35b828452836020528084208285526020528320600160ff1982541617905533917f2f8788117e7eff1d82e926ec794901d17c78024a50270940304540a733656f0d8480a43880808380f35b9050346101c35760203660031901126101c357816020936001923581528085522001549051908152f35b505034610181578160031936011261018157602090517f444d45243fd4fa9f9c79ab47b3862072a1b727e5a44be32e8d5076521b60807f8152f35b9050346101c35760203660031901126101c357816020938260ff93358252855220541690519015158152f35b919050346101c357602090816003193601126106eb5782359260069081851015918261111a57610f026118b4565b3387526002855260ff610f1981868a2054166118f8565b33885260028652600180868a20015411156110d75791879391879333865260028852868620936001850190815490885b828110610fa8575b50505050505082600583610f917fe956c652d431f68a3838ffa38be2c12e05b3846cfe316e3182bb94d5794fa095999896610f9f956106ab99970161189c565b805460ff191690550161189c565b55518094611276565b919395975091939597508482610fbe8387611831565b929054600393841b1c16906110c457878110156110c4578c14610ff45750610fe5906117bf565b918b979593918b979593610f49565b9550905060009a99989796959a93929319918281019081116110b15790611030846110226110369488611831565b905490891b1c169186611831565b90611851565b8254801561109e5794610f91898b9c819c97610f9f977fe956c652d431f68a3838ffa38be2c12e05b3846cfe316e3182bb94d5794fa0959d976005976106ab9d9c01926110838484611831565b81939154921b1b19169055559581989a9b5083979950610f51565b634e487b7160e01b8a5260318b5260248afd5b634e487b7160e01b8b5260118c5260248bfd5b634e487b7160e01b8e526021895260248efd5b845162461bcd60e51b8152808401879052601960248201527f43616e6e6f742072656d6f7665206c61737420666163746f72000000000000006044820152606490fd5b8680fd5b80843461119b578160031936011261119b5760039061113b6118b4565b338352600260205261115260ff82852054166118f8565b3383526002602052822082815561116b60018201611936565b8260028201550155337f7a146c6d6578acec91e6f3f4afddbba61d50a19aecf2cedf2753fa04168b61878280a280f35b50fd5b8491346101c35760203660031901126101c3573563ffffffff60e01b81168091036101c35760209250637965db0b60e01b81149081156111e0575b5015158152f35b6301ffc9a760e01b149050836111d9565b602435906001600160a01b038216820361120757565b600080fd5b600435906001600160a01b038216820361120757565b6080810190811067ffffffffffffffff82111761123e57604052565b634e487b7160e01b600052604160045260246000fd5b90601f8019910116810190811067ffffffffffffffff82111761123e57604052565b9060068210156112835752565b634e487b7160e01b600052602160045260246000fd5b90815180825260208080930193019160005b8281106112b9575050505090565b909192938280826112cd6001948951611276565b019501939291016112ab565b3360009081527fad3228b676f7d3cd4284a5443f17f1962b36e491b30a40b2405849e597ba5fb560209081526040808320549092919060ff161561131c57505050565b611325336116b0565b83518361133182611222565b604282528382019460603687378251156114d357603086538251906001918210156114d35790607860218501536041915b8183116114655750505061142357846113f160486114159360449798519889916113e28984019876020b1b1b2b9b9a1b7b73a3937b61d1030b1b1b7bab73a1604d1b8a526113b9815180928d6037890191016115f2565b8401917001034b99036b4b9b9b4b733903937b6329607d1b6037840152518093868401906115f2565b01036028810189520187611254565b5194859362461bcd60e51b85526004850152518092816024860152858501906115f2565b601f01601f19168101030190fd5b60648386519062461bcd60e51b825280600483015260248201527f537472696e67733a20686578206c656e67746820696e73756666696369656e746044820152fd5b909192600f811660108110156114bf576f181899199a1a9b1b9c1cb0b131b232b360811b901a6114958587611689565b5360041c9280156114ab57600019019190611362565b634e487b7160e01b82526011600452602482fd5b634e487b7160e01b83526032600452602483fd5b634e487b7160e01b81526032600452602490fd5b60008181526020818152604092838320338452825260ff84842054161561150e5750505050565b611517336116b0565b9084519061152482611222565b604282528382019460603687378251156114d357603086538251906001918210156114d35790607860218501536041915b8183116115ac5750505061142357846113f160486114159360449798519889916113e28984019876020b1b1b2b9b9a1b7b73a3937b61d1030b1b1b7bab73a1604d1b8a526113b9815180928d6037890191016115f2565b909192600f811660108110156114bf576f181899199a1a9b1b9c1cb0b131b232b360811b901a6115dc8587611689565b5360041c9280156114ab57600019019190611555565b60005b8381106116055750506000910152565b81810151838201526020016115f5565b9060009180835282602052604083209160018060a01b03169182845260205260ff60408420541661164557505050565b80835282602052604083208284526020526040832060ff1981541690557ff6391f5c32d9c69d2a47ea670b442974b53935d1edc7fd64eb21e047a839171b339380a4565b90815181101561169a570160200190565b634e487b7160e01b600052603260045260246000fd5b604051906060820182811067ffffffffffffffff82111761123e57604052602a825260208201604036823782511561169a5760309053815160019081101561169a57607860218401536029905b80821161175157505061170d5790565b606460405162461bcd60e51b815260206004820152602060248201527f537472696e67733a20686578206c656e67746820696e73756666696369656e746044820152fd5b9091600f811660108110156117aa576f181899199a1a9b1b9c1cb0b131b232b360811b901a6117808486611689565b5360041c9180156117955760001901906116fd565b60246000634e487b7160e01b81526011600452fd5b60246000634e487b7160e01b81526032600452fd5b60001981146117ce5760010190565b634e487b7160e01b600052601160045260246000fd5b919081101561169a5760051b0190565b156117fb57565b60405162461bcd60e51b815260206004820152600e60248201526d24b73b30b634b2103330b1ba37b960911b6044820152606490fd5b919091805483101561169a57600052601f60206000208360051c01921690565b919060068210156112835760ff8084549260031b9316831b921b1916179055565b908154916801000000000000000083101561123e578261103091600161189a95018155611831565b565b90600681101561128357600052602052604060002090565b60ff600154166118c057565b60405162461bcd60e51b815260206004820152601060248201526f14185d5cd8589b194e881c185d5cd95960821b6044820152606490fd5b156118ff57565b60405162461bcd60e51b815260206004820152600f60248201526e135190481b9bdd08195b98589b1959608a1b6044820152606490fd5b8054906000908181558261194957505050565b8152601f60208220920160051c8201915b82811061196657505050565b81815560010161195a565b600581101561128357806119825750565b600181036119cf5760405162461bcd60e51b815260206004820152601860248201527f45434453413a20696e76616c6964207369676e617475726500000000000000006044820152606490fd5b60028103611a1c5760405162461bcd60e51b815260206004820152601f60248201527f45434453413a20696e76616c6964207369676e6174757265206c656e677468006044820152606490fd5b600314611a2557565b60405162461bcd60e51b815260206004820152602260248201527f45434453413a20696e76616c6964207369676e6174757265202773272076616c604482015261756560f01b6064820152608490fd5b906041815114600014611aa357611a9f916020820151906060604084015193015160001a90611aad565b9091565b5050600090600290565b9291907f7fffffffffffffffffffffffffffffff5d576e7357a4501ddfe92f46681b20a08311611b305791608094939160ff602094604051948552168484015260408301526060820152600093849182805260015afa15611b235781516001600160a01b03811615611b1d579190565b50600190565b50604051903d90823e3d90fd5b50505050600090600390565b6001600160a01b03166000908152600360208181526040808420600290925283206001018054939291600501835b858110611b7c57505050505050600190565b611b9a611b898285611831565b905460ff9291871b1c82168461189c565b541615611baf57611baa906117bf565b611b6a565b50505050905090565b906040918251809382549283835260209182840191600052826000209460005b81601f820110612097578461189a97549383831061207b575b83831061205c575b83831061203d575b83831061201e575b838310612000575b838310611fe1575b838310611fc2575b838310611fa3575b838310611f86575b50828210611f69575b828210611f4c575b828210611f2f575b828210611f12575b828210611ef5575b828210611ed8575b828210611ebb575b828210611e9e575b828210611e81575b828210611e64575b828210611e47575b828210611e2a575b828210611e0d575b828210611df0575b828210611dd3575b828210611db6575b828210611d99575b828210611d7c575b828210611d5f575b828210611d42575b828210611d25575b828210611d08575b5010611cf3575b5090500383611254565b81611d009160f81c611276565b018038611ce9565b84611d1c6001939660ff8760f01c16611276565b01930184611ce2565b84611d396001939660ff8760e81c16611276565b01930184611cda565b84611d566001939660ff8760e01c16611276565b01930184611cd2565b84611d736001939660ff8760d81c16611276565b01930184611cca565b84611d906001939660ff8760d01c16611276565b01930184611cc2565b84611dad6001939660ff8760c81c16611276565b01930184611cba565b84611dca6001939660ff8760c01c16611276565b01930184611cb2565b84611de76001939660ff8760b81c16611276565b01930184611caa565b84611e046001939660ff8760b01c16611276565b01930184611ca2565b84611e216001939660ff8760a81c16611276565b01930184611c9a565b84611e3e6001939660ff8760a01c16611276565b01930184611c92565b84611e5b6001939660ff8760981c16611276565b01930184611c8a565b84611e786001939660ff8760901c16611276565b01930184611c82565b84611e956001939660ff8760881c16611276565b01930184611c7a565b84611eb26001939660ff8760801c16611276565b01930184611c72565b84611ecf6001939660ff8760781c16611276565b01930184611c6a565b84611eec6001939660ff8760701c16611276565b01930184611c62565b84611f096001939660ff8760681c16611276565b01930184611c5a565b84611f266001939660ff8760601c16611276565b01930184611c52565b84611f436001939660ff8760581c16611276565b01930184611c4a565b84611f606001939660ff8760501c16611276565b01930184611c42565b84611f7d6001939660ff8760481c16611276565b01930184611c3a565b94611f998160ff87600196991c16611276565b0193018438611c31565b91948181611fb960019360ff8960381c16611276565b01950191611c29565b91948181611fd860019360ff8960301c16611276565b01950191611c21565b91948181611ff760019360ff8960281c16611276565b01950191611c19565b9194818161201560019360ff89851c16611276565b01950191611c11565b9194818161203460019360ff8960181c16611276565b01950191611c09565b9194818161205360019360ff8960101c16611276565b01950191611c01565b9194818161207260019360ff8960081c16611276565b01950191611bf9565b9194818161208e60019360ff8916611276565b01950191611bf1565b919395945091600161040087926122fc88546122ee866122cb61215a6122838d61223b896121f360ff976120cd838a8d16611276565b6120de8184018a8d60081c16611276565b6120ef8584018a8d60101c16611276565b888b610200606095612108878201858560181c16611276565b61211b6080958585888501921c16611276565b6121b160a097612132898401878760281c16611276565b61216960c09b6121498d8601898960301c16611276565b60e09e8f8601898960381c16611276565b87876101008701921c16611276565b61217c6101208401878760481c16611276565b61218f6101408401878760501c16611276565b6121a26101608401878760581c16611276565b85856101808501921c16611276565b6121c46101a08201858560681c16611276565b6121d76101c08201858560701c16611276565b6121ea6101e08201858560781c16611276565b01921c16611276565b6122066102208c01888b60881c16611276565b6122196102408c01888b60901c16611276565b61222c6102608c01888b60981c16611276565b86896102808d01921c16611276565b61224e6102a08a01868960a81c16611276565b6122616102c08a01868960b01c16611276565b6122746102e08a01868960b81c16611276565b84876103008b01921c16611276565b6122966103208801848760c81c16611276565b6122a96103408801848760d01c16611276565b6122bc6103608801848760d81c16611276565b82856103808901921c16611276565b6122de6103a08601828560e81c16611276565b6103c08501908360f01c16611276565b6103e083019060f81c611276565b01950191019187949295939195611bd856fea2646970667358221220fcf5b8ab794e8cd9dfc2d39bac9c0c3d1ddf0e0dad28faeb7426863bbf87f1ee64736f6c634300081300332f8788117e7eff1d82e926ec794901d17c78024a50270940304540a733656f0d",
  "linkReferences": {},
  "deployedLinkReferences": {}
}