{
  "_format": "hh-sol-artifact-1",
  "contractName": "ReputationSystem",
  "sourceName": "contracts/ReputationSystem.sol",
  "abi": [
    {
      "inputs": [
        {
          "internalType": "address",
          "name": "_digitalIdentityAddress",
          "type": "address"
        }
      ],
      "stateMutability": "nonpayable",
      "type": "constructor"
    },
    {
      "anonymous": false,
      "inputs": [
        {
          "indexed": true,
          "internalType": "address",
          "name": "previousOwner",
          "type": "address"
        },
        {
          "indexed": true,
          "internalType": "address",
          "name": "newOwner",
          "type": "address"
        }
      ],
      "name": "OwnershipTransferred",
      "type": "event"
    },
    {
      "anonymous": false,
      "inputs": [
        {
          "indexed": true,
          "internalType": "address",
          "name": "user",
          "type": "address"
        },
        {
          "indexed": false,
          "internalType": "uint256",
          "name": "initialScore",
          "type": "uint256"
        }
      ],
      "name": "ScoreInitialized",
      "type": "event"
    },
    {
      "anonymous": false,
      "inputs": [
        {
          "indexed": true,
          "internalType": "address",
          "name": "user",
          "type": "address"
        },
        {
          "indexed": false,
          "internalType": "uint256",
          "name": "newScore",
          "type": "uint256"
        },
        {
          "indexed": false,
          "internalType": "int256",
          "name": "pointsGiven",
          "type": "int256"
        },
        {
          "indexed": false,
          "internalType": "int256",
          "name": "weightedAdjustment",
          "type": "int256"
        },
        {
          "indexed": false,
          "internalType": "uint256",
          "name": "decayApplied",
          "type": "uint256"
        }
      ],
      "name": "ScoreUpdated",
      "type": "event"
    },
    {
      "anonymous": false,
      "inputs": [
        {
          "indexed": true,
          "internalType": "address",
          "name": "user",
          "type": "address"
        },
        {
          "indexed": false,
          "internalType": "uint256",
          "name": "score",
          "type": "uint256"
        }
      ],
      "name": "UserBanned",
      "type": "event"
    },
    {
      "anonymous": false,
      "inputs": [
        {
          "indexed": true,
          "internalType": "address",
          "name": "user",
          "type": "address"
        },
        {
          "indexed": false,
          "internalType": "uint256",
          "name": "score",
          "type": "uint256"
        }
      ],
      "name": "UserUnbanned",
      "type": "event"
    },
    {
      "anonymous": false,
      "inputs": [
        {
          "indexed": false,
          "internalType": "uint256",
          "name": "positiveWeight",
          "type": "uint256"
        },
        {
          "indexed": false,
          "internalType": "uint256",
          "name": "negativeWeight",
          "type": "uint256"
        },
        {
          "indexed": false,
          "internalType": "uint256",
          "name": "decayRate",
          "type": "uint256"
        },
        {
          "indexed": false,
          "internalType": "uint256",
          "name": "decayPeriod",
          "type": "uint256"
        },
        {
          "indexed": false,
          "internalType": "uint256",
          "name": "activityMultiplier",
          "type": "uint256"
        }
      ],
      "name": "WeightConfigUpdated",
      "type": "event"
    },
    {
      "inputs": [],
      "name": "BAN_THRESHOLD",
      "outputs": [
        {
          "internalType": "uint256",
          "name": "",
          "type": "uint256"
        }
      ],
      "stateMutability": "view",
      "type": "function"
    },
    {
      "inputs": [],
      "name": "INITIAL_SCORE",
      "outputs": [
        {
          "internalType": "uint256",
          "name": "",
          "type": "uint256"
        }
      ],
      "stateMutability": "view",
      "type": "function"
    },
    {
      "inputs": [],
      "name": "MAX_SCORE",
      "outputs": [
        {
          "internalType": "uint256",
          "name": "",
          "type": "uint256"
        }
      ],
      "stateMutability": "view",
      "type": "function"
    },
    {
      "inputs": [],
      "name": "MIN_SCORE",
      "outputs": [
        {
          "internalType": "uint256",
          "name": "",
          "type": "uint256"
        }
      ],
      "stateMutability": "view",
      "type": "function"
    },
    {
      "inputs": [],
      "name": "SCALE_FACTOR",
      "outputs": [
        {
          "internalType": "uint256",
          "name": "",
          "type": "uint256"
        }
      ],
      "stateMutability": "view",
      "type": "function"
    },
    {
      "inputs": [],
      "name": "digitalIdentity",
      "outputs": [
        {
          "internalType": "contract IDigitalIdentityNFT",
          "name": "",
          "type": "address"
        }
      ],
      "stateMutability": "view",
      "type": "function"
    },
    {
      "inputs": [
        {
          "internalType": "address",
          "name": "user",
          "type": "address"
        }
      ],
      "name": "getUserFullScore",
      "outputs": [
        {
          "internalType": "uint256",
          "name": "score",
          "type": "uint256"
        },
        {
          "internalType": "bool",
          "name": "isBanned",
          "type": "bool"
        },
        {
          "internalType": "uint256",
          "name": "lastUpdate",
          "type": "uint256"
        },
        {
          "internalType": "uint256",
          "name": "totalPositivePoints",
          "type": "uint256"
        },
        {
          "internalType": "uint256",
          "name": "totalNegativePoints",
          "type": "uint256"
        },
        {
          "internalType": "uint256",
          "name": "activityCount",
          "type": "uint256"
        },
        {
          "internalType": "uint256",
          "name": "decayApplied",
          "type": "uint256"
        }
      ],
      "stateMutability": "view",
      "type": "function"
    },
    {
      "inputs": [
        {
          "internalType": "address",
          "name": "user",
          "type": "address"
        }
      ],
      "name": "getUserScore",
      "outputs": [
        {
          "internalType": "uint256",
          "name": "",
          "type": "uint256"
        }
      ],
      "stateMutability": "view",
      "type": "function"
    },
    {
      "inputs": [],
      "name": "getWeightConfig",
      "outputs": [
        {
          "components": [
            {
              "internalType": "uint256",
              "name": "positiveWeight",
              "type": "uint256"
            },
            {
              "internalType": "uint256",
              "name": "negativeWeight",
              "type": "uint256"
            },
            {
              "internalType": "uint256",
              "name": "decayRate",
              "type": "uint256"
            },
            {
              "internalType": "uint256",
              "name": "decayPeriod",
              "type": "uint256"
            },
            {
              "internalType": "uint256",
              "name": "activityMultiplier",
              "type": "uint256"
            }
          ],
          "internalType": "struct ReputationSystem.WeightConfig",
          "name": "",
          "type": "tuple"
        }
      ],
      "stateMutability": "view",
      "type": "function"
    },
    {
      "inputs": [
        {
          "internalType": "address",
          "name": "user",
          "type": "address"
        }
      ],
      "name": "initializeUserScore",
      "outputs": [],
      "stateMutability": "nonpayable",
      "type": "function"
    },
    {
      "inputs": [],
      "name": "owner",
      "outputs": [
        {
          "internalType": "address",
          "name": "",
          "type": "address"
        }
      ],
      "stateMutability": "view",
      "type": "function"
    },
    {
      "inputs": [],
      "name": "renounceOwnership",
      "outputs": [],
      "stateMutability": "nonpayable",
      "type": "function"
    },
    {
      "inputs": [
        {
          "internalType": "address",
          "name": "",
          "type": "address"
        }
      ],
      "name": "reputationScores",
      "outputs": [
        {
          "internalType": "uint256",
          "name": "score",
          "type": "uint256"
        },
        {
          "internalType": "bool",
          "name": "isBanned",
          "type": "bool"
        },
        {
          "internalType": "uint256",
          "name": "lastUpdate",
          "type": "uint256"
        },
        {
          "internalType": "uint256",
          "name": "decayStartTime",
          "type": "uint256"
        },
        {
          "internalType": "uint256",
          "name": "totalPositivePoints",
          "type": "uint256"
        },
        {
          "internalType": "uint256",
          "name": "totalNegativePoints",
          "type": "uint256"
        },
        {
          "internalType": "uint256",
          "name": "activityCount",
          "type": "uint256"
        }
      ],
      "stateMutability": "view",
      "type": "function"
    },
    {
      "inputs": [
        {
          "internalType": "address",
          "name": "newOwner",
          "type": "address"
        }
      ],
      "name": "transferOwnership",
      "outputs": [],
      "stateMutability": "nonpayable",
      "type": "function"
    },
    {
      "inputs": [
        {
          "internalType": "address",
          "name": "user",
          "type": "address"
        },
        {
          "internalType": "int256",
          "name": "points",
          "type": "int256"
        }
      ],
      "name": "updateScore",
      "outputs": [],
      "stateMutability": "nonpayable",
      "type": "function"
    },
    {
      "inputs": [
        {
          "internalType": "uint256",
          "name": "_positiveWeight",
          "type": "uint256"
        },
        {
          "internalType": "uint256",
          "name": "_negativeWeight",
          "type": "uint256"
        },
        {
          "internalType": "uint256",
          "name": "_decayRate",
          "type": "uint256"
        },
        {
          "internalType": "uint256",
          "name": "_decayPeriod",
          "type": "uint256"
        },
        {
          "internalType": "uint256",
          "name": "_activityMultiplier",
          "type": "uint256"
        }
      ],
      "name": "updateWeightConfig",
      "outputs": [],
      "stateMutability": "nonpayable",
      "type": "function"
    },
    {
      "inputs": [],
      "name": "weightConfig",
      "outputs": [
        {
          "internalType": "uint256",
          "name": "positiveWeight",
          "type": "uint256"
        },
        {
          "internalType": "uint256",
          "name": "negativeWeight",
          "type": "uint256"
        },
        {
          "internalType": "uint256",
          "name": "decayRate",
          "type": "uint256"
        },
        {
          "internalType": "uint256",
          "name": "decayPeriod",
          "type": "uint256"
        },
        {
          "internalType": "uint256",
          "name": "activityMultiplier",
          "type": "uint256"
        }
      ],
      "stateMutability": "view",
      "type": "function"
    }
  ],
  "bytecode": "0x60803461019c576001600160401b0390601f61121438819003918201601f19168301929190848411838510176101a157816020928492604096875283398101031261019c57516001600160a01b0392908381169081900361019c5760008054336001600160a01b03198083168217845586519397909392167f8be0079c531659141344cd1fd0a4f28419497f9722a3daafe3b4186f6b6457e08880a382156101345750600154161760015581519060a08201908282109082111761012057906080918352670de0b6b3a7640000808252671bc16d674ec80000806020840152662386f26fc1000091828685015262278d00938460608201526611c37937e0800095869101526003556004556005556006556007555161105c90816101b88239f35b634e487b7160e01b84526041600452602484fd5b62461bcd60e51b815260206004820152603460248201527f52657075746174696f6e53797374656d3a20496e76616c69642044696769746160448201527f6c4964656e746974794e465420616464726573730000000000000000000000006064820152608490fd5b600080fd5b634e487b7160e01b600052604160045260246000fdfe608060408181526004918236101561001657600080fd5b600090813560e01c90816307020a0414610b9957508063085aa19714610b5357806327ff622314610b3657806340b8927014610b1b5780634604e42114610abe578063715018a614610a645780637f3d7ffa146107185780638da5cb5b146106f0578063a8b527bb146106c7578063b34e0c471461069a578063cdd3e54a14610452578063ce4b5bbe1461042f578063de33037314610413578063df230361146103f3578063e1d3551e1461023a578063f2fde38b146101735763fe0438b2146100df57600080fd5b346101705760203660031901126101705761016c9082906001600160a01b03610106610c2a565b1681526002602052209182549260ff60018201541694600282015490600383015490830154916006600585015494015494519788978893909796959260c0959260e086019986521515602086015260408501526060840152608083015260a08201520152565b0390f35b80fd5b5091346102365760203660031901126102365761018e610c2a565b90610197610c45565b6001600160a01b039182169283156101e457505082546001600160a01b0319811683178455167f8be0079c531659141344cd1fd0a4f28419497f9722a3daafe3b4186f6b6457e08380a380f35b906020608492519162461bcd60e51b8352820152602660248201527f4f776e61626c653a206e6577206f776e657220697320746865207a65726f206160448201526564647265737360d01b6064820152fd5b8280fd5b5091903461023657602090816003193601126103ef57610258610c2a565b92610261610c45565b600154825163237f1a2160e01b81526001600160a01b03958616838201819052959091859183916024918391165afa9081156103e557906102a99187916103b8575b50610d25565b838552600283526002828620015461036357907f4b83d0e595012b7ff047df26533af651a9f72f6cb658ef77a5de2ce54f1dfd929291600685878451936102ef85610ccf565b60648552868501828152868601428152606087019042825260808801928584528960a08a019680885260c08b0198818a52815260028d522098518955600189019051151560ff801983541691161790555160028801555160038701555190850155516005840155519101555160648152a280f35b82608492519162461bcd60e51b8352820152602b60248201527f52657075746174696f6e53797374656d3a2053636f726520616c72656164792060448201526a1a5b9a5d1a585b1a5e995960aa1b6064820152fd5b6103d89150853d87116103de575b6103d08183610ceb565b810190610d0d565b386102a3565b503d6103c6565b83513d88823e3d90fd5b8380fd5b50903461040f578160031936011261040f576020905160328152f35b5080fd5b50903461040f578160031936011261040f576020905160648152f35b50903461040f578160031936011261040f5760209051670de0b6b3a76400008152f35b50823461040f5760a036600319011261040f57803560243591604435606435906084359261047e610c45565b821561063f57670de0b6b3a76400008210156105e157841561058857851561052f579087868594936105299660807f97cbd4f460baf7ad8de8787c3bd1aff2b40663444a465b77c5ccefb5cde4b60a9b9c516104d981610c9d565b8a815284602082015286868201528760608201520152876003555581600555826006558360075551958695869192608093969594919660a084019784526020840152604083015260608201520152565b0390a180f35b608490602089519162461bcd60e51b8352820152602d60248201527f52657075746174696f6e53797374656d3a204e6567617469766520776569676860448201526c074206d757374206265203e203609c1b6064820152fd5b608490602089519162461bcd60e51b8352820152602d60248201527f52657075746174696f6e53797374656d3a20506f73697469766520776569676860448201526c074206d757374206265203e203609c1b6064820152fd5b608490602089519162461bcd60e51b8352820152603260248201527f52657075746174696f6e53797374656d3a2044656361792072617465206d7573604482015271074206265206c657373207468616e20312e360741b6064820152fd5b608490602089519162461bcd60e51b8352820152602f60248201527f52657075746174696f6e53797374656d3a20446563617920706572696f64206d60448201526e75737420626520706f73697469766560881b6064820152fd5b50903461040f57602036600319011261040f576020906106c06106bb610c2a565b610f45565b9051908152f35b50903461040f578160031936011261040f5760015490516001600160a01b039091168152602090f35b50903461040f578160031936011261040f57905490516001600160a01b039091168152602090f35b50919034610236578060031936011261023657610733610c2a565b9160243590610740610c45565b600154835163237f1a2160e01b81526001600160a01b039586168382018190529560209592869183916024918391165afa908115610a5a5790610789918891610a435750610d25565b848652600284528086209260028401948554156109f1576107b16107ac86610d8b565b610e32565b8554909590868082106109e9576107c791610de0565b600682016107d58154610e03565b905589841380156109ab578683016107ee868254610e12565b90555b61080a60c06107ff85610d8b565b015160075490610e1f565b901561097d5761082e610828670de0b6b3a764000092600354610e12565b86610f22565b05955b868201918b888412911290801582169115161761096a57509160017f50a0f150ef172fafc7a9b099a80e58799a693e0eea6064c9a508fea87054bffb9896949260809896948c811260001461094f57508b975b88825542905542600382015501805460ff811660328910808091610947575b156108f457505050600160ff19825416179055887fd47d10d20745ca261609da04f2be5d753e72753697166d0788294a90f63385ce828551898152a25b82519586528501528301526060820152a280f35b15908161093f575b50610909575b50506108e0565b60ff19169055887fea171eb708881d69efb9931dcca95ea6827f6fb5a1471ff9f8eda431bc3175d6828551898152a23880610902565b9050386108fc565b5081156108a3565b6103e89081811315610962575097610884565b905097610884565b634e487b7160e01b8b526011905260248afd5b8a8512156109a35761099c610828670de0b6b3a7640000928954610e12565b0595610831565b508995610831565b8a8512156107f157600160ff1b85146109d657600583016109cf868d038254610e12565b90556107f1565b634e487b7160e01b8b526011875260248bfd5b5050886107c7565b8360849184519162461bcd60e51b8352820152602760248201527f52657075746174696f6e53797374656d3a2053636f7265206e6f7420696e69746044820152661a585b1a5e995960ca1b6064820152fd5b6103d89150863d88116103de576103d08183610ceb565b82513d89823e3d90fd5b5034610170578060031936011261017057610a7d610c45565b80546001600160a01b03198116825581906001600160a01b03167f8be0079c531659141344cd1fd0a4f28419497f9722a3daafe3b4186f6b6457e08280a380f35b50903461040f57602036600319011261040f5761016c90610ae5610ae0610c2a565b610f9e565b9651958652931515602086015260408501929092526060840152608083015260a082015260c081019190915290819060e0820190565b50903461040f578160031936011261040f5751908152602090f35b50903461040f578160031936011261040f57602090516103e88152f35b508290346101705780600319360112610170575060035490546005546006546007549451938452602084019290925260408301526060820152608081019190915260a090f35b84848492346103ef57836003193601126103ef5792608084610bbc60a096610c9d565b82815282602082015282848201528260608201520152805190610bde82610c9d565b6003549283835254906020830191825260055481840190815260065492606085019384526080600754950194855282519586525160208601525190840152516060830152516080820152f35b600435906001600160a01b0382168203610c4057565b600080fd5b6000546001600160a01b03163303610c5957565b606460405162461bcd60e51b815260206004820152602060248201527f4f776e61626c653a2063616c6c6572206973206e6f7420746865206f776e65726044820152fd5b60a0810190811067ffffffffffffffff821117610cb957604052565b634e487b7160e01b600052604160045260246000fd5b60e0810190811067ffffffffffffffff821117610cb957604052565b90601f8019910116810190811067ffffffffffffffff821117610cb957604052565b90816020910312610c4057518015158103610c405790565b15610d2c57565b60405162461bcd60e51b815260206004820152603160248201527f52657075746174696f6e53797374656d3a2055736572206d7573742068617665604482015270206469676974616c206964656e7469747960781b6064820152608490fd5b90604051610d9881610ccf565b60c0600682948054845260ff60018201541615156020850152600281015460408501526003810154606085015260048101546080850152600581015460a08501520154910152565b91908203918211610ded57565b634e487b7160e01b600052601160045260246000fd5b6000198114610ded5760010190565b91908201809211610ded57565b81810292918115918404141715610ded57565b6006548015808015610f14575b610f0c57610e51606084015142610de0565b90610ef65704908115610ebc57670de0b6b3a7640000916005548303838111610ded57906000915b818310610ec3575b505050610e99670de0b6b3a764000091519283610e1f565b04818111610ebc57610eab9082610de0565b90808211610eb7575090565b905090565b5050600090565b909193610ed982670de0b6b3a764000092610e1f565b04938415610ef157610eea90610e03565b9190610e79565b610e81565b634e487b7160e01b600052601260045260246000fd5b505050600090565b506060830151421115610e3f565b818102929160008212600160ff1b821416610ded578184051490151715610ded57565b6001600160a01b03166000908152600260205260409020610f6590610d8b565b604081015115610f9857610f7881610e32565b90516000919081811115610f9357610f909250610de0565b90565b505090565b50600090565b6001600160a01b03166000908152600260205260408120610fbe90610d8b565b91604083019283511561101757610fd481610e32565b9283825181811160001461101057610fec9250610de0565b6020820151151594519360808301519360c060a08501519401519296959493929190565b5050610fec565b5091508091818091818091819056fea26469706673582212209a5c8bdf371080afee521c2659c351569ec8c8d22ec6f2822ca7ab0da332392664736f6c63430008130033",
  "linkReferences": {},
  "deployedLinkReferences": {}
}