{
  "_format": "hh-sol-artifact-1",
  "contractName": "VerificationRegistry",
  "sourceName": "contracts/VerificationRegistry.sol",
  "abi": [
    {
      "inputs": [
        {
          "internalType": "address",
          "name": "_digitalIdentity",
          "type": "address"
        }
      ],
      "stateMutability": "nonpayable",
      "type": "constructor"
    },
    {
      "anonymous": false,
      "inputs": [
        {
          "indexed": false,
          "internalType": "address",
          "name": "account",
          "type": "address"
        }
      ],
      "name": "Paused",
      "type": "event"
    },
    {
      "anonymous": false,
      "inputs": [
        {
          "indexed": true,
          "internalType": "bytes32",
          "name": "requestId",
          "type": "bytes32"
        },
        {
          "indexed": true,
          "internalType": "address",
          "name": "confirmer",
          "type": "address"
        }
      ],
      "name": "RecoveryConfirmation",
      "type": "event"
    },
    {
      "anonymous": false,
      "inputs": [
        {
          "indexed": true,
          "internalType": "bytes32",
          "name": "requestId",
          "type": "bytes32"
        },
        {
          "indexed": true,
          "internalType": "address",
          "name": "oldAddress",
          "type": "address"
        },
        {
          "indexed": true,
          "internalType": "address",
          "name": "newAddress",
          "type": "address"
        }
      ],
      "name": "RecoveryExecuted",
      "type": "event"
    },
    {
      "anonymous": false,
      "inputs": [
        {
          "indexed": true,
          "internalType": "bytes32",
          "name": "requestId",
          "type": "bytes32"
        },
        {
          "indexed": true,
          "internalType": "address",
          "name": "oldAddress",
          "type": "address"
        },
        {
          "indexed": true,
          "internalType": "address",
          "name": "newAddress",
          "type": "address"
        }
      ],
      "name": "RecoveryRequestCreated",
      "type": "event"
    },
    {
      "anonymous": false,
      "inputs": [
        {
          "indexed": true,
          "internalType": "address",
          "name": "user",
          "type": "address"
        },
        {
          "indexed": false,
          "internalType": "address[]",
          "name": "recoveryContacts",
          "type": "address[]"
        },
        {
          "indexed": false,
          "internalType": "uint256",
          "name": "minConfirmations",
          "type": "uint256"
        }
      ],
      "name": "RecoverySetupCompleted",
      "type": "event"
    },
    {
      "anonymous": false,
      "inputs": [
        {
          "indexed": true,
          "internalType": "bytes32",
          "name": "role",
          "type": "bytes32"
        },
        {
          "indexed": true,
          "internalType": "bytes32",
          "name": "previousAdminRole",
          "type": "bytes32"
        },
        {
          "indexed": true,
          "internalType": "bytes32",
          "name": "newAdminRole",
          "type": "bytes32"
        }
      ],
      "name": "RoleAdminChanged",
      "type": "event"
    },
    {
      "anonymous": false,
      "inputs": [
        {
          "indexed": true,
          "internalType": "bytes32",
          "name": "role",
          "type": "bytes32"
        },
        {
          "indexed": true,
          "internalType": "address",
          "name": "account",
          "type": "address"
        },
        {
          "indexed": true,
          "internalType": "address",
          "name": "sender",
          "type": "address"
        }
      ],
      "name": "RoleGranted",
      "type": "event"
    },
    {
      "anonymous": false,
      "inputs": [
        {
          "indexed": true,
          "internalType": "bytes32",
          "name": "role",
          "type": "bytes32"
        },
        {
          "indexed": true,
          "internalType": "address",
          "name": "account",
          "type": "address"
        },
        {
          "indexed": true,
          "internalType": "address",
          "name": "sender",
          "type": "address"
        }
      ],
      "name": "RoleRevoked",
      "type": "event"
    },
    {
      "anonymous": false,
      "inputs": [
        {
          "indexed": false,
          "internalType": "address",
          "name": "account",
          "type": "address"
        }
      ],
      "name": "Unpaused",
      "type": "event"
    },
    {
      "anonymous": false,
      "inputs": [
        {
          "indexed": true,
          "internalType": "address",
          "name": "user",
          "type": "address"
        },
        {
          "indexed": false,
          "internalType": "enum VerificationRegistry.VerificationType",
          "name": "verificationType",
          "type": "uint8"
        },
        {
          "indexed": false,
          "internalType": "bool",
          "name": "success",
          "type": "bool"
        }
      ],
      "name": "VerificationAttemptLogged",
      "type": "event"
    },
    {
      "anonymous": false,
      "inputs": [
        {
          "indexed": true,
          "internalType": "address",
          "name": "user",
          "type": "address"
        },
        {
          "indexed": false,
          "internalType": "enum VerificationRegistry.VerificationType",
          "name": "verificationType",
          "type": "uint8"
        },
        {
          "indexed": false,
          "internalType": "bool",
          "name": "success",
          "type": "bool"
        }
      ],
      "name": "VerificationCompleted",
      "type": "event"
    },
    {
      "anonymous": false,
      "inputs": [
        {
          "indexed": true,
          "internalType": "address",
          "name": "user",
          "type": "address"
        },
        {
          "indexed": true,
          "internalType": "uint256",
          "name": "verificationId",
          "type": "uint256"
        },
        {
          "indexed": false,
          "internalType": "enum VerificationRegistry.VerificationType",
          "name": "verificationType",
          "type": "uint8"
        },
        {
          "indexed": false,
          "internalType": "string",
          "name": "metadata",
          "type": "string"
        }
      ],
      "name": "VerificationRequested",
      "type": "event"
    },
    {
      "inputs": [],
      "name": "DEFAULT_ADMIN_ROLE",
      "outputs": [
        {
          "internalType": "bytes32",
          "name": "",
          "type": "bytes32"
        }
      ],
      "stateMutability": "view",
      "type": "function"
    },
    {
      "inputs": [],
      "name": "RECOVERY_AGENT_ROLE",
      "outputs": [
        {
          "internalType": "bytes32",
          "name": "",
          "type": "bytes32"
        }
      ],
      "stateMutability": "view",
      "type": "function"
    },
    {
      "inputs": [],
      "name": "VERIFIER_ROLE",
      "outputs": [
        {
          "internalType": "bytes32",
          "name": "",
          "type": "bytes32"
        }
      ],
      "stateMutability": "view",
      "type": "function"
    },
    {
      "inputs": [],
      "name": "cleanupProcessedVerifications",
      "outputs": [],
      "stateMutability": "nonpayable",
      "type": "function"
    },
    {
      "inputs": [
        {
          "internalType": "bytes32",
          "name": "requestId",
          "type": "bytes32"
        }
      ],
      "name": "confirmRecovery",
      "outputs": [],
      "stateMutability": "nonpayable",
      "type": "function"
    },
    {
      "inputs": [
        {
          "internalType": "uint256",
          "name": "verificationId",
          "type": "uint256"
        },
        {
          "internalType": "bool",
          "name": "isVerified",
          "type": "bool"
        },
        {
          "internalType": "string",
          "name": "resultMetadata",
          "type": "string"
        }
      ],
      "name": "confirmVerification",
      "outputs": [],
      "stateMutability": "nonpayable",
      "type": "function"
    },
    {
      "inputs": [],
      "name": "digitalIdentity",
      "outputs": [
        {
          "internalType": "contract IDigitalIdentityNFT",
          "name": "",
          "type": "address"
        }
      ],
      "stateMutability": "view",
      "type": "function"
    },
    {
      "inputs": [
        {
          "internalType": "uint256",
          "name": "verificationId",
          "type": "uint256"
        }
      ],
      "name": "getPendingVerification",
      "outputs": [
        {
          "internalType": "address",
          "name": "user",
          "type": "address"
        },
        {
          "internalType": "uint8",
          "name": "verificationType",
          "type": "uint8"
        },
        {
          "internalType": "string",
          "name": "metadata",
          "type": "string"
        },
        {
          "internalType": "uint256",
          "name": "requestTimestamp",
          "type": "uint256"
        },
        {
          "internalType": "uint256",
          "name": "status",
          "type": "uint256"
        }
      ],
      "stateMutability": "view",
      "type": "function"
    },
    {
      "inputs": [],
      "name": "getPendingVerificationIds",
      "outputs": [
        {
          "internalType": "uint256[]",
          "name": "",
          "type": "uint256[]"
        }
      ],
      "stateMutability": "view",
      "type": "function"
    },
    {
      "inputs": [
        {
          "internalType": "address",
          "name": "user",
          "type": "address"
        }
      ],
      "name": "getRecoveryContacts",
      "outputs": [
        {
          "internalType": "address[]",
          "name": "",
          "type": "address[]"
        }
      ],
      "stateMutability": "view",
      "type": "function"
    },
    {
      "inputs": [
        {
          "internalType": "bytes32",
          "name": "role",
          "type": "bytes32"
        }
      ],
      "name": "getRoleAdmin",
      "outputs": [
        {
          "internalType": "bytes32",
          "name": "",
          "type": "bytes32"
        }
      ],
      "stateMutability": "view",
      "type": "function"
    },
    {
      "inputs": [
        {
          "internalType": "address",
          "name": "user",
          "type": "address"
        }
      ],
      "name": "getVerificationHistory",
      "outputs": [
        {
          "components": [
            {
              "internalType": "uint256",
              "name": "timestamp",
              "type": "uint256"
            },
            {
              "internalType": "bool",
              "name": "success",
              "type": "bool"
            },
            {
              "internalType": "string",
              "name": "details",
              "type": "string"
            }
          ],
          "internalType": "struct VerificationRegistry.VerificationAttempt[]",
          "name": "",
          "type": "tuple[]"
        }
      ],
      "stateMutability": "view",
      "type": "function"
    },
    {
      "inputs": [
        {
          "internalType": "address",
          "name": "user",
          "type": "address"
        },
        {
          "internalType": "enum VerificationRegistry.VerificationType",
          "name": "verificationType",
          "type": "uint8"
        }
      ],
      "name": "getVerificationStatus",
      "outputs": [
        {
          "components": [
            {
              "internalType": "bool",
              "name": "isVerified",
              "type": "bool"
            },
            {
              "internalType": "uint256",
              "name": "timestamp",
              "type": "uint256"
            },
            {
              "internalType": "address",
              "name": "verifier",
              "type": "address"
            },
            {
              "internalType": "string",
              "name": "metadata",
              "type": "string"
            }
          ],
          "internalType": "struct VerificationRegistry.VerificationStatus",
          "name": "",
          "type": "tuple"
        }
      ],
      "stateMutability": "view",
      "type": "function"
    },
    {
      "inputs": [
        {
          "internalType": "bytes32",
          "name": "role",
          "type": "bytes32"
        },
        {
          "internalType": "address",
          "name": "account",
          "type": "address"
        }
      ],
      "name": "grantRole",
      "outputs": [],
      "stateMutability": "nonpayable",
      "type": "function"
    },
    {
      "inputs": [
        {
          "internalType": "bytes32",
          "name": "role",
          "type": "bytes32"
        },
        {
          "internalType": "address",
          "name": "account",
          "type": "address"
        }
      ],
      "name": "hasRole",
      "outputs": [
        {
          "internalType": "bool",
          "name": "",
          "type": "bool"
        }
      ],
      "stateMutability": "view",
      "type": "function"
    },
    {
      "inputs": [
        {
          "internalType": "address",
          "name": "oldAddress",
          "type": "address"
        },
        {
          "internalType": "address",
          "name": "newAddress",
          "type": "address"
        }
      ],
      "name": "initiateRecovery",
      "outputs": [],
      "stateMutability": "nonpayable",
      "type": "function"
    },
    {
      "inputs": [
        {
          "internalType": "address",
          "name": "",
          "type": "address"
        },
        {
          "internalType": "address",
          "name": "",
          "type": "address"
        }
      ],
      "name": "isRecoveryContact",
      "outputs": [
        {
          "internalType": "bool",
          "name": "",
          "type": "bool"
        }
      ],
      "stateMutability": "view",
      "type": "function"
    },
    {
      "inputs": [],
      "name": "nextVerificationId",
      "outputs": [
        {
          "internalType": "uint256",
          "name": "",
          "type": "uint256"
        }
      ],
      "stateMutability": "view",
      "type": "function"
    },
    {
      "inputs": [],
      "name": "pause",
      "outputs": [],
      "stateMutability": "nonpayable",
      "type": "function"
    },
    {
      "inputs": [],
      "name": "paused",
      "outputs": [
        {
          "internalType": "bool",
          "name": "",
          "type": "bool"
        }
      ],
      "stateMutability": "view",
      "type": "function"
    },
    {
      "inputs": [
        {
          "internalType": "uint256",
          "name": "",
          "type": "uint256"
        }
      ],
      "name": "pendingVerificationIds",
      "outputs": [
        {
          "internalType": "uint256",
          "name": "",
          "type": "uint256"
        }
      ],
      "stateMutability": "view",
      "type": "function"
    },
    {
      "inputs": [
        {
          "internalType": "uint256",
          "name": "",
          "type": "uint256"
        }
      ],
      "name": "pendingVerifications",
      "outputs": [
        {
          "internalType": "address",
          "name": "user",
          "type": "address"
        },
        {
          "internalType": "enum VerificationRegistry.VerificationType",
          "name": "verificationType",
          "type": "uint8"
        },
        {
          "internalType": "string",
          "name": "metadata",
          "type": "string"
        },
        {
          "internalType": "uint256",
          "name": "requestTimestamp",
          "type": "uint256"
        },
        {
          "internalType": "uint256",
          "name": "status",
          "type": "uint256"
        }
      ],
      "stateMutability": "view",
      "type": "function"
    },
    {
      "inputs": [
        {
          "internalType": "bytes32",
          "name": "",
          "type": "bytes32"
        }
      ],
      "name": "recoveryRequests",
      "outputs": [
        {
          "internalType": "address",
          "name": "oldAddress",
          "type": "address"
        },
        {
          "internalType": "address",
          "name": "newAddress",
          "type": "address"
        },
        {
          "internalType": "uint256",
          "name": "timestamp",
          "type": "uint256"
        },
        {
          "internalType": "uint256",
          "name": "confirmations",
          "type": "uint256"
        },
        {
          "internalType": "bool",
          "name": "isExecuted",
          "type": "bool"
        }
      ],
      "stateMutability": "view",
      "type": "function"
    },
    {
      "inputs": [
        {
          "internalType": "address",
          "name": "",
          "type": "address"
        }
      ],
      "name": "recoverySettings",
      "outputs": [
        {
          "internalType": "uint256",
          "name": "minConfirmations",
          "type": "uint256"
        },
        {
          "internalType": "uint256",
          "name": "timelock",
          "type": "uint256"
        },
        {
          "internalType": "bool",
          "name": "isActive",
          "type": "bool"
        }
      ],
      "stateMutability": "view",
      "type": "function"
    },
    {
      "inputs": [
        {
          "internalType": "bytes32",
          "name": "role",
          "type": "bytes32"
        },
        {
          "internalType": "address",
          "name": "account",
          "type": "address"
        }
      ],
      "name": "renounceRole",
      "outputs": [],
      "stateMutability": "nonpayable",
      "type": "function"
    },
    {
      "inputs": [
        {
          "internalType": "enum VerificationRegistry.VerificationType",
          "name": "verificationType",
          "type": "uint8"
        },
        {
          "internalType": "string",
          "name": "metadata",
          "type": "string"
        },
        {
          "internalType": "bytes",
          "name": "signature",
          "type": "bytes"
        }
      ],
      "name": "requestVerification",
      "outputs": [],
      "stateMutability": "nonpayable",
      "type": "function"
    },
    {
      "inputs": [
        {
          "internalType": "bytes32",
          "name": "role",
          "type": "bytes32"
        },
        {
          "internalType": "address",
          "name": "account",
          "type": "address"
        }
      ],
      "name": "revokeRole",
      "outputs": [],
      "stateMutability": "nonpayable",
      "type": "function"
    },
    {
      "inputs": [
        {
          "internalType": "address[]",
          "name": "recoveryContacts",
          "type": "address[]"
        },
        {
          "internalType": "uint256",
          "name": "minConfirmations",
          "type": "uint256"
        },
        {
          "internalType": "uint256",
          "name": "timelock",
          "type": "uint256"
        }
      ],
      "name": "setupRecovery",
      "outputs": [],
      "stateMutability": "nonpayable",
      "type": "function"
    },
    {
      "inputs": [
        {
          "internalType": "bytes4",
          "name": "interfaceId",
          "type": "bytes4"
        }
      ],
      "name": "supportsInterface",
      "outputs": [
        {
          "internalType": "bool",
          "name": "",
          "type": "bool"
        }
      ],
      "stateMutability": "view",
      "type": "function"
    },
    {
      "inputs": [],
      "name": "unpause",
      "outputs": [],
      "stateMutability": "nonpayable",
      "type": "function"
    },
    {
      "inputs": [
        {
          "internalType": "address",
          "name": "",
          "type": "address"
        },
        {
          "internalType": "bytes32",
          "name": "",
          "type": "bytes32"
        }
      ],
      "name": "usedSignatures",
      "outputs": [
        {
          "internalType": "bool",
          "name": "",
          "type": "bool"
        }
      ],
      "stateMutability": "view",
      "type": "function"
    },
    {
      "inputs": [
        {
          "internalType": "address",
          "name": "",
          "type": "address"
        },
        {
          "internalType": "uint256",
          "name": "",
          "type": "uint256"
        }
      ],
      "name": "verificationHistory",
      "outputs": [
        {
          "internalType": "uint256",
          "name": "timestamp",
          "type": "uint256"
        },
        {
          "internalType": "bool",
          "name": "success",
          "type": "bool"
        },
        {
          "internalType": "string",
          "name": "details",
          "type": "string"
        }
      ],
      "stateMutability": "view",
      "type": "function"
    },
    {
      "inputs": [
        {
          "internalType": "address",
          "name": "",
          "type": "address"
        },
        {
          "internalType": "enum VerificationRegistry.VerificationType",
          "name": "",
          "type": "uint8"
        }
      ],
      "name": "verifications",
      "outputs": [
        {
          "internalType": "bool",
          "name": "isVerified",
          "type": "bool"
        },
        {
          "internalType": "uint256",
          "name": "timestamp",
          "type": "uint256"
        },
        {
          "internalType": "address",
          "name": "verifier",
          "type": "address"
        },
        {
          "internalType": "string",
          "name": "metadata",
          "type": "string"
        }
      ],
      "stateMutability": "view",
      "type": "function"
    },
    {
      "inputs": [
        {
          "internalType": "address",
          "name": "user",
          "type": "address"
        },
        {
          "internalType": "enum VerificationRegistry.VerificationType",
          "name": "verificationType",
          "type": "uint8"
        },
        {
          "internalType": "string",
          "name": "metadata",
          "type": "string"
        },
        {
          "internalType": "bytes",
          "name": "signature",
          "type": "bytes"
        }
      ],
      "name": "verify",
      "outputs": [],
      "stateMutability": "nonpayable",
      "type": "function"
    }
  ],
  "bytecode": "0x608034620001d857601f6200352138819003918201601f1916830192916001600160401b03841183851017620001dd5780839260409586528339602092839181010312620001d857516001600160a01b0381168103620001d8576001805460088281556001600160a81b031990911692901b610100600160a81b0316919091178155600080805280835283812033825283528381205490919060ff1615620001a1575b7f0ce23c3e399818cfee81a7ab0880f714e53d7672b08df0fa62f2843416e1ea09808352828452848320338452845260ff85842054161562000168575b507ffbe84fb67da6d3b3bfe897daede13744bed5b3625fd2c0105dd05b1a787a165a92838352828152848320338452815260ff8584205416156200012d575b845161330d9081620001f48239f35b83835282815284832090338452528382209060ff19825416179055339160008051602062003501833981519152339280a4388080806200011e565b80835282845284832033845284528483208260ff1982541617905533903390600080516020620035018339815191528580a438620000df565b81805281835283822033835283528382208160ff19825416179055333383600080516020620035018339815191528180a4620000a2565b600080fd5b634e487b7160e01b600052604160045260246000fdfe608080604052600436101561001357600080fd5b600090813560e01c90816301ffc9a7146124ec575080630524618e146124ce5780630d7342e61461249557806320524a2a1461236f578063248a9ca3146123435780632f2ff15d1461229557806333da384f1461224557806336568abe146121b257806338f2b633146120d65780633f4ba83a14612041578063449b980914611f7457806355e9537614611f015780635642659314611ec65780635c975abb14611ea35780635ed068b214611def5780636b9c39d314611da65780638456cb5914611d4c578063873fcabf14611ccc57806391d1485414611c845780639c69bc5d14611a10578063a217fddf146119f4578063a52d92cf14611593578063a8b527bb14611566578063b3e6741014611178578063c3200e8c14610db2578063c692811214610d4c578063d547741f14610d0c578063d680502414610777578063dab4a0fa1461071e578063e7705db6146106e3578063ec0f76b114610634578063f6545525146105b2578063f9df75f31461021d5763fe8619911461019757600080fd5b3461021a5760406101a736612605565b6001600160a01b0391821684526002602052828420919391906101c98161276b565b82526020522061021660ff825416916101f0600360018301549560028401541692016126c5565b9060405194859415158552602085015260408401526080606084015260808301906125e0565b0390f35b80fd5b503461021a57606036600319011261021a57602435801515908181036105ae576001600160401b03916044358381116105aa5761025e9036906004016127a7565b906102676129ca565b61026f612e9e565b6004358552600760209081526040862080546001600160a01b039691949187821691821561056c57600387018054610527578890811561051e5760ff60015b16905561034f575b50505060ff9260056000805160206132b88339815191529695936102fd93604051936102e18561266e565b428552828501526040840152888554168a525260408820612ee2565b549384169360a01c16837fbfc8bad6548a8a6915bf86bb58325d33352eeb3010b28a5dd826116c26a5546260405180610337868683613039565b0390a261034960405192839283613039565b0390a280f35b600360405161035d81612689565b6001928382528c6103b360408a85019242845281860194338652606087019a8c8c52825260028d5260ff8383209160a01c166103988161276b565b82528c522093511515849060ff801983541691151516179055565b51848301558b600283019151166001600160601b0360a01b825416179055019251805192831161050a576103e78454612634565b601f81116104d1575b5085908b601f8511600114610452579380806000805160206132b88339815191529c9b99956102fd999560ff9c999560059994610447575b50501b916000199060031b1c19161790555b93509395968295506102b6565b015192503880610428565b50848c52868c209293929190601f1984168d5b8181106104bc5750936102fd979360ff9a979360059793836000805160206132b88339815191529f9e9c98106104a3575b505050811b01905561043a565b015160001960f88460031b161c19169055388080610496565b82840151855593860193928901928901610465565b6104fa90858d52878d20601f860160051c810191898710610500575b601f0160051c0190612e87565b386103f0565b90915081906104ed565b634e487b7160e01b8b52604160045260248bfd5b60ff60026102ae565b60405162461bcd60e51b815260048101879052601860248201527f566572696669636174696f6e206e6f742070656e64696e6700000000000000006044820152606490fd5b60405162461bcd60e51b815260048101869052601660248201527515995c9a599a58d85d1a5bdb881b9bdd08199bdd5b9960521b6044820152606490fd5b8480fd5b8280fd5b503461021a57602036600319011261021a576040906004358152600760205220805460ff8160a01c16916105e58361276b565b6002810154906106256105ff6001600384015493016126c5565b60405195869560018060a01b03168652602086015260a0604086015260a08501906125e0565b91606084015260808301520390f35b503461021a576020908160031936011261021a576001600160a01b0391908261065b612578565b168152600382526040812090604051808484549182815201908194845285842090845b8181106106cd57505050816106949103826126a4565b6040519380850191818652518092526040850193925b8281106106b75785850386f35b83518716855293810193928101926001016106aa565b825489168452928701926001928301920161067e565b503461021a578060031936011261021a5760206040517f0ce23c3e399818cfee81a7ab0880f714e53d7672b08df0fa62f2843416e1ea098152f35b503461021a57602036600319011261021a576060906040906001600160a01b03610746612578565b16815260036020522060018101549060ff600360028301549201541690604051928352602083015215156040820152f35b503461021a57606036600319011261021a576001600160401b036004351161021a5736602360043501121561021a576001600160401b03600435600401351161021a573660246004356004013560051b60043501011161021a5760015460405163237f1a2160e01b8152336004820152906020908290602490829060081c6001600160a01b03165afa908115610d01578291610cd2575b5015610c8d576024356004356004013510610c4857600260243510610c04576201518060443510610bbf5733815260036020526040812060ff600382015416610aff575b50805b600435600401358110610a3e57506040519061087082612689565b61087f60043560040135613254565b61088c60405191826126a4565b60048035908101358252602401602082015b60246004356004013560051b60043501018210610a265750508252602082019160243583526040810160443581526060820190600182523384526003602052604084209251948551956001600160401b038711610a1257600160401b8711610a125760209085548887558089106109f8575b5001958486526020862096865b8281106109db578761095088600389898951600185015551600284015551151591019060ff801983541691151516179055565b60405160408101604082526004356004013590526060810190602460043501835b6004356004013581106109b35750507f1a86e29ae8fd3e6ea6f081a921a3a4623b2f55206d460667ee384a641a82b7249060243560208201528033930390a280f35b909260019060209081906001600160a01b036109ce886125a9565b1681520194019101610971565b81516001600160a01b0316818a015560209091019060010161091d565b868852828820610a0c918101908a01612e87565b38610910565b634e487b7160e01b86526041600452602486fd5b60208091610a33846125a9565b81520191019061089e565b6001600160a01b03610a63610a5e83600480359081013590602401613230565b613240565b1615610aba57610ab59033835260046020526040832060018060a01b03610a99610a5e8460043560040135602460043501613230565b166000526020526040600020600160ff19825416179055612e78565b610855565b60405162461bcd60e51b815260206004820152601860248201527f496e76616c6964207265636f7665727920636f6e7461637400000000000000006044820152606490fd5b6040518082602082945493848152019085526020852092855b818110610b9d575050610b2d925003826126a4565b815b8151811015610b95573383526004602052604083208251821015610b815790610b7c9160018060a01b0360208360051b8601015116600052602052604060002060ff198154169055612e78565b610b2f565b634e487b7160e01b84526032600452602484fd5b505038610852565b84546001600160a01b0316835260019485019486945060209093019201610b18565b60405162461bcd60e51b815260206004820152601f60248201527f54696d656c6f636b206d757374206265206174206c65617374203120646179006044820152606490fd5b606460405162461bcd60e51b815260206004820152602060248201527f4d696e696d756d203220636f6e6669726d6174696f6e732072657175697265646044820152fd5b60405162461bcd60e51b815260206004820152601960248201527f546f6f20666577207265636f7665727920636f6e7461637473000000000000006044820152606490fd5b60405162461bcd60e51b815260206004820152601a60248201527f4d7573742068617665206469676974616c206964656e746974790000000000006044820152606490fd5b610cf4915060203d602011610cfa575b610cec81836126a4565b810190612d9c565b3861080e565b503d610ce2565b6040513d84823e3d90fd5b503461021a57604036600319011261021a57610d49600435610d2c612593565b9080845283602052610d446001604086200154612b0f565b612c19565b80f35b503461021a57602036600319011261021a57604060a0916004358152600a60205220600180831b0390818154169160018201541690600281015460ff60056003840154930154169260405194855260208501526040840152606083015215156080820152f35b503461021a57606036600319011261021a576004356005811015611174576001600160401b039060243582811161117057610df19036906004016127a7565b906044358381116105aa57610e0a9036906004016127a7565b610e12612e9e565b600180546040519263237f1a2160e01b8452336004850152602093848160248160018060a01b03809760081c165afa801561116557610e58918a91611148575b50612db4565b516110a9575b60085495610e6b87612e78565b6008556040519160a083018381108382111761109357604052338352848301610e938761276b565b86815260408401888152606085019142835260808601938c85528b8d526007895260408d2096511686549151610ec88161276b565b610ed18161276b565b60ff60a01b9060a01b16916affffffffffffffffffffff60a81b1617178555858501905193845190811161107f578b610f0a8354612634565b89601f8211611051575b505050878c601f8311600114610ff1579060039683610fe6575b505060001982871b1c191690871b1790555b5160028401555191015560095490600160401b821015610fd25791610fab86610f92847ffc1d0fba2694ee1aeec80cf1b3abc10ef12eed53bcd3992381ead330532e8333979660409601600955612541565b90919082549060031b91821b91600019901b1916179055565b815192610fb78161276b565b835282015280610fcc339460408301906125e0565b0390a380f35b634e487b7160e01b87526041600452602487fd5b015190503880610f2e565b889291601f1983168583528b8320925b8c82821061103b575050978360039910611023575b505050811b019055610f40565b015160001983891b60f8161c19169055388080611016565b838b015185558c96909401939283019201611001565b8285611077945220601f840160051c8101918b851061050057601f0160051c0190612e87565b8b3889610f14565b634e487b7160e01b8c52604160045260248cfd5b634e487b7160e01b600052604160045260246000fd5b6110b28461276b565b604051838101906110d7816110c989893387612e00565b03601f1981018352826126a4565b5190207f19457468657265756d205369676e6564204d6573736167653a0a3332000000008852601c52603c87203388526006845260408820818952845261112560ff60408a20541615612e33565b33885260068452604088209088528352604087208260ff19825416179055610e5e565b61115f9150863d8811610cfa57610cec81836126a4565b38610e52565b6040513d8b823e3d90fd5b8380fd5b5080fd5b503461021a57608036600319011261021a57611192612578565b60243560058110156105ae576001600160401b036044358181116105aa576111be9036906004016127a7565b92606435828111611562576111d79036906004016127a7565b936111e06129ca565b6111e8612e9e565b60018060a01b039460019386855460081c169660405194859363237f1a2160e01b85528a8383169a8b600488015286602460209a8b935afa9283156115555761123a89948d9884916111485750612db4565b8a888451611460575b505050905060039291506040519161125a83612689565b8883528783014281526112a660408086019433865260608701998b8b52815260028c528d8282209061128b8161276b565b82528c522094511515859060ff801983541691151516179055565b5189840155600283019151166001600160601b0360a01b825416179055019151805191821161144c576112d98354612634565b601f811161141e575b508490601f83116001146113a657928261134f9360409896936000805160206132b88339815191529a98968d9261139b575b5050600019600383901b1c191690861b1790555b8551906113348261266e565b42825284848301528682015287895260058352858920612ee2565b857fbfc8bad6548a8a6915bf86bb58325d33352eeb3010b28a5dd826116c26a5546285805161137d8761276b565b8681528585820152a28351926113928161276b565b8352820152a280f35b015190503880611314565b838a52858a209190601f1984168b5b8181106114095750938896936000805160206132b88339815191529a98969360409a938361134f98106113f0575b505050811b019055611328565b015160001960f88460031b161c191690553880806113e3565b828401518555938901939288019288016113b5565b61144690848b52868b20601f850160051c81019188861061050057601f0160051c0190612e87565b386112e2565b634e487b7160e01b89526041600452602489fd5b60ff60406114ea956114e295856114968b8d9e9f9c9d9b986114dc986114886110c99261276b565b875194859384019687612e00565b5190207f19457468657265756d205369676e6564204d6573736167653a0a3332000000008252601c526006603c82209a8a8352528d828220908b83525220541615612e33565b85613176565b919091613056565b160361151c57878952600685526040808a20918a529085528820805460ff19168617905586919084388a818a88611243565b60405162461bcd60e51b8152600481018690526011602482015270496e76616c6964207369676e617475726560781b6044820152606490fd5b50604051903d90823e3d90fd5b8580fd5b503461021a578060031936011261021a5760015460405160089190911c6001600160a01b03168152602090f35b503461021a57604036600319011261021a576115ad612578565b6115b5612593565b3360009081527f3889445f5d382150db0d211619b3707579327501b520e6f6512993bc3907f71860209081526040909120547ffbe84fb67da6d3b3bfe897daede13744bed5b3625fd2c0105dd05b1a787a165a9060ff161561184e575060018060a01b03918260015460081c16936040519363237f1a2160e01b8086528183169586600482015285816024818b5afa908115611165578991611831575b50156117ec57849060246040518094819382528716998a60048301525afa9081156117e15787916117c4575b50611781578386526003835260ff6003604088200154161561173c5790600a9160405190848201926001600160601b0319809260601b16845260601b166034820152426048820152604881526116d381612689565b51902091828652526005604085206001600160601b0360a01b84818354161782558560018301918254161790554260028201558560038201550160ff1981541690557f548b5b651ae16fc5cb213fa7721768f916f78be17fc5c8f2ad67ebe466d17bc08480a480f35b60405162461bcd60e51b815260048101849052601860248201527f4e6f20616374697665207265636f7665727920736574757000000000000000006044820152606490fd5b6064836040519062461bcd60e51b825280600483015260248201527f4e6577206164647265737320616c726561647920686173206964656e746974796044820152fd5b6117db9150843d8611610cfa57610cec81836126a4565b3861167e565b6040513d89823e3d90fd5b60405162461bcd60e51b815260048101869052601e60248201527f4f6c642061646472657373206d7573742068617665206964656e7469747900006044820152606490fd5b6118489150863d8811610cfa57610cec81836126a4565b38611652565b9061185833612c9e565b9160405161186581612689565b604281528281019160603684378151156119de576030835381516001908110156119de57607860218401536041905b8082116119845750506119415761190d9361191c9260489260405196879376020b1b1b2b9b9a1b7b73a3937b61d1030b1b1b7bab73a1604d1b888601526118e4815180928a6037890191016125bd565b8401917001034b99036b4b9b9b4b733903937b6329607d1b6037840152518093868401906125bd565b010360288101855201836126a4565b61193d60405192839262461bcd60e51b8452600484015260248301906125e0565b0390fd5b6064836040519062461bcd60e51b825280600483015260248201527f537472696e67733a20686578206c656e67746820696e73756666696369656e746044820152fd5b9091600f811660108110156119de576f181899199a1a9b1b9c1cb0b131b232b360811b901a6119b38486612c8d565b5360041c9180156119c8576000190190611894565b634e487b7160e01b600052601160045260246000fd5b634e487b7160e01b600052603260045260246000fd5b503461021a578060031936011261021a57602090604051908152f35b503461021a576020806003193601126111745760043590818352600a81526040832090611a4460ff6005840154161561326b565b81546001600160a01b039081168552600482526040808620338752835285205490919060ff1615611c47576004830133865280825260ff604087205416611c0e573386528152604085209260ff199360018582541617905560038101611aaa8154612e78565b80915533867f5529defe57d5ccb647019cdaad1b26b7cc7883e8decf831851c4109ca33d65de8980a3838254168752600383526040872090600182015411159182611bdc575b5050611afa578480f35b600a90848652526040842091600160058401918254611b1c60ff82161561326b565b161790558060015460081c169181815416928560018301948486541690833b156105ae576044908360405195869485936301adbb2160e21b8552600485015260248401525af18015611bd157611ba2575b5081905416915416917f6a4fa7238aa224d542b5741448b8017d6fe8dea8b8a4ad71502ee1058a5228b58480a4388080808480f35b6001600160401b038196929611611bbd576040529381611b6d565b634e487b7160e01b82526041600452602482fd5b6040513d88823e3d90fd5b60029192508101549101548101809111611bfa574210153880611af0565b634e487b7160e01b86526011600452602486fd5b60405162461bcd60e51b8152600481018390526011602482015270105b1c9958591e4818dbdb999a5c9b5959607a1b6044820152606490fd5b6064906040519062461bcd60e51b825260048201526016602482015275139bdd0818481c9958dbdd995c9e4818dbdb9d1858dd60521b6044820152fd5b503461021a57604036600319011261021a5760ff6040602092611ca5612593565b60043582528185528282206001600160a01b03909116825284522054604051911615158152f35b503461021a57604036600319011261021a57611ce6612578565b6001600160a01b03168152600560205260408120805460243591908210156105ae57611d12925061278b565b508054610216611d2c600260ff60018601541694016126c5565b6040519384938452151560208401526060604084015260608301906125e0565b503461021a578060031936011261021a57611d656127fd565b611d6d612e9e565b600160ff19815416176001557f62e78cea01bee320cd4e420270b5ea74000d11b0c9f74754ebdbfc544b05a2586020604051338152a180f35b503461021a57604036600319011261021a5760209060ff906040906001600160a01b03611dd1612578565b16815260068452818120602435825284522054166040519015158152f35b503461021a578060031936011261021a5760405180916009549081835260208093018092600983527f6e1540171b6c0c960b71a7020d9f60077f6af931a8bbf590da0223dacf75c7af90835b818110611e8f5750505084611e519103856126a4565b60405193838594850191818652518092526040850193925b828110611e7857505050500390f35b835185528695509381019392810192600101611e69565b825484529286019260019283019201611e3b565b503461021a578060031936011261021a57602060ff600154166040519015158152f35b503461021a578060031936011261021a5760206040517ffbe84fb67da6d3b3bfe897daede13744bed5b3625fd2c0105dd05b1a787a165a8152f35b503461021a57602036600319011261021a576040906004358152600760205220805460ff8160a01c1691611f37600182016126c5565b610625600360028401549301549160405195869560018060a01b03168652611f5e8161276b565b602086015260a0604086015260a08501906125e0565b503461021a57604090610216611f8936612605565b939092815194611f9886612689565b81865260608060209784898201528486820152015260018060a01b0380951682526002865282822090611fca8161276b565b825285522060405192611fdc84612689565b60ff8254161515845260018201549185850192835261200b6003836002840154169260408801938452016126c5565b926060860193845260405196879681885251151590870152516040860152511660608401525160808084015260a08301906125e0565b503461021a578060031936011261021a5761205a6127fd565b60015460ff81161561209a5760ff19166001557f5db9ee0a495bf2e6ff9c91a7834c1ba4fdd244a5e8aa4e537bd38aeae4b073aa6020604051338152a180f35b60405162461bcd60e51b815260206004820152601460248201527314185d5cd8589b194e881b9bdd081c185d5cd95960621b6044820152606490fd5b503461021a578060031936011261021a576120ef6127fd565b805b6009805490818410156121ae5761210784612541565b9054600391821b1c84526007602052604084208101549092901561219b57600019908082019081116121875761213f61214e91612541565b905490851b1c610f9287612541565b815480156121735781019261216284612541565b81939154921b1b19169055556120f1565b634e487b7160e01b85526031600452602485fd5b634e487b7160e01b85526011600452602485fd5b505050906121a890612e78565b906120f1565b8280f35b503461021a57604036600319011261021a576121cc612593565b336001600160a01b038216036121e857610d4990600435612c19565b60405162461bcd60e51b815260206004820152602f60248201527f416363657373436f6e74726f6c3a2063616e206f6e6c792072656e6f756e636560448201526e103937b632b9903337b91039b2b63360891b6064820152608490fd5b503461021a57604036600319011261021a5760ff6040602092612266612578565b61226e612593565b6001600160a01b039182168352600486528383209116825284522054604051911615158152f35b503461021a57604036600319011261021a576004356122b2612593565b818352826020526122c96001604085200154612b0f565b818352602083815260408085206001600160a01b039093168086529290915283205460ff16156122f7578280f35b818352826020526040832081845260205260408320600160ff1982541617905533917f2f8788117e7eff1d82e926ec794901d17c78024a50270940304540a733656f0d8480a438808280f35b503461021a57602036600319011261021a57600160406020926004358152808452200154604051908152f35b503461021a5760208060031936011261117457906001600160a01b03612393612578565b16815260058252604081208054916123aa83613254565b926123b860405194856126a4565b8084528484018093835285832083915b83831061244b5750505050604051928484019085855251809152604084019460408260051b8601019392955b8287106124015785850386f35b90919293828061243b600193603f198a820301865260408951805183528481015115158584015201519060609081604082015201906125e0565b96019201960195929190926123f4565b60038860019260409a99979a516124618161266e565b8554815260ff858701541615158382015261247e600287016126c5565b6040820152815201920192019190969395966123c8565b503461021a57602036600319011261021a576004359060095482101561021a5760206124c083612541565b90546040519160031b1c8152f35b503461021a578060031936011261021a576020600854604051908152f35b9050346111745760203660031901126111745760043563ffffffff60e01b81168091036105ae5760209250637965db0b60e01b8114908115612530575b5015158152f35b6301ffc9a760e01b14905038612529565b6009548110156119de5760096000527f6e1540171b6c0c960b71a7020d9f60077f6af931a8bbf590da0223dacf75c7af0190600090565b600435906001600160a01b038216820361258e57565b600080fd5b602435906001600160a01b038216820361258e57565b35906001600160a01b038216820361258e57565b60005b8381106125d05750506000910152565b81810151838201526020016125c0565b906020916125f9815180928185528580860191016125bd565b601f01601f1916010190565b604090600319011261258e576004356001600160a01b038116810361258e5790602435600581101561258e5790565b90600182811c92168015612664575b602083101461264e57565b634e487b7160e01b600052602260045260246000fd5b91607f1691612643565b606081019081106001600160401b0382111761109357604052565b608081019081106001600160401b0382111761109357604052565b90601f801991011681019081106001600160401b0382111761109357604052565b90604051918260008254926126d984612634565b9081845260019485811690816000146127485750600114612705575b5050612703925003836126a4565b565b9093915060005260209081600020936000915b818310612730575050612703935082010138806126f5565b85548884018501529485019487945091830191612718565b91505061270394506020925060ff191682840152151560051b82010138806126f5565b6005111561277557565b634e487b7160e01b600052602160045260246000fd5b80548210156119de576000526003602060002091020190600090565b81601f8201121561258e578035906001600160401b03821161109357604051926127db601f8401601f1916602001856126a4565b8284526020838301011161258e57816000926020809301838601378301015290565b3360009081527fad3228b676f7d3cd4284a5443f17f1962b36e491b30a40b2405849e597ba5fb5602090815260408083205490929060ff161561283f57505050565b61284833612c9e565b908084519061285682612689565b604282528482019260603685378251156129b657603084538251906001918210156129b65790607860218501536041915b8183116129485750505061290657604861193d9386936128ea936128db985198899376020b1b1b2b9b9a1b7b73a3937b61d1030b1b1b7bab73a1604d1b8a8601526118e4815180928c6037890191016125bd565b010360288101875201856126a4565b5192839262461bcd60e51b8452600484015260248301906125e0565b60648486519062461bcd60e51b825280600483015260248201527f537472696e67733a20686578206c656e67746820696e73756666696369656e746044820152fd5b909192600f811660108110156129a2576f181899199a1a9b1b9c1cb0b131b232b360811b901a6129788587612c8d565b5360041c92801561298e57600019019190612887565b634e487b7160e01b82526011600452602482fd5b634e487b7160e01b83526032600452602483fd5b634e487b7160e01b81526032600452602490fd5b3360009081527f1da0b5176dfe03406af5a6eed66ca01dda9b45ac4da671c3fa379cb93717ef81602090815260408083205490927f0ce23c3e399818cfee81a7ab0880f714e53d7672b08df0fa62f2843416e1ea099160ff1615612a2e5750505050565b612a3733612c9e565b91845190612a4482612689565b604282528482019260603685378251156129b657603084538251906001918210156129b65790607860218501536041915b818311612ac95750505061290657604861193d9386936128ea936128db985198899376020b1b1b2b9b9a1b7b73a3937b61d1030b1b1b7bab73a1604d1b8a8601526118e4815180928c6037890191016125bd565b909192600f811660108110156129a2576f181899199a1a9b1b9c1cb0b131b232b360811b901a612af98587612c8d565b5360041c92801561298e57600019019190612a75565b600090808252602090828252604092838120338252835260ff848220541615612b385750505050565b612b4133612c9e565b91845190612b4e82612689565b604282528482019260603685378251156129b657603084538251906001918210156129b65790607860218501536041915b818311612bd35750505061290657604861193d9386936128ea936128db985198899376020b1b1b2b9b9a1b7b73a3937b61d1030b1b1b7bab73a1604d1b8a8601526118e4815180928c6037890191016125bd565b909192600f811660108110156129a2576f181899199a1a9b1b9c1cb0b131b232b360811b901a612c038587612c8d565b5360041c92801561298e57600019019190612b7f565b9060009180835282602052604083209160018060a01b03169182845260205260ff604084205416612c4957505050565b80835282602052604083208284526020526040832060ff1981541690557ff6391f5c32d9c69d2a47ea670b442974b53935d1edc7fd64eb21e047a839171b339380a4565b9081518110156119de570160200190565b60405190612cab8261266e565b602a82526020820160403682378251156119de576030905381516001908110156119de57607860218401536029905b808211612d2e575050612cea5790565b606460405162461bcd60e51b815260206004820152602060248201527f537472696e67733a20686578206c656e67746820696e73756666696369656e746044820152fd5b9091600f81166010811015612d87576f181899199a1a9b1b9c1cb0b131b232b360811b901a612d5d8486612c8d565b5360041c918015612d72576000190190612cda565b60246000634e487b7160e01b81526011600452fd5b60246000634e487b7160e01b81526032600452fd5b9081602091031261258e5751801515810361258e5790565b15612dbb57565b60405162461bcd60e51b815260206004820152601f60248201527f55736572206d7573742068617665206469676974616c206964656e74697479006044820152606490fd5b9091603493926001600160601b03199060601b1682526014820152612e2e82518093602086850191016125bd565b010190565b15612e3a57565b60405162461bcd60e51b815260206004820152601660248201527514da59db985d1d5c9948185b1c9958591e481d5cd95960521b6044820152606490fd5b60001981146119c85760010190565b818110612e92575050565b60008155600101612e87565b60ff60015416612eaa57565b60405162461bcd60e51b815260206004820152601060248201526f14185d5cd8589b194e881c185d5cd95960821b6044820152606490fd5b8054600160401b81101561109357612f0190600192838201815561278b565b613023578251815560406002602092612f2d8487015115158683019060ff801983541691151516179055565b01930151908151916001600160401b03831161109357612f4d8554612634565b601f8111612ff3575b5081601f8411600114612f905750928293918392600094612f85575b50501b916000199060031b1c1916179055565b015192503880612f72565b919083601f1981168760005284600020946000905b88838310612fd95750505010612fc0575b505050811b019055565b015160001960f88460031b161c19169055388080612fb6565b858701518855909601959485019487935090810190612fa5565b61301d908660005283600020601f860160051c81019185871061050057601f0160051c0190612e87565b38612f56565b634e487b7160e01b600052600060045260246000fd5b909291602090604083019461304d8161276b565b83521515910152565b61305f8161276b565b806130675750565b6130708161276b565b600181036130bd5760405162461bcd60e51b815260206004820152601860248201527f45434453413a20696e76616c6964207369676e617475726500000000000000006044820152606490fd5b6130c68161276b565b600281036131135760405162461bcd60e51b815260206004820152601f60248201527f45434453413a20696e76616c6964207369676e6174757265206c656e677468006044820152606490fd5b8061311f60039261276b565b1461312657565b60405162461bcd60e51b815260206004820152602260248201527f45434453413a20696e76616c6964207369676e6174757265202773272076616c604482015261756560f01b6064820152608490fd5b9060418151146000146131a4576131a0916020820151906060604084015193015160001a906131ae565b9091565b5050600090600290565b9291907f7fffffffffffffffffffffffffffffff5d576e7357a4501ddfe92f46681b20a083116132245791608094939160ff602094604051948552168484015260408301526060820152600093849182805260015afa156115555781516001600160a01b0381161561321e579190565b50600190565b50505050600090600390565b91908110156119de5760051b0190565b356001600160a01b038116810361258e5790565b6001600160401b0381116110935760051b60200190565b1561327257565b60405162461bcd60e51b815260206004820152601960248201527f5265636f7665727920616c7265616479206578656375746564000000000000006044820152606490fdfe8036eea0d51c4c25c2716968195e96d920030a47da29cf4319a54d8145d173b1a264697066735822122042ed4ab68cf7bfa1f04ee1f5870888251f4ba8a63cb5817e1e9a1039f1bbada364736f6c634300081300332f8788117e7eff1d82e926ec794901d17c78024a50270940304540a733656f0d",
  "linkReferences": {},
  "deployedLinkReferences": {}
}